:400000000080002011000000690400006904000008B5044B1A6803F53F5302331A6000F025FA00BFFA46004010B5054C237833B9044B13B10448AFF300800123237010BD7E
:40004000B081FF1F00000000D8A90000084B10B51BB108480849AFF300800848036803B910BD074B002BFBD0BDE81040184700BF00000000D8A90000B481FF1F0881FF1FEF
:400080000000000030B58BB001F05AFF01F028FF134801F05BFE134832210A4602F0F6F811487821A02202F0F9F8104C08AB2068616803C302AD08340FCC0FC594E8030065
:4000C00085E8030002A80AF07FFC431E0022009202A808A90E2202F013FA0BB030BD00BFD0C80000FCA900000CAA0000DCA9000008B562B600F0F6FBFFF7C4FF00F026FD71
:4001000018B100F02BFD0028F8D101F0E9FE06487821052202F0C2F84FF47A7002F062FA00F09AF9EAE700BF0CAA000010B50446002000F0E5FB204600F096FB00F088FBBE
:4001400010F0010FFAD010BD10B50446012000F0D7FB204600F088FB00F07AFB10F0010FFAD010BD70B506460D46012000F0C8FB002408E0305D00F077FB00F069FB10F01A
:40018000010FFAD00134AC42F4DB70BDFEE700BFFEE700BF08B50120FFF7C8FF0A2000F0DDFB3620FFF7C2FF8820FFF7CDFF3A20FFF7BCFF5520FFF7C7FF1120FFF7B6FFE2
:4001C0002920FFF7B3FFFA2000F0C8FB08BD00BF024A136801331360704700BFCCA3FF1F014B1868704700BFCCA3FF1F044B1B681844034B1B68C31A002BFADC704700BF2A
:40020000CCA3FF1F10B500F083FC002409E0204600F094FC20B92046064900F087FC02E00134042CF3D9042C02D9002000F094FB10BD00BFD101000008B5FFF7E3FF08BD94
:4002400008B504484FF4005101F0E4F8024801F007FE08BDCC81FF1FDCC0000008B5FFF799FF08BD30B5A1B000241B941C941D941E941F9401A8214668220AF095FB1548A8
:4002800015492246234601F061FF05462046F0214FF4A07204F044F82046F0214FF4A07204F056F802231D9328461BA902F053FD0A4B01930A4B02930A4B04930A4B069373
:4002C0000A4B0893284601A9094A0A4B02F061FD21B030BD84D500002CD500002D01000049010000650100008D010000910100000538000065340000012904D108B5FFF760
:40030000ADFF002008BD4FF0FF30704710B586B001F000FD00EBD07044103C3C06F082F9009002230193002302934FF418730393184B0493204628217822642304F0C8FDCE
:40034000154B186010B3022104F0F5FC124C2068322104F0E0FC20680121104A04F028FD206800210E4A04F023FD206801216FF07F4204F006FD206800210A4A04F001FDEF
:400380002068002104F0EAFC002000E0012006B010BD00BF0C81FF1FCCA1FF1F32191A006E4C4200B4B4B40498B100B58FB0094B83FB0123A3EBE17303EB4303C91A04F080
:4003C000CDFC01A87821D22201F068FF0FB05DF804FB70475655555508B501F081FDFFF795FF30B118487821A02201F057FF042008BD164801F0AAFC154878210A2201F0FD
:400400004DFF002000F096FD0028FAD000F0A6FBC0B100F0A7FD83B20E4A9380002803DA00220C4B9A8007E040F6FE72934203D940F6FF72074B9A80064B18689988FFF7D4
:40044000B3FFDEE7012008BD24AA0000D8AA000044AA0000CCA1FF1F08B500F04FFD00F061FDFFF7B9FF08BDFEE700BF08B5104E104D16E029686B68AC68002204E051F8C3
:40048000040B43F8040B0432A242F8D1E868002203E0002143F8041B04328242F9D11035013E002EE6D10AF033FAFFF721FEFEE70100000058EC000008B5124A124B1A60AD
:4004C000124A136843F40073136000230AE0032B03D80F4A52F8231000E00E490E4A42F8231001332F2BF2D90C4B1A780C4B1A70094A0C4B1A6000F0F5F800220A4B1A600B
:4005000008BD00BF0004FA050CED00E014ED00E000000000690400000080FF1FBC7600400481FF1F08ED00E00081FF1FFEE700BFF0B40022174611E050F82760F3B226F0A4
:40054000FF0608E001EB420511F812406D78A5550132013BDBB2002BF4D101371C2FEBD9F0BC70470A4B1B78DBB203F00701094A11701B09013213702022074B1A7002222B
:4005800003F693131A704422A3F28A231A707047CF0100496E5800406D51004008B50A4600210AF001FA08BD08B50AF0D7F908BD38B50024314B1C80502202331A70032556
:4005C00002331D8018232E4A137040F65F1102321180023213702B482B490422FFF7E4FF02222A4B1A7008224FF040231A7003F500731D70264B1B78DBB226490B70264B8E
:400600001A8041F25122023B1A8019250CE0234B1B7803F0010343EA440404F003044FF4F07000F089F9013D0DB1032CEFD115B90320FFF77BFF1A4B4FF480721A80072253
:400640001A70002217490A704820023108701A700222033B1A7004220A331A70124A137843F007031370013A137843F001031370013A137843F08003137038BD8040004063
:400680008640004000410040940400480043004008010049A146004022420040254200400440004006400040A2430040012807D8044B53F820201844017A13780B43137048
:4006C000704700BF88AA0000012808D8044B53F820201844017A137823EA01031370704788AA000070B572B6384A137843F00403137000240AE0364963001A1952000A44B6
:40070000D068118AFFF74AFF0134E4B2082CF2D900240BE02E49A3001A1952000A44506C916C0622FFF740FF0134E4B2002CF1D04FF090402749FFF7FBFE0A24264B1C707A
:40074000264A137843F0020313701032137843F002031370224D2B7843F040032B70A2F58632513A137843F0100313701D481E492246FFF719FF1D481D492246FFF714FF6C
:400780001C481D490822FFF70FFF1C481C490822FFF70AFF1B481C492246FFF705FF1B4A137843F008031370194E01243470FFF7FFFE81233370174B1C70FFF7D3FE1648F7
:4007C00029460E22FFF7F0FE70BD00BFE846004088AA0000740000488358004003500140A0430040C051004060040048F05100406C040048225100407804004842510040DC
:40080000800400486051004088040048224300400048004004000840B043004008B500F093F80A4A137843F020031370043A137843F0100313700132137843F01003137072
:4008400000F086F800F068F808BD00BF95640040014B1878704700BF61640040014B1878704700BF62640040034B1B7813F0040FFAD0024B18707047616400404164004017
:4008800008B501E00A4B1B780A4B1B7813F0200FF8D100F059F8084B1A7842F001021A701A7802F0FE021A7000F052F808BD00BF51640040626400409164004008B50F2200
:4008C000064B1A70FFF7DCFFFFF7C2FFFFF7C6FF0023034A13700132137008BD856400408164004008B5054B1B7823B9FFF7E6FF0122024B1A70FFF791FF08BDD4A1FF1FEF
:40090000044A137803F0DF03400100F0200018431070704740510040054A137843F0020313701032137843F002031370704700BFA2430040000000000230800803D000BF51
:4009400001380046FCD17047EFF3108072B6704780F31088704700BF01BE704710B5044605E0084B1868FFF7E7FFA4F50044B4F5004FF6D8034B586800FB04F0FFF7DCFF18
:4009800010BD00BF1C81FF1F08B5034B1B7A03FB00F0FFF7D1FF08BD1C81FF1F70B504460E46074B1D680F2802D90020FFF7D4FF04F00F0455F8240045F8246070BD00BF62
:4009C00008ED00E070B504460E46074B1D681F2802D90020FFF7C0FF04F01F04103455F8240045F8246070BD08ED00E038B504460D46072902D90020FFF7AEFF1F2C02D984
:400A00000020FFF7A9FF04F01F0000F1604000F564406D01EDB2057038BD00BF024A136843F002031360704710E000E008B5FFF7F5FF034A136843F00103136008BD00BFEF
:400A400010E000E020F07F40014B1860704700BF14E000E0012805D1054A136843F0040313607047024A136823F004031360704710E000E0024B1868C0F30040704700BF8B
:400A800010E000E010B5FFF7F5FF01280BD107E0054B03EB84035B6803B19847013400E00024042CF4D910BDD8A1FF1F0022014B1A60704718E000E008B5002305E00F4A81
:400AC00002EB8302002151600133042BF7D90F200B49FFF763FF0120FFF7BCFF094BDB680948A0FB03308009FFF7ACFFFFF7DEFF4FF40042054B1A6008BD00BFD8A1FF1FB5
:400B0000850A00001C81FF1FD34D621000E100E008B5054B9B6923B9FFF7CEFF0122024B9A61FFF783FF08BDD8A1FF1F024B03EB8003586859607047D8A1FF1F024B03EB69
:400B400080004068704700BFD8A1FF1F024B1878C0F34010704700BFF1510040024B1878C0F34000704700BF6151004010B59DF80840012C4AD10138092826D8DFE800F027
:400B80000525250525250D15251D0F2B02D9214800781BE02048007818E00F2B02D91F48007813E01E48007810E00F2B02D91D4800780BE01C48007808E00F2B02D91B489C
:400BC000007803E01A48007800E0002040B201EB401101FB02F1C90B8AB20D2B0BD8C3F10E0289B211418AB2124901EB8401013301F8023C05E00F4B03EB84030F2103F8D4
:400C0000021C013C0B4B23F8242010BD0020FFF7A3FE10BD180100491C010049190100491D0100491A0100491E0100491B0100491F010049F4A1FF1FF8B50746FFF784FE02
:400C400006460D4D2B7843F003032B700B4C237843F0030323700A4B1F700320FFF794FE2B7803F0FC032B70237803F0FC0323703046FFF76DFEF8BDF8460040F946004031
:400C8000925800400022314B1A7101285DD170B534222F4B1A70062202331A70082201331A70002401331C7001331C701F2201331A7002331C7001331C7001331C70012532
:400CC0000A331D70142203F527631A70052601331E70162201331A7001331C70442203331A70482201331A7001331D7002331C7001331C700A2201331A70432201331A70A8
:400D00005220FFF799FF5822124B1A7001331C7005331E70022201331A7001331C7001331C70204600F058F940F233320A4B1A602C20294600F074F9B620294600F0F4F923
:400D40001D200649FFF73EFE70BD7047F4A1FF1F004E004094580040D0A3FF1FB50F0000F0B583B0284D01272F70284E00247471102000F043F9102000F0C4F91D200721DE
:400D8000FFF734FE0422224B1A7001331C7007331C70204A137843F0180313701E4B1C7003F2F5231C7001331C700A22A3F209331A7001331C7002331C70122205331A7056
:400DC000132201331A7004331C701422A3F68C231A700097022048F66B514FF400420C23FFF7C4FE2B7806EB830313F8022C0B4B1A702B78013B36F82320094B1A80287805
:400E0000FFF740FF03B0F0BD2C81FF1FF4A1FF1F96580040075B0040935800400E4E00400C4E004070B5FFF78FFD06462A4B1B782A4B1A7842F001021A701A7842F01002D7
:400E40001A7010331A7842F001021A701A7842F010021A70224D2B7843F002032B70214C237843F0020323701F4A137843F0030313700320FFF788FD2B7803F0FD032B70BD
:400E8000237803F0FD032370184A137843F0060313707A22164B1A70164A137843F0010313701032137843F0010313700F3A137843F0010313701032137843F0010313709D
:400EC0004FF000530C4A1360A2F5C07213603046FFF73EFD70BD00BF2C81FF1FAA430040F8460040F9460040915800407758004082580040A143004080E200E008B5084B0B
:400F00009B794BB9064BDB7913F0FF0F01D1FFF727FF0122024B9A71FFF784FF08BD00BFF4A1FF1F024A137843F0010313707047004E0040094B1B7913F0FF0F03D0074BD6
:400F40005B79DBB203E0064B1B7803F00103012B01D00028EED01846704700BFF4A1FF1F014E00400E4B1B7803F00303012B03D80C4B188880B209E00A4A12780A490878AA
:400F800042EA0020032B01D1084B1B78084B1B7913F0FF0F02D00022054B5A7100B27047144E0040104E0040114E0040124E0040F4A1FF1F704700BF10B5002404E02046B4
:400FC000FFF782FB0134E4B2012CF8D9FF22014B1A7010BD2D81FF1F10B50446FFF7ECFF2046FFF763FB014B1C7010BD2D81FF1F014B188880B2704780400040034B1A7855
:4010000000F0F80010431870704700BF82400040024B187800F00700704700BF8240004070B505460E46FFF7F3FF0446FFF7E0FF854256D02B4B1B7803F0010294B900B174
:4010400085B938B9284B1D80284A137803F0BF03137070BD254A137843F040031370224B1D8070BD22B3002321490B7001240F310C7004310B700C390B7803F07F030B707F
:401080001A4B1B7813F0080F00D08DB9194B18800721013B1970164B1B7813F0010FFAD110490B7803F0FE030B700021104B19700C4B1B7813F0010F0DD00E4B1D800EB16E
:4010C000032200E001220A4B1A70094B1B7813F0010FFAD170BD044B1D8002490B7813430B7070BDA243004080400040824000400140004002400040014B188880B2704740
:4011000000410040034B1A7800F0F80010431870704700BF02410040024B187800F00700704700BF0241004070B505460E46FFF7F3FF0446FFF7E0FF854256D02B4B1B7804
:4011400003F0010294B900B185B938B9284B1D80284A137803F0BF03137070BD254A137843F040031370224B1D8070BD22B3002321490B70012413310C7004390B700839F5
:401180000B7803F07F030B701A4B1B7813F0080F00D08DB9194B18800721013B1970164B1B7813F0010FFAD110490B7803F0FE030B700021104B19700C4B1B7813F0010F8C
:4011C0000DD00E4B1D800EB1032200E001220A4B1A70094B1B7813F0010FFAD170BD044B1D8002490B7813430B7070BDA14300400041004002410040014000400240004081
:40120000074B10B55A685C6A01325A605A6B02EBC0014C60002102F83010586210BD00BFD8A3FF1F10B50E4944680F2301EBC302126C94420A4A03D213F1FF33F6D210BDD6
:401240000F2B0CD81168091B11608168C06801B1486008B1016010BD02EBC303596410BDD8A3FF1FF8B5274E0546F368B26B013B0818134498420C4605D84B591BB9436856
:401280001D44FFF7CFFFB36B9C420BD954F8043C5B42E718E3582BB97B6838461D443C46FFF7C0FF0F2306EBC302126C954203D213F1FF33F7D223E00F2B21D8083306EB76
:4012C000C30251686019002284E82400A160246140F8045C04F1080001B1486006EBC303A160E260586033680649EA1896F8293032602BB9CB689B1A8A68934288BF8B60F4
:401300002846F8BDD8A3FF1F2DE9F74F234F8346B846FE68BC6B013E264494E82800A3BB61198E4231D954F805A0BAF1000F2CD07B6B13F83A30012B27D1D8F82C30204618
:40134000D1F8049000930191FFF76CFF0199D8F83420086802EBC002546020464A4609F008FB009B04EB09019A4508BFD8F83430284604BF5B1BC8F83430FFF773FFBBF1BA
:40138000000F01D0584505D24D462C44A642C4D8012000E0002003B0BDE8F08FD8A3FF1F28B1034BDA6B026002B15060D8637047D8A3FF1F034B5B6B03EBC0004068083063
:4013C000704700BFD8A3FF1F054BDA690132DA615A6B12F83030013302F83030FFF7EABFD8A3FF1F30B50368094953F8085C4C6B14F83530012B03D9CA690AB1013ACA6113
:40140000013B04F8353000230360184630BD00BFD8A3FF1F024B21F00301186059607047FCA1FF1F30B1044B5B6B03EBC000436858680C38704700BFD8A3FF1F10B5044670
:4014400060B1074B5B6B03EBC00359684868FFF709FF2046BDE81040FFF7D2BE10BD00BFD8A3FF1F2DE9F041224CE36A3BB9224B9D685B680835B3FBF5F5023503E0236977
:401480001D1D05EBD305E80000F0F6F8804660B3616B226901EBC0035E68184B08361B68D2003046E76A9847226966631346C4F82C80691E8B4205D2013306EBC30040F8C3
:4014C000043CF7E706EBC3064FF00008C6F80480636862629B1A2B446360256138463FB1FFF7ACFF4046BDE8F0810120BDE8F081BDE8F081D8A3FF1FFCA1FF1F7C81FF1F28
:4015000070B5184A92F8283053BB012382F82830154B1021D960996811B95968890899605A2111621026002102EBC10006FA01F5013110290B4C0564F6D158681968A0F1B1
:4015400014030B440125022222616363A163E0605D6065626560FFF785FEFFF783FF256370BD00BFD8A3FF1FFCA1FF1F2DE9F0410746264E0337FFF7C3FF27F00307306C75
:401580000437F26B874238BF0746144634B154F8043C9F4223682CD01C46F7E7F368B26B02EB030858F8045CC5EB08052B6833B12046FFF7A9FE58F8045CC5EB08052B68BC
:4015C0000BBB6B689F421EDC28461C1DFFF72AFEF3686868DB1BF3607369E41B3B44C01B2C44736102D02946FFF73CFE44F8047C09E00BB161685960616801B10B60A242A7
:4016000001D12368F3632046BDE8F081D8A3FF1F08B5FFF775FF0C4A00239918D1F8BC0010B1836800200BE0083B13F1800FF4D108E05A689B68904238BF104613B19B6827
:40164000002BF6D10C3808BDD8A3FF1F08B5FFF7DFFF6422B0F5800F88BF90FBF2F0054B8BBF1B6A1B6A5843584398BFB0FBF2F008BD00BFD8A3FF1F2DE9F8430446394EDA
:40168000FFF73EFF356C3368AC4224BF033424F003050C35AB42334C3ED3236B62689A420FD97368776A013B7360736B4FEAC70803EB080252687262012203F8372057B901
:4016C0002AE0013B2363FFF7CDFE236B013323630028E6D020E00F2306EBC302126C95420CD213F1FF33F7D208E094682CB16268954214D9A268002AF7D101330F2B03D889
:4017000006EBC302526CF6E72846FFF7FDFD0028E1D03846FFF774FD0020BDE8F883D4F80490336CC5EB09020C339A4238BF4D462046FFF777FD736B611998444D454FF0C8
:401740000003C8F8044027606560A360246141F8045C03DAC5EB0900FFF784FD3846BDE8F88300BFD8A3FF1F08B1FFF785BF704710B504460068FFF761FE0023236010BD09
:4017800073B506460D4609B9002014E00846FFF7EBFF04460028F7D0FFF716FE01900EB1064B00E0064B1B682A463146984701A8FFF718FE204602B070BD00BF7C81FF1F2C
:4017C0008081FF1F73B50646FFF7CEFF054660B1FFF7FAFD064B02AC44F8040D1B683246002198472046FFF7FDFD284602B070BD8081FF1F73B5044608460D46FFF7B4FF85
:401800000646F8B1F4B12046FFF70CFE8542A8BF05463046FFF7D8FD00902046FFF7D4FD2A460A4B02AD0146019055F8080D1B6898472846FFF7D6FD01A8FFF7D3FD204615
:40184000FFF7FCFD304602B070BD00BF7C81FF1F4D4B2DE9F04F1A688BB0D169CC69A389984208DBE589854205D32568C31A06954FF0FF3613E0A368002B7CD01D88A842BE
:4018800079DB5E88864276D35B68401B666880B203EB8005069633F92030B5F90260581C099368D091F818B0A17CB2F92A900BFB01F34846B2F92270B2F92480079394F8CF
:4018C00010A001F0E9FF079B089018462E4D099B2968CA69896B0591069900FB03100490A37C4146039301230293D37E38460193937E524600935B4602F06EF9731C1AD012
:4019000049F0020001F0C8FF2A680699D369926B38460592079A02FB06160496A27C4146039201220292DA7E01929B7E524600935B4602F051F92B68DB695A7E1B7E9A42C0
:4019400015D9B9F1020F12D089F0040001F0A4FF0D4B1B68D869437E827E017EC07E434400FB01810AFB0272384602F01DF89DF8200001F091FF044B617C1A68538C0B441D
:4019800053840BB0BDE8F08F3081FF1F044B1B68DB69DB6909B11A7C0A60587C704700BF3081FF1F02230B807047C3699A89914202DBDA898A420FD2986880B10388994268
:4019C0000CD342888A4209D3C91A436833F82100C043C0F3C0307047012070470020704738B103888B4202D843888B4201D28068F6E770472DE9F04F384C89B023680646C5
:401A0000B3F92A80DB690146D869FFF7E9FF002860D005884768751B07EBC506404696F802A001F039FFD4F800C017F83520DCF81CE0DCF838309EF818B0BCF924108146DC
:401A4000BCF92200059373684FF0010C0493CDF80CA0CDF808C09EF81BC05B46CDF804C09EF81AE0CDF800E002F0B6F82368DA69537E92F818A00793534520D9B8F1020F05
:401A80001DD092F81BB000F084F8804600F07AF800F057F9226817F83550B2F92410B2F92200D269079BD27E0BFB031305FB02020BFB0A1101F078FF404600F042F9484631
:401AC00001F0EAFE23687178DA69907E5A8C00FB01225A8409B0BDE8F08F00BF3081FF1F38B50C4B02461B680C46DD690146E869FFF776FF60B103884168D21A01EBC20072
:401B0000AB7E407858431CB111F832205343236038BD00BF3081FF1F01230B80704708B5C069FFF75DFF003018BF012008BDC3B2CAB29A1A92B210B514B2002CBCBF52422B
:401B400014B204FB04F2C0F30723C1F307241B1B9BB21CB2090C002CC1EB1041B8BF5B4289B208B2B8BF1CB204FB04230028BCBF494208B280B200FB003010BD08B104F02C
:401B800043BD704708B502F097FABDE8084002F099B908B502F098FABDE8084002F092B9044BB3F900300360034BB3F900300B60704700BFC0A4FF1FB0A4FF1F037EC07E46
:401BC0005843704710B538B309B30AB3B2F90040B1F90030A342A8BF2346B2F902400380B1F90230A342A8BF2346B2F904404380B1F90430B2F90620A342B8BF23468380C6
:401C0000B1F906309342B8BF1346C38010BD11460B6803604B68436010BD68B1038889B20B440380838892B219444388818013444380C3881A44C280704700000C4B10B5BE
:401C40001C681CB1A047041C18BF012404F0C2FA084B00281B6818BF01241BB19847002818BF0124044B1B6803B19847204610BDBCA4FF1FE4A4FF1FDCA4FF1F10B5002454
:401C8000FFF7DCFF08B10124FAE7204610BD0000024B1B6858849984002070473081FF1F024B1B681A7E1876104670473081FF1FB0F90220B1F906309A4214DCB1F90220DD
:401CC000B0F906309A420EDCB0F90020B1F904309A4208DCB0F90400B1F900308342CCBF00200120704700207047000008B5034B7022196808F032FE08BD00BF3081FF1F99
:401D000008B5034B01467022186808F027FE08BD3081FF1F10B5044C236813B902F008FA2060206810BD00BF0CA2FF1F08B502F0BFFA02F025FBBDE8084004F081BA02F046
:401D400007B902F00BB901F0A7BD0000034B1B68DA6900B1D8611046704700BF3081FF1F024B1B689A7E9876104670473081FF1F094B10B41880094B0A461980084B1B686A
:401D8000597C084B53F82130D9680C6A01461846234610BC184700BFC0A4FF1FB0A4FF1F3081FF1FE8A4FF1F034B1B68B3F92C2098851046704700BF3081FF1F034B1B68F1
:401DC000B3F92A2058851046704700BF3081FF1F08B50E4B186802F0BBF80D4B186802F0BDF80120FFF75CFF0020FFF7DDFF0020FFF7E4FF0020FFF7A6FF064B1868FFF7DC
:401E0000A5FFBDE808400020FFF7AABF88A2FF1F3881FF1F3C81FF1F70B50B4D00240B4E45F8044B3368702221462846984733680422214606489847064B1D60064B1C7031
:401E4000064B1C6070BD00BF14A2FF1F8081FF1FE8A4FF1F3081FF1FD0A4FF1FACA4FF1F014BD860704700BF3081FF1F2DE9F3410446042016461F460D4601F00DFD124B50
:401E800080461B686846DA6C1B6D14441D4416441F44ADF80040ADF80460ADF80250ADF8067004F025F828B9404601F0F5FC02B0BDE8F0813B4632462946204601F074FD95
:401EC00003F054FFEFE700BF3081FF1FB0F90630B0F90420B0F90210B0F90000FFF7C6BF002110B50846FFF7D3FEBDE8104043F6FF7302491A460846FFF7B8BF01C0FFFFED
:401F0000024BDA6FD8674260704700BF14A2FF1F10B5094C23686BB901232360FEF790F9FEF7A0F92046BDE81040044B40F8803FFFF7E6BF10BD00BF14A2FF1F191E000091
:401F400070B5FFF7E5FF2F4B2E222F4C2F4D1A70FEF772F92E4B04F10C0123672B681A1DDA6303F10802A2615A7C9B631B64294B53F82200C3681B6B9847274B6366EB6858
:401F800023622B680833A36101232377E37704F049FB032384F86830204BE064606F6363A36301F0D5FFA86801F0D8FF1C4A1D4B1A6001F031FF054602F010F9064602F06C
:401FC00013F906B140B902F0F9F8064602F0F9F80146304602F0FCF800210846FFF7C8FE04F08AF9A36F43B1A36F33B11B6803B19847A36F5B68A367F6E70B4B01221A70FD
:40200000284670BDA1A4FF1F14A2FF1F3081FF1F08D50000E8A4FF1F00D50000785634FF1CD50000E0A4FF1FC8A4FF1F002809DC054B53F8200020B1C3681B681BB100680A
:40204000F9E7704700207047E8A4FF1FFFF7A8B9F8B51C1E06460D46174601DD0020F8BD1C20FFF783FA0028F8D00DB1056109E0084B53F8241029B10B680BB11946FBE793
:402080000B6903610023836084618782C66003604360F8BDE8A4FF1F81690A4A52F821309842036804D142F821300BB100225A60426802B11360036803B15A600023036084
:4020C00043607047E8A4FF1F30B508B9012030BD8469002CFADC1B4B1A789442A4BF01221A70194A52F8243015461BB942F82400184630BD5A680AB11346FBE7C268126826
:40210000D9680968914203DD1B68002BF8D1DDE709D1818A012906D1196821B10B46C96809688A42F8DD5A6812B11060426001E045F824005860984208BF0023036000205A
:4021400030BD00BF99A4FF1FE8A4FF1F38B51D46FFF77EFF044648B1FFF7B6FFE3681B6823B9034B16351B6843F82540204638BD3081FF1F2DE9F04F054685B000287FD021
:4021800004F0ACFF404C07462368A146B3F9228004F08CFF226886B2938C9B1B93842B78002B61D047F6FF71284604F0FFFF01468246284605F024F82268938D03F003037D
:4021C000012B04D0022B04D190FBF3F302E0034600E00023518C1FFA80FBCB1A9BB219B25184ADF80810B2F924200BF1FF310B44ADF80C30ADF80A20BBB2013A1A44ADF879
:402200000E20514602AA2846019305F029F82268BDF80A1028469184514600F00FFA2A5C05EB000E0A2A019B01D00D2A12D12268918D01F00301013901298ABF118CA2F8E9
:40224000228051849EF800100A290AD1918C0B44938406E0BDF80800D9F800308344A3F822B09EF8003043B923689A8C16449A8D9E8422F003029A8502E00EF101058EE730
:4022800005B0BDE8F08F00BF3081FF1F024B1B6859849A84FFF76EBF3081FF1FF8B50B4B05461B680E46B3F92C00174640F00200FFF77AFD04463A4628463146FFF7E6FF77
:4022C0002046BDE8F840FFF76FBD00BF3081FF1F2DE9F04F1F4687B0002301900C4616460293039304F0FAFEDDF80490824624B12068616804AB03C302E004A8FFF73EFCF7
:4023000016F00C0802D1BDF9124031E03C4600258CB12146019804F049FF0146241A019800F08CF9019B01351844019001A804F021FD0028ECD0B8F1080F05D0B8F10C0F2D
:4023400008D0B8F1040F12D1BDF916400AFB154401340DE0BDF91220BDF9163002249B1A01330AFB153595FBF4F5AC1800E00024DFF840B1CDF80490002506F00306002F63
:402380007BD03946019804F011FF014680463F1A019804F035FF012E0FD0022E03D086B9BDF910500DE0BDF91050BDF914305B1B1B1A93FBF6F31D4403E0BDF914502D1A65
:4023C0000135DBF8001023B201382AB28B842844ADF80A300AF1FF334A842344ADF80820ADF80C0002AA41460198ADF80E3004F037FF2F4B1B7873B3DBF800305B8D9A0708
:4024000029D4019B99450CD1BDF90A30BDF912108B4206DD013BBDF91420BDF91000FFF725FDBDF90820BDF91000824206DDBDF90E30013ABDF90A10FFF718FDBDF90C00B5
:40244000BDF91420904206DABDF90E30BDF90A100130FFF70BFD4146019800F0EFF8019B0DF11808184448F8140D04F037FE0444404604F07FFC002881D00D4B1B78A3B141
:402480000C4B1B685B8D9B070FD4019B99450CD0BDF90E10BDF91630994206DABDF914200131BDF91000FFF7E1FC07B0BDE8F08FA4A2FF1F3081FF1F2DE9F3410C46174638
:4024C00098460646C0B169B1084604F03FFA054648B102462146684604F07CFC684604F035FA00E00D46304643463A462146FFF7EFFE284604F02AFA02B0BDE8F081000084
:402500002DE9F04F85B00E9D81460C4692469B4615B9FFF7D1FF39E019B9029103910D4615E00868496802AB03C31A4A02AB03CB10602046516004F009FA054638B1024639
:402540002146684604F046FC684604F0FFF9124E4FF000083368114CC3F814800E9B276802A823605B6898475B46524602A94846FFF7AEFE284604F0E9F9336817B1C3F80B
:40258000148002E003F108025A61276005B0BDE8F08F00BFF4A4FF1F3081FF1FA4A4FF1F024B1A6802B9186000F064B8A8A2FF1F094A10B5136851688B420BD093E80300FA
:4025C000064CA34214BF0833503B136004F0A8F8012010BD002010BD4081FF1FFCA2FF1FFDF7FEBD70B50446FDF7FAFD084E0444FDF7F6FD251A002D08DDFFF73FFB3068E7
:40260000A842A8BF2846FDF7F1FDF1E770BD00BF4881FF1FF8B5084E0468336805461B6820469847336807465B6820469847204428603846F8BD00BFE0A4FF1FF8B50646C8
:402640000D46064F00243DB13B6830465B689847013D06440444F6E72046F8BDE0A4FF1F0078704701207047012070470170012070470000024B1B6803B11847704700BFFA
:4026800008A3FF1F074A00F01F01C0F3C423D35C525CC0F3451003EB0243034A105C03EB00207047D2E9000092E90000074AC1B2C0F30743D35C525CC0F3072003EBC2233F
:4026C000034A105C03EB4010704700BF92E7000092E600004FF6FF7070470000F0B5DFF854E00646DEF800E00D4614461F46BEF1000F03D0F446BDE8F04060470B490C485E
:4027000056F8042B013CC2F307435FFA82FECB5C11F80EE0C2F30722825C03EBCE2303EB42132B803D44EBD1F0BD00BF92E7000092E6000010A3FF1FF0B5154E8646766843
:402740000F4614461D461EB1B446BDE8F0406047501E02F1804103FB00E0013907EB81010C4E0D4F0288013C02F01F0316F803E04FEAD223F35CC2F34512BA5C03EB0E43F4
:4027800003EB022341F80439A0EB0500EAD1F0BD10A3FF1FD2E9000092E90000104670474068801A01387047084670470068401A0138704710B48468D4F8F840A44610BC31
:4027C00060478368D3F8F4301847F7B5164604460D468768FFF7F5FF0190019ABB6A2946534020463246FFF7E5FF03B0F0BD13B584680092D4F8F040A04702B010BD13B5A0
:4028000084680093D4F8F0400B46A04702B010BD10B48468D4F8F040A44610BC604730B48468D4F8EC40A44630BC60477047000073B5079E84680C4D76B1286888B90698B9
:402840000090D4F8A8602046B047D4F8A8302B60064BC4F8A83004E02B6813B1C4F8A8302E6002B070BD00BF18A3FF1F2D280000026CD0F8DC3090691847026CD0F8E0307A
:40288000906918472DE9F34791468A4698460A9C85680B9F00942846D5F8A860B0473946C9EB0404CAEB0806621C286C06FB0222D5F8E430806902B0BDE8F04718472DE9DE
:4028C000F34791468A4698460A9C85680B9F00942846D5F8A860B0473946C9EB0404CAEB0806621C286C06FB0222D5F8E830806902B0BDE8F04718470139172928D8DFE8DD
:4029000001F01427272727272727270E101219290C272727272727231E250F4870470F4870470F4870470F48704703689B68D3F80401704703689B68D3F8FC007047036808
:402940009B68D3F800017047074870470748704700207047064870472B2D0000172D0000032D0000A92C00000D2C000031280000412D0000013980680D2923D8DFE801F03D
:40298000090B0D0F2222221125070713181D01207047006870474068704780687047C0687047806B704788B1406B00F00100704760B1406BC0F34000704738B1406BC0F346
:4029C000800070474FF0FF30704700207047836801290CBF586C00207047826800230B804B801368013B8B805368013BCB807047F0B5104C91B06D46264607460FCE0FC5AC
:402A000096E80F00203485E80F000FCC08AD0FC594E80F0085E80F007B6B10AA02EB830353F8402C53F8203CC7F80821C7F80C3111B0F0BD44D5000007B580698DE80600D2
:402A40006A460321FDF758FC03B05DF804FB0846704708467047084670471046704710467047104670474068801A013870470068401A013870470068401A013870474068BF
:402A8000801A013870474068801A013870470068401A013870472DE9F34184689846E38C0E469B0717462ED5D4F80831204698470546D4F80C313A46314620469847A369E9
:402AC00022699D42D4BF002301239542B8BF43F00103626906469042B8BF43F0010313B9E36998420ADD62682368013A00920022D4F8A870013B11462046B847D4F8AC30D5
:402B00003246294601E0D4F8AC302046984741462046D4F8A43002B0BDE8F0411847F7B584680E46E38C17469B0743D5D4F8083120469847D4F80C31314605463A462046FF
:402B40009847D4F8983006461BB10022012120469847A36922699D42D4BF002301239542B8BF43F0010362699642B8BF43F0010313B9E3699E420ADD62682368013A00921A
:402B80000022D4F8A870013B11462046B8472946D4F8AC30324620469847D4F8A03020469847D4F8983005467BB101220021204698470AE0D4F8AC30204698472046D4F8C5
:402BC000A03003B0BDE8F0401847284603B0F0BD38B5856804469DB94FF4BE70FEF7C6FC084B4FF4BE721B68A06029469847A3680222DA8401221A62034A1C64C3F8102132
:402C000038BD00BF8081FF1FF129000070B506460D461446FFF7DCFFB368002B3BD0262D02D0272D16D070BD9A6B102A02D0122A08D070BD184AC3F8DC40C3F8B820C3F802
:402C4000B42070BD154AC3F8E040C3F8BC20C3F8C02070BD9A6B102A02D0122A0ED070BD3CB10F4AC3F8E440C3F8CC20C3F8C82070BDC3F8CC40C3F8C84070BD3CB1094ACF
:402C8000C3F8E840C3F8D020C3F8D42070BDC3F8D040C3F8D44070BD712800007B28000085280000BF28000070B50646FFF790FF4FF4FA70B568FEF759FCA866B0FA80F4DD
:402CC000A86B2B680730C0105843FEF74FFC002200284FF00101E866B0694FEA541408BF0124FDF709FBD5F810310443284698472846D5F8B0309847002CD4BF0020012039
:402D000070BD70B506460D461446FFF761FFB3681D605C6070BD70B506460D461446FFF757FFB3689D60DC6070BD10B50446FFF74FFFA06900220621BDE81040FDF7DCBA62
:402D400010B50446FFF744FFA06900220521BDE81040FDF7D1BA38B50C460546FFF738FF2268AB68DA6262681A63A2685A63520707D51A68596883E806009A68D968DA6042
:402D80009960A2899A84226912B122EAE2721A6238BD2DE9F041044688461E461746FFF717FFA5686822414605F58A7007F0D6FD2046B8472046B04723699B689847A86270
:402DC000BDE8F0810B0A80F8713080F87210D0F820310221713018472DE9F04115460446806E0E460021A5B1034636F8022B0131170AFA2903F8027B427007D1D4F820317B
:402E00004FF4FA71A06E9847A36E0021013D1846E9E731B1D4F82031A06E4900BDE8F0411847BDE8F08108B5D0F8B830984708BD89B2FFF7C7BF00002DE9F04F3E4E824647
:402E40008568306885B0007C884610F0010F14469946A3EB01003DD043000393471C0E9B9C4266DCD5F8CCB0EE6EBBF1000F01D1C34607E08DE850004B4622464146504667
:402E8000D8470DE0CB450ADC5946D5F8F4302246504698470BF1010B26F8020BF2E7EE6E039AB31E1644B34205D0A96A33F8022F4A401A80F7E7009422464B4641462846B6
:402EC000D5F8A860B0473A46E96E2846FFF784FF0134C4E70E9FBC1A671C00FB07770E980090D5F8A8402846A0473368AE6EDB6B1C680123C4F3072906EB030AE4B2C7B111
:402F0000B846F92F28BF4FF0F9084FEA48013BB9D5F8203150469847C8EB07070023EEE7334672189342F3D083F8019003F8024FF8E705B0BDE8F08F3081FF1F2DE9F04FB3
:402F40008FB00393836805900993199B0691082B08920CD8199A4FF48B73D340DB0706D5984B1B681B7C03F00303022B10D0069B1C9A18989918089A039B0244013A009292
:402F8000099ACB18D2F8A840013B089A0998A047039B1C9A013B0D93069B089F13440493049A0D9B13440C93089B189AFB1A9A4240F35382199B013B0F2B00F24882DFE8D6
:402FC00013F01000C10046024801460246024602D80146024602460246024602460246024102059B9C681D9B5B680B93754B1B681B7C03F00303022B22D0032B76D0012B31
:4030000074D01D9B039E1C9DDDF86CB0B3F80090BDF82CA04FF080089BF8002048FA05F31A4214BF5146494601352046FFF7CAFE082D04BF0BF1010B0025013EECD106E221
:403040001B9B00250A932B46DDF810B0D4F86CA0DDF87080CDF81CB00A9A92F80090802242FA08F219EA02090DD01BB9D4F86CA0DDF81CB0BDF82C300135AAF800300AF1C2
:40308000020A012313E0012B10D1079B0097013B3A4659462046D4F8A860B0472A46E16E2046FFF799FE4D464B4600E04B46079A08F101080132B8F1080F079208BF0A9A3A
:4030C000039904BF01320A92049A08BF4FF000080A4407999142BFD1002D00F0B8810097D4F8A8600C9B3A465946A5E1039B049A1C9DDDF86C80079303EB020A4FF0800B84
:40310000079B98F80020C3EB0A094BFA05F31A420DD0D4F8F4303A46494605989847A36A3A46434049460598D4F8F860B0470135079B082D04BF08F101080025013B079367
:40314000DED184E1059B9C681D9B002B00F07F811B9B93F800B01B4B1B681B7C13F003030FD0022B40F07381049B00260A931B9BD4F86CA0DDF870900B93DDF810803246DA
:4031800045E01C9D039EDDF86C904FF0C008C5F103035A00C2F1060348FA03F303EA0B03D3401D9A013532F823102046FFF70AFE042D02BF99F801B0002509F10109013E56
:4031C000E5D144E13081FF1F1AB9D4F86CA0CDF82880079A1D9B013653F822300AF1020A2AF8023C012209F10109B9F1040F08F1010806D10B9B4FF0000993F801B001335E
:403200000B93049B03990B44984500F0A680C9F103056D00C5F10603C02141FA03F303EA0B03EB400793CFD1012A10D1009708F1FF333A460A992046D4F8A850A847324691
:40324000E16E2046FFF7C8FD079E3246CBE7079AC9E7059B9C681D9B002B00F0F8801B9B93F800B07E4B1B681B7C13F003030FD0022B40F0EC80049B00260A931B9BD4F866
:403280006CA0DDF870900B93DDF81080324642E01C9D039EDDF86C904FF0F008C5F101039A00C2F1040348FA03F303EA0B03D3401D9A013532F823102046FFF783FD022D85
:4032C00002BF99F801B0002509F10109013EE5D1BDE01AB9D4F86CA0CDF82880079A1D9B013653F822300AF1020A2AF8023C012209F10109B9F1020F08F1010806D10B9B03
:403300004FF0000993F801B001330B93039B04990B44984521D0C9F10105AD00C5F10403F02141FA03F303EA0B03EB400793D0D1012A10D1009708F1FF333A460A992046BB
:40334000D4F8A850A8473246E16E2046FFF744FD079E3246CCE7079ACAE7002E77D000973A46D4F8A8500C9B0A992046A847324665E0059B9C681D9B002B68D0384B1B68A3
:403380001B7C13F003030FD0022B60D1DDF818A0039A00255244D4F86C80DDF86CB0CDF81CA02B460A9224E01B9D039B1B9A5B1B1344002B4BDD15F8013B1D9A204632F855
:4033C0002310FFF7FFFCF0E71BB9D4F86C80DDF81CA01D9B013553F8293008F1020828F8023C0123079A0132079207990A9A914219D01BF8019BB9F1000FE5D1012B10D106
:40340000079B0097013B3A4651462046D4F8A860B0472A46E16E2046FFF7DEFC4D464B46E0E74B46DEE70D9B069A13447DB13A4651460097D4F8A8602046B0472A46E16E2E
:40344000204602E0039A1B990998FFF7C5FC1B9B1A9A013713441B93A6E50FB0BDE8F08F3081FF1F10B50446FFF7B2FBA468104B0821C4F8EC300F4B2046C4F8F0300E4B68
:40348000C4F8F4300D4BC4F8F8300D4BC4F8A0300C4BC4F8A430D4F8CC30C4F80431D4F8943098471023A363074B636410BD00BF3D2F0000392E00001F2B0000972A000041
:4034C000272E0000312E00001CEA00002DE9F04104460E461546D0F88C302A219847E16AD4F8903031442046C1F30F219847E16AB7B23944D4F890302046C9B29847E16AE7
:40350000D4F8903031442046C1F30F219847E16AD4F8903039442046C9B29847D4F88C3020462B219847216BD4F8903029442046C1F30F219847216BAEB23144D4F8903099
:403540002046C9B29847216BD4F8903029442046C1F30F219847216BD4F8903031442046C9B29847D4F88C302046BDE8F0412C2118472DE9F041044688461F461646D0F838
:403580008C302A21069D9847E16AD4F8903041442046C1F30F219847E16AD4F8903041442046C9B29847E16AD4F8903039442046C1F30F219847E16AD4F8903039442046AA
:4035C000C9B29847D4F88C3020462B219847216BD4F8903031442046C1F30F219847216BD4F8903031442046C9B29847216BD4F8903029442046C1F30F219847216BD4F84F
:40360000903029442046C9B29847D4F88C302046BDE8F0412C21184713B504466B460D4A1068516803C3D4F88C302046362198472046636B02AAA18C134413F8083C21F034
:40364000E0011943D4F8903089B202B0BDE81040184700BFB8D5000013B50446D0F814312E209847216AD4F83031684603319847236A0DEB03021DF803305078DB0880082A
:40368000DB0243EA4013907843EAD00002B010BD1FB50446D0F834312E209847216AD4F85031684602319847226A0DEB42035B88C3F3C4005B1103F4FC6303433DF81200A4
:4036C000000200F47840184304B010BD70B505460C46D0F81431080A9847D5F81431E0B2BDE870401847D0F8343108461847D0F81831C8B21847D0F8383108461847000086
:40370000082902D0102905D07047064BC0F88C30054B03E0054BC0F88C30054BC0F89030704700BFCD360000EF360000E7360000F7360000F0B585B00A9F8568BC1A581A9D
:403740000097013400FB0444D5F8A87028460B9EB847D5F814312E209847D5F83031296A02A89847D5F83031032102A898479DF80930013C4FEA93029DF808304FEAD30326
:403780004FEAC32343EA42139DF80A2043EAD20326F8023BE6D105B0F0BDF0B587B00C9F8568BC1A581A0097013400FB0444D5F8A87028460D9EB847D5F834312E2098470C
:4037C000D5F85031296A02A89847D5F85031022102A89847BDF80A30013CC3F3C4024FEA631303F4FC6343EA0203BDF808204FEA022222F4FF6243EA020326F8023BE4D193
:4038000007B0F0BD10B50446FFF7E2F9A368114A0021C3F8AC20104AC3F8BC10C3F8A8200E4AC3F8D010C3F8B0200D4AC3F8B8200C4A10685268C3F8B400C3F8C820DA8C6A
:40384000094822F00302DA84084AC3F8CC00C3F8942010BDCD3400007335000019360000593600004C81FF1F353700000137000070B5084B1B681A7C82EA0001490705D52F
:403880009C6BD96B25680E6826600D601874104670BD00BF3081FF1F014B1B689B6818475481FF1F0A46154B30B41B680446B3F90A10914220DCB3F90E108A421CDCB3F9D6
:4038C0000810814218DCB3F90C10884214DC197C587C11F0010F0A4951F8200004D0C368214630BCDB691847C168DB6B8D691B682146AC4630BC604730BC70473081FF1F06
:40390000E8A4FF1F114B30B41C680D46B4F90A308B4219DCB4F90E30994215DCB4F90810B4F90C308142B8BF01469342A8BF1346994209DC607C064A52F82000C268946826
:403940002A46A44630BC604730BC70473081FF1FE8A4FF1F124B30B41C68B4F9083083421BDCB4F90C30984217DCB4F90A309942B8BF1946B4F90E309342A8BF134699422F
:403980000BDC084A647C52F82440E268D5680A46AC460146204630BC604730BC704700BF3081FF1FE8A4FF1F73B5134C2468B4F90850B4F90C608542B8BF05469642A8BF63
:4039C0001646AE4215DBB4F90A208A42B8BF0A46B4F90E108B42A8BF0B469A4209DC607C064951F82000C16800930C6933462946A04702B070BD00BF3081FF1FE8A4FF1F65
:403A00002DE9F04F8FB0189DDFF8C8E10295199DDEF800E008951B9D079003950C4617460193DDF868A01C9EDDF874B01E9DBEF1000F02D0DEF8004054E0029B089A134339
:403A4000012B54D1614B1868B0F90A20531A002B0ADD0199C3EB010EBEF1000F40F3B280039901FB036602E00A46DDF804E0019B1C44B0F90E30013CE41A002C05DDC4EB36
:403A80000E0EBEF1000F40F39D80079BB0F90C103B44013B5B1A002BC8BFFF1A079B591BB0F90830994209DA5B1A1D44FF1A23F0070306EBE506194405F00705002F40F31D
:403AC0008180407C424B039C53F82000C368CDF874B01C951B961A94CDF864A0CDF860E05C683B46A4460FB0BDE8F04F60477546CAF108030B93029BDFF8D090013BCDF813
:403B000014E00D93059B019A93425BDA089BE3180993013B0A93D9F800300A99B3F90A208A4248DCB3F90E309C4244DC079B4FF0000806960093CDF81080049BBB423ADA2A
:403B4000B8F1000F05D1069B4FF008081D78013306930B9BCAEB080845FA03F313F0FF0105FA0AF5EDB204D1D9F80020127C920719D4D9F80020D26B10680C90BBF1000F4E
:403B800002D05BF8213000E0DBB2136000990D9A0A9B0A4400982146FFF706FFD9F800300C9ADB6B1A60049B029A01330493009B13440093C1E7059B099C01330593039B39
:403BC0001E449FE70FB0BDE8F08F00BF3081FF1FE8A4FF1FA4A4FF1F2DE9F04F8FB0189CDFF814E20294199C1D9E0894DEF800E01B9C054603940091904601931A9F1C9CEA
:403C00000496BEF1000F02D0DEF800407AE0029B089A1343012B7AD1754B01991868009BB0F90A20D31A002B07DDC91A002940F3DB80039E06FB034400E0009A9DE84800D0
:403C40001E44B0F90E30013EF61A002E03DD891B002940F3C98005EB0803B0F90C60013B9B1BB0F90860002BC8BFC3EB0808B54231DA731B082FC3EB080827D00DDC022F3C
:403C800014D0042F1AD0012F26D123F0070604EBE304354403F007031EE0182F18D0202F16D0102F18D104EB430413E023F0030604EBA304354403F003030DE023F0010692
:403CC00004EB6304354403F0010305E01C4401E004EB830435460023B8F1000F40F38480467C444850F82600049ED0F80CE01C93039B18911A93294643461D961B94199716
:403D0000DEF80440A4460FB0BDE8F04F6047F346C7F108030B93029BDFF8D4A0013BCDF818E00D93069B019A93425DDA009A089B13440993013B0A93DAF800300A99B3F978
:403D40000A208A4248DCB3F90E30009A9A4243DC2E464FF000090794CDF81490059B43453ADAB9F1000F06D1079B4FF0080993F800B0013307930B9B0BFA07F24BFA03F344
:403D800013F0FF015FFA82FBC7EB090904D1DAF80020127C920717D4DAF80020D26B10680C90049810B150F8213000E0DBB213600D9A0A9B324400993046FFF7F5FDDAF8E9
:403DC00000300C9ADB6B1A60059B029A01330593334613441E46C1E7069B01330693039B1C44099B00939DE70FB0BDE8F08F00BF3081FF1FE8A4FF1FA4A4FF1F044B1968D1
:403E0000044B4A7C083153F82200C3681B6B18473081FF1FE8A4FF1F07B5FFF7EFFF00F0B1F8002839D1FEF701F9019038B900F0FFF81B4B1A681B4B9A420CD12AE0C3683F
:403E40000C215B6A01A89847034628B3019898470028ECD021E00020FEF7E8F80190C8B1002003F051FA0420FFF716FD43F6FF7300211A460846FFF797FD0020FFF70CFD9A
:403E8000019B0E21DB6801A85B6A9847034608B101989847002000E0012003B05DF804FB88A2FF1F785634FF044B1B685A7C044B53F822301B691B68184700BF3081FF1F34
:403EC000E8A4FF1F044B1B685A7C044B53F822301B695B68184700BF3081FF1FE8A4FF1F044B1B681A7C52074CBF9B6BDB6B1860704700BF3081FF1F08B5064B1B68196BBC
:403F0000814206D01863FFF7CFFFBDE80840FFF7E7BF08BD3081FF1F044B1B681A7C52074CBFDB6B9B6B1860704700BF3081FF1F08B5064B1B68596B814206D05863FFF718
:403F4000B3FFBDE80840FFF7E7BF08BD3081FF1F014B1B685B6818475481FF1F014B1B681B6818475481FF1F10B5044C2068FDF717FA034A00232360136010BDFCA4FF1F57
:403F800034A3FF1F38B50A4D2C6864B9094B18688000FDF7EBFA286038B10748074B40F8043FFDF7ADFF002038BD012038BD00BFFCA4FF1F5881FF1F34A3FF1F693F000081
:403FC0002DE9F843044618B387681FB3144D286820B32268B2F5807F1FDC124B00261B689A42A8BF1A469046464509DA57F82600D5F80090FFF758FF49F826000136F3E727
:40400000094B1B680BB1204698472868BDE8F883BDE8F8833846BDE8F8830020BDE8F883FCA4FF1F5881FF1F34A3FF1FFFF7C8BF2DE9F74F00F033F91C4E8046B146DFF85D
:4040400074A0002444452DDA2046FDF7EFFF38B33368204693F811B05C7400F063F8082804DDD9F8003083F811B019E05AF824301A690F4B9A42F4D0204600F056F8034686
:4040800000259D42EDDAEFB238460193FFF71AFF39460246204600F02BF90135019BF0E70134CFE703B0BDE8F08F00BF3081FF1F04EA0000E8A4FF1F024B1B689B6B18684B
:4040C000704700BF3081FF1F024B1B68DB6B1868704700BF3081FF1F10B50C46FDF7A6FF28B1C3682146BDE810409B6A184710BD002801DCFFF7F0BF00207047014608B5DA
:404100000020FFF7E9FF20EAE07008BD0121FFF7EFBF0221FFF7ECBF0321FFF7E9BF0421FFF7E6BF0821FFF7E3BF0921FFF7E0BF024B1B68587CFFF7E9BF00BF3081FF1F06
:40414000024B1B68587CFFF7E4BF00BF3081FF1F024B1B68587CFFF7E8BF00BF3081FF1F034B082153F82000C3689B6A184700BFE8A4FF1F10B5FDF759FF28B1BDE81040EC
:40418000C3680221DB6A184710BD0000024B1B68587CFFF7EFBF00BF3081FF1F024B53F820301B6958687047E8A4FF1F024B53F820301B6918687047E8A4FF1F0120FFF779
:4041C0009DBF0220FFF79ABF0320FFF797BF0000014B83E80300704740A3FF1F014B1868704700BF40A3FF1F014B5868704700BF40A3FF1F00283BD030F0010329D030F0DB
:40420000030328D030F0070327D030F00F0326D030F01F0325D030F0FF0324D020F4FF7323F001030BB320F47F6323F00F03E3B120F4FF4323F07F03BBB1030C1B04A3B107
:40424000830C9B049BB110F07F4F0CBF182020207047012070470220704703207047042070470520704708207047102070471220704708B5FFF7BEFF01280FD0831E062BC1
:4042800009D9A0F10903072B07D911380F288CBF0020202008BD082008BD102008BD08B50020FDF7C3FE003018BF012008BD00000D4B10B51C461A68517C0C4A52F821008D
:4042C00040B1C36813B11B68042B01D00068F7E7FDF7E2FE23680022DA6503F108025A61BDE81040FFF78ABD3081FF1FE8A4FF1F37B50C461546FDF799FE019008B901205A
:404300000CE0C36810215B6A01A8984703460028F5D001982A4621469847002003B030BD37B50C461546FDF781FE019008B901200CE0C3680B215B6A01A898470346002823
:40434000F5D001982A4621469847002003B030BD37B50C461546FDF769FE019008B901200CE0C3680A215B6A01A8984703460028F5D001982A4621469847002003B030BD2E
:4043800010B5074C2368186BFFF78EFDFFF7A8FD2368586BFFF788FDBDE81040FFF7BCBD3081FF1F13B5FDF70FF8034600229C6D02A8DA679A654FF0FF3240F8043DC3F8FA
:4043C0008C20FDF70FF814B1204602F09EFB02B010BD73B5FCF7F8FF034602A840F8043DDE6E9C6DD3F89050FCF7FCFFFEF7F8F8864204DD1CB12946204602F0EFFB02B0B7
:4044000070BD2DE9F7430F468146FCF7DDFF02AED0F88C8046F8040DD0F88440C56E3046FCF7E0FFB8F1000F39DAFEF7D9F880468DB13C1B10D0C5EB08054846013501F0FC
:40444000FDFA092D0ADDA31C042B07D96423634393FBF5F503E02C46254600E000254846FCF7B2FF836FD0F888201C44002A0190C0F86C80C0F88470C567846703DC304685
:40448000FCF7B0FF0BE0836F002B02DA13448367F9E7836F9A42F2DA9B1A8367F9E703B0BDE8F0832DE9F04F04468FB00D4617460021242205A8984606F076FA2046FCF732
:4044C00083FF03460EA89A6B5E6B40F82C3DD3F888B00192D3F878A0FCF784FF304602F011FDBBF1000F814604DDAA4502DDCBEB0A0AFAE71B220594069200240DF1100BE0
:404500002146304602F093FD029028B302680D9232B92146304602F077FDCDF834B0049002A8FCF75FFF05A8019B9847AA450AEB00020BDC954209DA07B13C60B8F1000F85
:4045400001D0C8F80000CAEB050005E00134A14508BF00249246D3E70FB0BDE8F08F2DE9F04F036A89B00446002B00F082800068FCF72AFF0590C06BFDF720FB804608A865
:4045800050F80C2DA168936E556E591A4B424B4102EB8303996C1B6CB2F90490B2F900B0D66D176EB2F950A001910293FCF71AFF236A002D18BFA8461868FCF705FF0346B3
:4045C00008A840F8103D0393FCF70CFF62681A2A05D01B2A08D0012A039B4AD109E0CBEB090909F1010045E0002D14BF2846404640E01D1D236920683344ADF818306369AB
:40460000ADF81A30A369DB1BADF81C30E369ADF81E3002F05BFA80460298FDF790FB0198FDF78FFB284602F040FC8146B8F1000F04D106A8FDF74AFC404600E00220FDF7C8
:40464000BDFB4B46524606A92846FDF735FFB8F1000F0ED136B12069721EE36902446169FDF704FC2FB104F114010EC9D01BFDF7FDFB002009B0BDE8F08F73B506460D46D1
:40468000FCF7A2FE02AB846D43F8040D1846FCF7A9FE24B12946204602F0A0FA06E0234621462A46304602F069FA0446204602B070BD2DE9F04F446897B080460146204614
:4046C00000F040FC002800F0C482D8F80030112B00F01E8105DC0B2B0CD00F2B00F00F8294E240F21312934215D0B3F5107F00F04A818BE22046FCF767FE034600225C6BE1
:4047000016A840F8243D5A639A65FCF76BFE204602F051FC7AE22046FCF756FED0F880300DF1580A0493D0F89030D0F88CB00193036F4AF82C0D0593436F866F0293436D5C
:40474000C56F876DD0F8889050460393FCF74AFEBBF1000F65DB5E454CD085B9022099FBF0F0C6EB0B010029DCBF494201258842B8BF85F001056D00C5F101052BE02E44A8
:40478000002E01DA4E44FBE7B14502DAC9EB0606FAE7204601F052F9002D07DDC6EB0B01002901DA4944FBE7002307E06D42CBEB0601002901DA4944FBE701234FEAA91027
:4047C0000528B8BF05208542B8BF01358D42A8BF0D4603B16D42D94507D136B9384602F094F94FF0FF3B37460AE00199384602F0F5F905E0384602F088F94FF0FF3B002760
:404800002046FCF7E1FD0B9086678765C567C0F88CB00446FDF7E4FEE0665046FCF7E2FDF4E1B9F1000F04DDB14502DAC9EB0606FAE7204601F002F9FDF7D2FE85EAE57122
:40484000A1EBE5714FF0640E059B0EFB01F1C01A039B002D91FBF3F1CCBF01224FF0FF3288422ADA00FB03F900FB09F902FB09F96FF0C70299FBF2F900FB059090FBFEF066
:40488000029A80EAE073A3EBE0731344F31A002BB8BF5B42022B10DD134603441E4606E023DD002DCCBF03236FF002031E440199384602F093F900251CE00DAB0022049945
:4048C0002046FFF7EFFD80B1002DBCBF0D9B181A012840F09F81002DD4BF4FF0FF330123019938461E4402F079F9384602F00DF9012500272046FCF767FD0B90866787651D
:404900005046FCF76FFD002D00F08081042136E02046FFF75EFD2046FCF756FD16AE46F8240D458E3046FCF75DFDD8F80C70B7F80890B9F1010F40F0698105F48075204642
:40494000ADB2FFF72FFD002D40F060812046FCF73BFD82460D90FDF743FE7A680D9BCAF86C00C3F884203046FCF73CFD2946204602F098F879682046FFF743FD49462046CB
:4049800001F06DFF42E12046FFF723FDD8F80400D8F80C5001F0BCFE0646002D00F03681002800F0A080D8F80C30002B00F02E810BA9D8F8040001F025FE2B7A53B169680C
:4049C00000290ADBBDF93230994206DC2046FFF718FD1BE14FF0020901E04FF003092046FCF7F2FC16AE46F8380D836BD0F88CA00393C36EC56F0493436B876D0193D0F8F1
:404A00008030D0F890B030460593FCF7EBFCBAF1000F65DAFDF7E4FD049A0290831A642B08DC3DB1002F3AD159462046FFF725FE074634E000230AAA05992046FFF732FD21
:404A4000824678B30A99019802F0F1FA0268079015923AB90A99019802F0D6FA16AA42F8340D159207A8FCF7BDFC1B2216A80E92039B40F8244D9847022590FBF5F5AA4409
:404A80005045B8BFC0EB0A0A59462046FFF7F5FD5545B4BF01254FF0FF35074603E04FF0000A00E005462046FCF78EFC029B816F002208904167C567C2660367C0F8842008
:404AC00087653046FCF78EFC4946204601F0C7FEBAF1000F04D11DB90421204601F0BFFE01F0F2FF92E02B7A002B00F08F802046FFF758FC3146204601F0D4FF86E024226E
:404B000000210DA805F050FF0BA9204601F098FD2046FCF759FC0990866B406B02F0F2F9074616A850F8343D5A6BD3F888A00192D3F87890DD6BFCF755FCBAF1000F00F0E3
:404B400088802846FDF702F9002E00F0828005230E93BDF9303000251393BDF932300D941195129514930DA8B047AA46A8464D46BAF1000F30D14146019802F058FA089085
:404B80000168159131B94146019802F03DFA0AAB0A90159308A8FCF725FC1B230E930DA8B047BAF1000F00D02D1A10EB050B0FD401200E9000201190BDF930000D94139004
:404BC0000BF1FF301490CDF83C8012950DA8B047BAF1000F27D12FE0B9F1000FCBDC0AF1010ABAF1020F02D007F1FF38BFE70D230E93002311931293BDF930300D941393EE
:404C0000BDF932300DA81493B04722E0404601F029FB1EE002287FF443AE002DD4BF6FF0010302235CE6002DD9DBB8F1000F08BFB84608F1FF389BE7781E804508BF4FF0E5
:404C4000FF38BDF932008345C9DC08F101085D4691E717B0BDE8F08F2DE9F047002390B08946039304930446002851D000294FD005A801F0F1FC2046FCF7A6FB10AD019046
:404C8000C06BFDF763F855F83C3D5E6B2846D3F838A0FCF7A7FB304602F034F90746484605F092FE03A900F10802304602F039F970BB3946304602F0BAF980460090494665
:404CC000043005F079FED8F800300F933BB93946304602F099F910AB43F8380D0F936846FCF780FB1B2308930794099707A8D04706462046FCF768FBD0F8883001901E44B7
:404D0000C0F888602846FCF76DFB204600F096FE10B0BDE8F08713B50C4650B1FCF754FB02AB43F8040D8467C0F880401846FCF759FB02B010BD37B50D46044660B1FCF7DA
:404D400043FB02AB43F8040DA0F850501846FCF749FB204600F072FE03B030BD37B50C46054660B1FCF730FB836E0190A34203D08466284600F062FE01A8FCF733FB03B0B2
:404D800030BD73B50C461646054678B101290DD8FCF71AFB034602A840F8043D03EB84039E64FCF71FFB284600F048FE02B070BD73B50C461646054678B101290DD8FCF7E6
:404DC00003FB034602A840F8043D03EB84031E64FCF708FB284600F031FE02B070BDF7B50C46064610B319B9304600F027FE1DE0FCF7EAFA02AB43F8040D476B1846FCF7B6
:404E0000F1FA384602F07EF8451E6B1C05D02946384602F022F9013DF7E7043C54F8041F0029E1D03046FFF717FFF7E703B0F0BD2DE9F04186B0119CDDF840806834039491
:404E40001F4C02940D9C01940C9C009400F016FE074688B302F0FEF80446384654B3FCF7B3FA00220F99059000F052F80DF1180E5EF8046D134B144D746306F13C04F3622E
:404E80000FCD0FC495E80700104B84E80700B3634FF0FF33C6F88C301923C6F890307046FCF7A0FAB8F1000F06D041463846FFF796FF01E000F09AFE384606B0BDE8F08122
:404EC000B3460000CCD500005C81FF1F5F45000010B5002486B005940C9C04940B9C03940A9C0294099C0194089C0094FFF7A0FF06B010BD38B505460C4600F057FDEB6A5A
:404F000021461A682046BDE8384001F0C0BF0000024B42861B680186C36270477881FF1F37B50C460546FCF74FFA438E0190A34203D04486284600F081FD01A8FCF752FA16
:404F400003B030BDF0B50D4685B00646002800F09580FCF739FA2B680290162B54D00CDC112B33D002DC0D2B40D080E0142B79D0152B7CD1B0F9303072E01F2B6DD002DCB9
:404F80001E2B44D073E0312B1ED0B3F5407F6ED1E968C36A0C681B68C16202A81C1BFCF721FA3046FCF710FA04AD624245F8040D23461146009401F057FA2846FCF712FAB1
:404FC000304600F03BFD50E0002441E0438ED9064DD5EB68002B4AD01B7A002B47D002A8FCF700FA304601F045FC40E0EB68DB68002B3CD01B7A002B39D002A8FCF7F2F9E0
:40500000304601F0C3FA30E0EB6803862DE0EB68418E012B08D1CA060DD541F001013046FFF77EFF082708E021F001013046FFF777FF092701E04FF0FF3702A8FCF7D2F964
:405040007B1C4FF0000405D03946304601F007FCEC600DE00123EB600AE0438EC3F30013EB6002E0E968FFF745FF002400E00124029B23B102A8FCF7B5F900E00124204664
:4050800005B0F0BD70477047704770477047000010B504469CB06846FCF728FE094B1868FEF75CFFB4F90630B4F90420B4F90210B4F9000001F0A8FD6846FCF721FE1CB073
:4050C00010BD00BF48A3FF1FFFF7E2BF07B5684601F09AFA6846FFF7DBFF03B05DF804FBFFF7F4BF144B70B500241C60134B14481C60144B144D1C60144B04701C60144B23
:4051000044601C60134B84601C60134B21461C6018222B680C309847104B21461C60104B08221C600F482B6898472B682146BDE8704008220C4818472CA5FF1F14A5FF1F6E
:405140004CA3FF1F34A5FF1F8081FF1F3CA5FF1F04A5FF1F24A5FF1F30A5FF1F10A5FF1F08A5FF1F48A5FF1F40A5FF1F10B50446FCF720F9836A054A13F4803F2046BDE898
:405180001040034B08BF1346184700BF0560000019880000F0B507460C46164685B002AD002F48D03846FCF70FF9876A0146BB0701903AD526B13246284601F00BFE02E096
:4051C00003C885E8030029462046FCF771FD60B317F0010F019B1CD13EB1B3F90220B6F902309342B8BF134601E0B3F90230B4F902209342B4F9062005DDBDF90A309A4264
:4052000013DB013B03E0BDF90E309A420DDDE3800BE0DF694FB138462A462146FFF7BAFF3846FCF7C7F8076AF4E7019B01A81F6AFCF7D8F8B4E705B0F0BD2DE9FF41064661
:405240000F469046002502AC002E35D03046FCF7BBF8866A0146B207019027D5B8F1000F04D04246204601F0B5FD02E003C884E8030021463846FCF71BFDB8B1F30705D4FF
:40528000BDF80C30012501333B800FE0019BDE6966B1224639463046FFF7CFFF0028304618BF0125FCF786F8066AF1E7019B01A81E6AFCF797F8C7E7284604B0BDE8F08155
:4052C000F0B505460E46174685B002AC7DB32846FCF77AF8856A0146AA07019021D527B13A46204601F076FD02E003C884E8030021463046FCF7DCFC98B1EB0704D4BDF80B
:405300000830013BB3800CE0019BDD694DB1284622463146FFF7D4FF2846FCF74BF8056AF4E7019B01A81D6AFCF75CF8CEE705B0F0BD00002DE9F341214D07462B6802AC86
:40534000986CFCF741F800903846FCF73DF80146019054F8080D0830FCF7AAFC064628B30199009A2B68083201F10800DE6CD3F8508001F02FFD2046FCF734F8019A2B68E6
:40538000B2F90010B2F902200E4CD9641A6501A82760FCF727F83846FFF7E8FE002323602B68DE64C3F85080012605E02046FCF719F801A8FCF716F8304602B0BDE8F0814F
:4053C0003081FF1F04A5FF1F2DE9F7430546FBF7FBFF836A01909B0705D401A8FCF702F803B0BDE8F083C469002CF6D02046FBF7EBFF836A009003F00303032B35D1019991
:405400000831FCF755FC80B3019B01A8B3F90890B3F90A80B3F90C70B3F90E60FBF7E2FF6846FBF7DFFF2046FFF784FF70B12046FBF7C0FF00902046FFF7C6FF2046FBF74A
:40544000B9FF00902846FBF7B5FF01902846FBF7BBFF01902046FBF7B7FF019B0090A3F80890A3F80A809F81DE81009B68461C6AFBF7B8FFB8E7000037B50446FBF7A4FFA1
:4054800040F60103826A01901340012B05D001A8FBF7A8FF2046FFF769FE144B1B6813B32046FFF791FF2046FBF784FF8569046ACDB194B12046FBF77DFF836A03F0030394
:4054C000032B02D12046FFF735FF2046FFF77CFF2046FBF76FFF046AEBE72846FBF76AFF046A8569E4E703B030BD00BF3CA5FF1F2DE9F347184D82462B6802AC986CFBF73C
:4055000063FF2A6844F8040D083200F10803B0F90890B0F90A80B0F90C70B0F90E6092E8030083E803002046FBF75CFFDAF80000FFF7A2FF2B68986CFBF746FF0190A0F846
:405540000890A0F80A808781C6812046FBF74AFF02B0BDE8F08700BF3081FF1F73B506460D462846FBF730FF836A014613F00204019004D101A8FBF735FF204612E030468F
:4055800001F00BFC019B01A89C693CB9FBF72AFF054B1868431B5842584103E0FBF722FF2546DEE702B070BD08A5FF1F2DE9FF4106460C4600294CD0FBF706FF0023846130
:4055C000019003622046FBF7FFFEC76904AC44F8080D2FB9C66101A8FBF704FF204636E0019B38469D6AFBF7EFFE0DF1100805F0080548F8040D75B9836A1A070BD5019BE5
:4056000001A81F62029BDE61FBF7ECFE2046FBF7E9FE40461BE02046FBF7E4FE4046FBF7E1FE3846FBF7C6FE0390039B1C6A0CB91E620BE02046FBF7BDFE002DF4D1836A2A
:405640001B07F1D5039B1E62019B1C6201A8FBF7C9FE04B0BDE8F08170B50446FBF7AAFE05468069A8B1FBF7A5FEC36906469C4205D12046FBF79EFE036AF36170BD43B1B1
:405680001846FBF797FE036A9C42F8D12B6A036270BD70BD03460846B3F90220B3F90010FCF7BBBA114B30B51C6885B0626C0546BAB11068516802AB03C30D4B186800B961
:4056C000A06CFBF781FE04AC02A944F80C0DFFF7E1FF2046FBF786FE02A8294601F05DFB02A803F0EBFD05B030BD00BF3081FF1F04A5FF1F1FB50E4B1B6893F854200AB183
:405700000C4811E0986CFBF75FFE02AC019003C884E8030001A8FBF765FE074B196811B12046FFF71BFF2046FFF7BCFF04B010BD3081FF1F60A3FF1F04A5FF1F064B10B5EA
:405740000446186828B1A04204D0FBF733FE4069F8E710BD012010BD1CA5FF1F13B5044600B3FBF731FE836A01909B0717D5406A40B10D4B1B689C4204D002F095F8019B56
:4057800000225A62204600F053FF04463CB12046FFF7E4FF2046FBF70DFE046AF6E701A8FBF720FE02B010BD38A5FF1FB0F90020B0F904309A4208DCB0F90230B0F906001C
:4057C0008342CCBF0020012070470020704700007FB50D4604461646FBF7ECFD816A01908B0733D52846FFF7E1FF78B340F601030B40012B2AD02046FBF7E6FD02AC024621
:4058000001902946204601F0E5FA2046FFF7CEFFC8B144F22001019B9A6A03F10805114029B1224629462846FCF7CCF90BE0324394E8030085E803009A62054A1388013307
:405840001380FCF717FF01A8FBF7CCFD04B070BD18A5FF1F2022FFF7BBBFF0B50F4685B01546064648B3FBF7AFFD836A04AC9B07024644F80C0D03D42046FBF7B3FD1CE094
:40588000394602A801F0A6FA0028F5D02046FBF7A9FD2A4602A93046FFF79AFF304600F0C7FE04464CB120462A4602A9FFF7D5FF2046FBF77FFD046AF4E705B0F0BD2DE9D1
:4058C000FF41804617461D460C4681B30846FBF77BFD866A0246B307019025D5414602A801F078FA00B340F601033340012B07D101992B460A6A02A88969FFF7E0FF04E05B
:405900002A4602A92046FFF763FF019BDC695CB1BC4209D020462A4602A9FFF79EFF2046FBF748FD046AF2E701A8FBF75BFD04B0BDE8F08170B5054608460C461646FBF7B6
:4059400039FD836A324613F4803F21462846BDE8704014BF4FF480432023FFF7B0BF2023FFF7ADBF13B50446FBF72EFD8169019041B1026AFFF7F3FF2046FFF76DFE019B23
:4059800000229A6101A8FBF72DFD02B010BD08B100F038BD70471FB504AB43F8101D1946019000F02FFD05B05DF804FB00230B8002884B8083889B1A8B804288C3889B1A99
:4059C000CB807047F0B50F4687B00546002833D0FBF7FAFC866A0190B2072AD503C804ACF30384E8030002D52846FFF7B7FE5FB13868796802AB03C302A90198FFF74AFE87
:405A000002A9204601F0C9F929462046FFF7A6FD78B140F601033340012B06D1019B20461A6A9969FFF79BFF03E021462846FFF711FF01A8FBF7D6FC07B0F0BD0021FFF79D
:405A4000C1BF00000B4B70B51A680546966C1C4608B9094B1D689564FEF7D0F92846FBF7A9FC2368B0F90020DA64B0F9022030461A6570BD3081FF1F1CA5FF1F2DE9F74F1B
:405A8000DDF830A098464C4B05460E461746D3F80090BAF1000F24D1484B1B8833B3484B1B685A1C012A21D99A465046FBF78CFCB0F90010B0F9022001900D4416441FB971
:405AC000B0F904305F1A0137B8F1000F05D1B0F90630C2EB030808F1010801A8FBF782FC04E0BAF1FF3FE0D14FF0000A0F982C30FBF768FE0446002859D0304A0D9B0DF1FB
:405B0000080B49EA0309138801331380FBF75CFC0E9B826A03612B4B4BF8080D09EA0303058046803D4446441343013D013E83628580C6805846FBF755FC234B186848B186
:405B4000FBF738FC05462046FBF734FC6B6943616C6100E01C6051462046FFF727FD19F0200F02D02046FFF76DFF19F0010F1FBF164A13680133136019F0400F02D0204699
:405B800000F082FD19F0020F0DD02046FBF71CFC836A009043F0020383625846FBF722FC2046FFF74BFF01212046FFF7F4FE204603B0BDE8F08F00BF24A5FF1F00A5FF1F0B
:405BC00008A5FF1F9F3F3F001CA5FF1F3CA5FF1F1FB5089C0394079C0294069C019400240094FFF74BFF04B010BD000037B50446002864D0FFF7A2FD002860D00B212046D6
:405C0000FFF7C9FE204600F093FF2046FBF7DCFB0190406A08B101F047FE2A4B00229A60294B19688C4208BF1A60284B1A68944204BF00221A60264B00221B682BB15968F4
:405C40008C4208BF5A601B68F8E70721204600F006FE019DE869FFF7C9FFEB69002BF9D12046FFF77FFE1B4B186850B1FBF7A2FB054640698442F8D12046FBF79BFB43698F
:405C80006B61019B01A89A6AD10741BF12490B6803F1FF330B60930641BF104A138803F1FF331380FBF79EFB0D4A20461388013B1380FBF7C3FB0B4B1868FFF7C3FE03B0AF
:405CC00030BD00BF4CA3FF1F14A5FF1F34A5FF1F2CA5FF1F1CA5FF1F3CA5FF1F18A5FF1F00A5FF1F08A5FF1F1B4B73B55A681D46CAB11A4B1C68ACB12046FBF765FB836ACE
:405D0000019013F4004F466907D001A8FBF76AFB2046FFF76BFF3446EDE701A83446FBF761FBE8E76C600E4B1B6803B198470D4B1B6853B90C4B1B6893F8540048B1FCF7DB
:405D400037FC003018BF012003E098470028F1D0012002B070BD00BF4CA3FF1F1CA5FF1F0CA5FF1FF0A4FF1F3081FF1F2DE9FF415D4F3B6893F85400002800F0B1805B4AB0
:405D8000136A1446012B03DD013B13620020A7E0D36902AD013302F1140696E80300D36185E8030023B99389ADF80830D38910E0138BD28A0133ADF80A20B4F910201BB28F
:405DC0009A42ADF8083006DAA389ADF80830638B0133ADF80A30BDF90A20B4F91230DFF80C819A4204DD236A0020013B236277E03B68986CFBF7E8FABDF90820B8F90C3005
:405E000001909A421CD1B8F81230ADF80E30B8F81030ADF80C30344B1B689A6C5AB11046FBF7C8FA804600222946006AFFF7B2F9D8F81820F2E7019B2946D869FFF7AAF91D
:405E4000BDF80830ADF80C303B689A6C6AB11046FBF7B0FA002280462946006AFFF7EDF90028EDD1D8F81820F0E7019B2946D869FFF7E3F90028E3D1B4F91030BDF9082077
:405E8000ADF80C309A4207DD95E8030086E8030001A8FBF7A7FA97E73B689A6C52B11046FBF788FA074600222946006AFFF708FABA69F3E704AF57F80C3D2946D869FFF7F2
:405EC000FFF93846FBF78EFA44F62063E2699A4289DC95E8030086E80300FFF70BFC012004B0BDE8F08100BF3081FF1F4CA3FF1F2DE9F041394E86B03268804692F8543083
:405F000013B9FFF7F7FB64E0354F3B6A3D460133012B3B625DDC906CFBF756FA4FF0FF33FB61304B00901B7813B102AB083004E0836A13F002040CD002AB03C802AC83E8EE
:405F40000300B8F1000F0CD04146204600F025FF07E03B6A6846013B3B62FBF743FA204638E03368204F5A6CC2B1009B10685168019304AB03C33B6833B101A8FBF732FA63
:405F80003868FBF721FA019004A90198FFF782FB204604A900F001FF01A800E06846FBF721FA396819B12046FFF7D8FA28B133682046996CFFF7D2FA18B92B6A013B2B623A
:405FC00008E00A4B94E8030083E80300FFF7CEFE00E0012006B0BDE8F08100BF3081FF1F4CA3FF1F21A5FF1F04A5FF1F58A3FF1F08B5FBF7EDFE024B00221B685A6408BD7A
:406000003081FF1FF0B589B00446FBF7DDF902AE0769856A0190083003C886E8030001A8FBF7E0F9002F32D0AB0730D52E21204600F005FC174B15F4805F1A781D4602F159
:4060400001021A700AD00F23059404930796FFF7CFFF04A9204600F0D5F911E03046FFF747FF68B10F27059404970796FFF7C0FF04A9204600F0C6F9FFF778FE0028F2D194
:406080002B782F21013B20462B7000F0D8FB09B0F0BD00BF21A5FF1F2DE9F04188B00390FBF792F9034644F220049D6A00F1080206AE05902C4092E8030086E8030005A860
:4060C0009F69D3F81080FBF78DF9002C35D0B8F1000F17D003993046FFF740FA90B10398FFF7B0FC69070FD527B105F0010585F0010500E001250095002303AA1149304658
:4061000002F0B0F9002403E00398FFF7B5F901240398FBF759F9826A059022F4804323F02003920448BF43F00403836205A8FBF759F9054A1388013B1380204608B0BDE8C1
:40614000F08100BFF154000018A5FF1F2DE9F0431C4B9DB01A681D4692F8540078B31A4B18881F4658B3194B9C681E460CB9184B1C686846FBF7BAFD2B68D3F830805D6BCA
:4061800024B900240DE0B9F1000F0AD12046FFF783FF81462046FBF70DF94469002CF2D1EFE74046B460FBF7CCFD2846FBF7C7FD6846FBF7A5FD3888003018BF01201DB078
:4061C000BDE8F0833081FF1F18A5FF1F4CA3FF1F1CA5FF1F38B5164B1B6803B198470025FFF782FD08B10125FAE7124B1B6893F8544044B1104B1C882CB1104B1B688BB149
:406200001B6898470124FFF7A1FF08B10125FAE764B10A4B1B6813B15B68984706E000F0A1FD03E0012000F09DFDEBE7284638BD10A5FF1F3081FF1F18A5FF1F30A5FF1F87
:40624000024B01221B6883F8542070473081FF1F034B00221B6883F85420FDF7CFBD00BF3081FF1F10B5044623684068172B10D007DC0E2B0FD0142B14D1E16800F072F99F
:4062800010E0222B0CD0282B0CD1BDE81040FFF7D5BBE06010BD2146BDE8104000F0D1BA024B00E00023E36010BD00BF785634FF036810B50E2B044602D00F2B09D011E08D
:4062C000C3685A68012A12D1BDE810401868FCF767B9074B1868074B984203D0FBF72FFDFBF7FEFD2046BDE81040FFF7BBBF10BD28A5FF1F785634FF30B51D4C85B021789F
:40630000002932D11B4B084619601B4BA1601B681A4D59641A4B19801A4B198004230293194B01930223009343F6FF731A46FFF74FFC164A164B28601A60FFF77FFB1548B2
:4063400000F008F9144800F005F92868FFF77AFBFFF776FF204601232370104B40F8243F05B0BDE83040FBF7CBBD05B030BD00BF4CA3FF1F1CA5FF1F3081FF1F08A5FF1F3E
:4063800018A5FF1F00A5FF1FB1620000785634FF28A5FF1F48A5FF1F40A5FF1FE550000070B50D461646FBF705F8C46964B120463146A847204632462946FFF7F1FF204693
:4063C000FAF7F8FF046AF1E770BD08B500F054F918B1FAF7EFFFC06908BD08BD38B50546FFF7F3FF044654B1AC4207D02046FAF7E1FF036A9D4202D01C46F4E7002420469D
:4064000038BD000070B50D4C064623680D46132B12DCFAF7CFFF02696E6042B1236828460133236090472368013B236070BD2846BDE87040FFF716BF70BD00BF7CA3FF1FF3
:4064400030B5044685B010220D466846002104F0ABFA2046FAF7AEFF03691BB1019400956846984705B030BD2DE9F04F8BB00393BDF80C3001910493BDF80430D0F81CB079
:406480000593BDF8503002920693BBF1000F5ED05846FAF799FF826A099002F420718029B0F900A0B0F90230B0F90480B0F9069008D0B1F5207F07D101990AEB010636B21A
:4064C000039905E0049900E0059901EB0A0636B202F4A06201EB0805B2F5807F2DB207D0B2F5A06F0AD1029A9F183FB2149A02E0069AD7183FB209EB020405E0BDF808103E
:40650000CF183FB201EB0904B6EB0A0124B2A7EB030200D122B15846079300F0B0FA079BAD1BCAEB0808E41BC3EB0909B5EB0801C9EB040200D112B1584600F005F90AA8D8
:4065400050F8043DD3F820B0FAF74CFF9DE70BB0BDE8F08F024B1A6802601860704700BF2CA5FF1F37B50D4658B151B1FAF72CFF02AC44F8040D2946FFF718FA2046FAF71B
:4065800031FF03B030BDFFF759BA000073B5054690B3FAF719FF02AC034644F8080D006A08B920460EE09B6A1A0711D4FAF70CFF836A02AE1B0746F8040D06D52046FAF735
:4065C00011FF3046FAF70EFF16E03046FAF70AFF009B20469E69FAF705FF2846FFF73CF831462846FEF7E2FF2846FFF727FA00220249284600F004F802B070BD876500004A
:40660000FFF7CEBEFFF7AEBF044B0146186810B9034B1B68986CFFF7A5BF00BF04A5FF1F3081FF1F014B1868704700BF08A5FF1F08B5034610B1FAF7BDFEC369184608BD43
:406640001FB51423039104A941F8103DFFF79FF905B05DF804FB0000024B01461B68986CFFF7EEBF3081FF1F08B520B1FAF7A2FEB0F9000008BD08BD08B5034610B1FAF71A
:4066800099FE8369184608BD2DE9F043044687B0002839D0FAF798FE034604AD019003C885E8030001A81E6AD3F82890FAF79AFE2046FFF793FE074630B32046FFF7DCFF5B
:4066C00019F0020F804604D0014632462846FFF746F92046FAF778FE01904046FAF774FE03903846FAF770FE039B019AD96906620290116201A8DC61FAF774FE03A8FAF700
:4067000071FE02A8FAF76EFE07B0BDE8F0830000024B1B681B1A58425841704734A5FF1F7FB5084A0346106848B1009301910E2302A90293CDF814D0FFF764FE012007B07F
:406740005DF804FB14A5FF1F2DE9F04151EA02038AB080460F4616466ED000286CD0FAF733FE04AC06AD0346039003C884E8030085E803007FB19A6A02F42072802A0BBFD9
:40678000BDF81820BDF81C20D71BBF180CBFADF81870ADF81C7086B19A6A02F4A062B2F5807F0BBFBDF81A20BDF81E20961BB6180CBFADF81A60ADF81E609B6ADA0302D53F
:4067C0004046FEF7CBFF95E80300039B83E803009B6A9B070AD52A46214608A8FBF7F2F9039B08A81A6A9969FFF7B9F8BDF91E00BDF91670BDF91840BDF91C60BDF9143019
:40680000BDF91A50BDF91220BDF91010C01BF31AAA1A611A00900AAC0398FFF725FE54F81C1D01F1080000F0B8FA40460521FFF7B2F82046FAF7D6FD0AB0BDE8F081FFF7FC
:40684000FFBD38B505460C4641B1FFF715FF28B1A5602146BDE83840FFF7D4BD38BD1FB52623039169460093FFF7EBFF05B05DF804FB000070B5044686B01022002102A87A
:4068800004F092F8002C34D01C4B18681E4684422FD01E238DE81100029310B102A9FFF7B1FD012302A920460593FFF7ABFD059D05BB346020262046FFF7DEFE044630B1A4
:4068C00002A90296CDF814D0FFF79CFDF3E7009C2046FEF733FF68B120262046FFF7CCFE044638B102A90296CDF814D0FFF78AFDF3E70125284606B070BD00BF14A5FF1F12
:406900002DE9F3410F4690460646E0B1FAF75CFDB0F90450B0F90040B0F902302C1B01343D1BB0F906400DF1080EE31A4EF8040D0133C3EB08047046FAF754FD2246294612
:406940003046FFF701FF02B0BDE8F081044B10B51B685C6C5864FEF7CDFE204610BD00BF3081FF1F2DE9F047164688B0102204460D460DEB0200002104F016F803270DF152
:4069800008082CB32046FAF71FFD324629460190FBF743F90198324629460830FBF73DF9019B01A8D3F81CA0D3F82090FAF71AFD324629465046FFF7D5FF204604A90497AB
:4069C000CDF81C80029503964C46FFF71BFDD8E708B0BDE8F0872DE9F04306468BB00D4614460021102206A803F0DEFF002E43D00DB9002C40D03046FAF7E6FC03460DF1B2
:406A000008080190224603C888E8030018462946FBF703F901982246294608300AAFFBF7FCF857F8243DD3F81C903846FAF7DAFC224629464846FFF795FF3046FAF7C4FC8B
:406A4000826A019092070AD5816941B1026AFEF771FF019B40461A6A9969FEF76BFF3846FAF7C0FC0323069306A904AB3046099304950594FFF7C6FC0BB0BDE8F083FFF760
:406A8000AABF00001FB5064C206838B1182304A941F8103DFFF7B6FC0023236004B010BD34A5FF1F064B70B51A68054682420E461C4601D0FFF7E6FF024B25601E7070BDAC
:406AC00034A5FF1F20A5FF1FFFF7DCBF08B528B1FAF770FC806A00F0010008BD08BD1FB5044610220021684603F05EFF606850B1FAF760FC40F21313009363684068694641
:406B00000393FEF744FF04B010BD37B5054668B1FAF75AFC02AC44F8040D006800F030FD2046FAF75FFC2846FAF788FC03B030BD73B5054601A800F0A5FC0446DCB1012114
:406B4000204600F076FD019B83B178B11846FAF731FC4368AB4209D101A92046019E00F0A9FC04463046FFF7D0FFE7E701A9204600F0A0FCE1E702B070BD00002DE9F34141
:406B800080460C200F461646FAF71CFE0446F0B1FBF726FD0123811922460F4800F0A6FC0546204685B1FAF70FFC034602A840F8043DC3F804809F601D60FAF713FC314697
:406BC000284600F00FFD02E0FAF738FC2C46204602B0BDE8F08100BFDF6A000013B50C4680B1FAF7F1FB01901CB12146006800F0F9FC02AC54F8043D186800F001FD204633
:406C0000FAF7F0FB02B010BD2DE9F7431E4CD4F800E0DEF85050DEF84C406F181D449EF818302618013B9BB21444F21AADF800201A19ADF804206846FA1A2B44ADF8022011
:406C4000ADF80630FFF754F9D8B107F1010805F1FF39224639463046FCF754FE224629463046FCF74FFE4A4641463046FCF772FE4A4641462046FCF76DFEFFF777F80028B7
:406C8000E7D103B0BDE8F0833081FF1FF7B5061E0C4662DC324D6B6803B19847012C04D0022C20D0002C58D133E005EB8605AF68AFB93046FBF7BAF9019000284DD0C368A0
:406CC0000D215B6A01A898470346002845D0214601989847AB6838460133AB603EE0781CA86020463AE03046FBF7A0F90190002833D0C3680D215B6A01A8984704460028D5
:406D00002BD02B6803B1984702210198A047002024E0B4002B199B68012B01D0012015E03046FBF783F901900028F7D0C3680D215B6A01A8984706460028EFD0084B1B684A
:406D400003B1984700210198B04700202544AB68002B18BF013BAB6000E0012003B0F0BD80A3FF1F024B01461B68587CFFF78EBF3081FF1F13B50368044602A840F8043DAB
:406D8000FBF748FC20B10A2804D1019B236001E0012000E0002002B010BDB1F90030B0F900209A42B8BF0380B0F90220B1F902309A42B8BF4380B0F90420B1F904309A4268
:406DC000C8BF8380B0F90620B1F906309A42C8BFC380704770B5B1F90030B2F9005006469D42B8BF1D46B1F902300580B2F90200B1F904408342B8BF0346B2F904007380DB
:406E00008442A8BF0446B2F90600B1F90620B4808242A8BF0246A542F28004DC9342CCBF0020012070BD002070BD70B5840742BF02F1FF3201800230540824D0032C2346EF
:406E400001EB014502D800EB830317E0264600F11003043E032E43F8105C43F80C5C43F8085C43F8045C03F11003F2DC043CA3085E1C00EB0610A4EB8303E4E7984202D070
:406E800040F8045BFAE7D30748BF018070BD0B8892B2134403808B889B1A83804B8813444380CB889A1AC2807047024630B10346981A13F8011B0029FAD170474FF0FF30FE
:406EC0007047038813B58B420C460ED9406850B1FAF77AFA02AB43F8040D50F824401846FAF780FA02E0044600E00024204602B010BD08B5FFF7E5FF18B1BDE80840FAF7B3
:406F000063BA08BD13B5044640B1FAF75DFA02AB43F8040D04881846FAF764FA204602B010BD2DE9F7430B46074600283CD042B111461846FAF724FCB0FA80F4054664095C
:406F400001E0144615463846FAF73EFA02AE46F8080DB0F80080D0F804903046FAF742FA24BB08F1010148468900FAF743FC814618B92846FAF762FA18E0FAF725FA02AB81
:406F800043F8040D40F828501846FAF72BFA3846FAF71AFA038800900133C0F8049003803046FAF71FFA02E0044600E00124204603B0BDE8F08337B5054618B3FAF704FAED
:406FC00000904068C0B1FAF7FFF900240190009B1B889C4206DA019800EB8400FAF7C8FB0134F4E701A8FAF7FDF900980430FAF7BFFB009B00221A806846FAF7F3F928462B
:40700000FAF71CFA03B030BD73B50E46044658B1FAF7DAF902AD314645F8040DFFF751FF04462846FAF7DEF9204602B070BD73B50E46044658B1FAF7C7F902AD314645F8B4
:40704000040DFFF756FF04462846FAF7CBF9204602B070BD0820FAF7B5BB37B50C46FAF7B3F903880090A3421AD94068C0B1FAF7ABF9A50001902844FAF77AFB009A1388C0
:40708000013B9BB21380019A2A449C4205DA52F8041F013442F8041CF7E701A8FAF7A2F96846FAF79FF903B030BD00000A4B1A68938D03F00C03082B07D00C2B05D0042BCA
:4070C00007D1D369187E01387047D369187E400870470020704700BF3081FF1F024B1B68DB69587E704700BF3081FF1F024B00211B68DB695B6818473081FF1F024B1B689B
:40710000DB695B68184700BF3081FF1F7047000073B5154602AB214A43F8081D19460190126890471E4C01902368586940B90120FFF718FE2268D3695B693BB9194D22E015
:407140002946FAF7B5FD0028F1D124E0164C9B68216841B1B2F9225001980099984723682846984714E000990198984710E001A8FBF750FA23680646DB691B6898472B683F
:407180000BB130469847009B013B002B0093EEDA0020FFF7E7FD02B070BD00BF8481FF1F3081FF1FC4A4FF1FB8A4FF1F37B50D460190044688B10A4B1B68DB695C6954B19E
:4071C000646844B1A04709E001A8FBF723FA20B10A2802D00134AC42F6DB204603B030BD3081FF1F13B5002402A941F8044DFFF785FF019B9842ACBF2046181A02B010BD15
:4072000037B5154A02AB43F8081D01901268194690470190E8B1114B1B68DB695C690CB124680CB9254602E00099A04711E0009B013B002B009307DB01A8FBF7EBF9044697
