:400000000080002011000000D1010000D101000008B5044B1A6803F53F5302331A6000F0F1F800BFFA46004010B5054C237833B9044B13B10448AFF300800123237010BDEA
:400040008881FF1F0000000070180000084B10B51BB108480849AFF300800848036803B910BD074B002BFBD0BDE81040184700BF00000000701800008C81FF1F0881FF1F31
:400080000000000010B58CB000F0A2FFC043C0B200F092FF0120002100F0B6FE0AA800F04BF89DF829209DF82A309DF82B409DF82C009DF82D1000940190029104A80A49D6
:4000C00000F0E8FF0120002100F09EFE074800F02FFE0120002100F097FE04A800F028FE00F016FF0CB010BD741800009018000008B562B600F0EAFE00F050FF084800F078
:40010000D7FE00F0CDFA00F071FE012000F01EFE012000F01BFE034800F00AFEFEE700BF85000000A81800000309A3EB83035A001044C0B2704700BF2DE9F04782B00446D2
:40014000002302A901F8043D6820012200F022FC00F0EEFC10F0020FFAD000F005FD68201A490722002300F07BFC00F0E1FC10F0010FFAD000F0F8FC144D287800F07F007E
:40018000FFF7D2FF06466878FFF7CEFF0746A878FFF7CAFF80462879FFF7C6FF81466879FFF7C2FF8246A879FFF7BEFF054600F0EDFC257084F801A084F8029084F803805D
:4001C00027716671204602B0BDE8F087B081FF1FFEE700BF08B5094B1A681044084BC31A802B02DC054B186005E000F0F9FE0C2303604FF0FF32104608BD00BF0C81FF1FAE
:40020000D881FF1F08B5104E104D16E029686B68AC68002204E051F8040B43F8040B0432A242F8D1E868002203E0002143F8041B04328242F9D11035013E002EE6D100F0E9
:40024000D5FEFFF755FFFEE701000000B019000008B5124A124B1A60124A136843F40073136000230AE0032B03D80F4A52F8231000E00E490E4A42F8231001332F2BF2D98D
:400280000C4B1A780C4B1A70094A0C4B1A6000F0BDF800220A4B1A6008BD00BF0004FA050CED00E014ED00E000000000D10100000080FF1FBC7600400481FF1F08ED00E01F
:4002C0000081FF1FFEE700BFF0B40022174611E050F82760F3B226F0FF0608E001EB420511F812406D78A5550132013BDBB2002BF4D10137182FEBD9F0BC70470A4B1B7849
:40030000DBB203F00701094A11701B09013213701023A2F26272137002F6831213704422034B1A70704700BFCF0100496E5800407658004008B50A46002100F0A3FE08BDF4
:4003400038B50323264A1380182226490A7040F65F100231088002310A700221224A117008224FF040210A7001F500710B701F4B1B78DBB201F2A1410B701D4B1A8041F2F2
:400380005122023B1A80002419250CE0194B1B7803F0010343EA440404F003044FF4F07000F0DAF8013D0DB1032CEFD115B90320FFF788FF104B4FF480721A8007221A70AC
:4003C00000220E490A704820023108701A700222033B1A700A4A137843F00303137038BD8040004082400040004300400801004922420040254200400440004006400040C5
:40040000A243004008B500F017FE08BD70B572B63C4A137843F00403137000240CE03A4963001A1952000A4423445B00C8589188FFF780FF0134E4B20A2CF0D9002410E0DE
:400440003149A3001A1952000A4452F8440F23445B000B445168B3F84C20FFF7D3FF0134E4B2012CECD94FF090402849FFF72CFF274A137843F0020313701032137843F031
:4004800002031370234C237843F040032370A2F58632513A137843F0100313701E481F490822FFF7AFFF1E481E490A22FFF7AAFF1D481E490A22FFF7A5FF1D481D490822B8
:4004C000FFF7A0FF1C481D490822FFF79BFF1C481C490A22FFF796FF1B4A137843F0080313701A4E01253570FFF72AFF81233370174B1D70FFF702FF164821460E22FFF748
:4005000081FF70BDE8460040BC1800006400004803500140A043004002510040F8020048C051004000030048F05100400C03004822510040180300484251004020030048CC
:400540006051004028030048224300400048004004000840B04300400230800803D000BF01380046FCD17047EFF3108072B6704780F31088704700BF01BE704710B50446C5
:4005800005E0084B1868FFF7E7FFA4F50044B4F5004FF6D8034B586800FB04F0FFF7DCFF10BD00BF1081FF1F08B5034B1B7A03FB00F0FFF7D1FF08BD1081FF1F70B50446C4
:4005C0000E46074B1D681F2802D90020FFF7D4FF04F01F04103455F8240045F8246070BD08ED00E038B504460D46072902D90020FFF7C2FF1F2C02D90020FFF7BDFF04F0DE
:400600001F0000F1604000F564406D01EDB2057038BD00BF38B50222114B1A7081220E3B1A70082202331A700F2511331D70002401331C704FF400420A4B1A602846052114
:40064000FFF7D0FF28460849FFF7B8FF1022074B1A70074B1C70074B1C70074B1C7038BDD649004080E100E0C9060000BA81FF1FCC81FF1FCA81FF1FC081FF1F08B5FFF7FE
:4006800073FF064A137843F0040313701032137843F004031370FFF76BFF08BDA543004008B5074B1B7823B9FFF7B4FF0122044B1A70FFF7E3FF4FF40042024B1A6008BD4D
:4006C000A481FF1F00E100E038B5A44B1C78E4B2A34B1B7813F0400F00F0378114F0010F00F01B819E4B1B78453B052B00F21281DFE813F006008200100110010600DE00CC
:4007000004F0DF0504F00A04082C42D1944B1B78DBB2452B35D1934B1B7813F0FF0F10D0914B1B681B78DBB2904A137004228B4B1A7001228E4B1A704622894B1A702C46A1
:40074000EBE08C4B1B7813F0020F0DD08A4A137843F00A0313706022814B1A704FF40042864B1A602C46D8E0854A137843F0100313701022834B1A700422023B1A702C4653
:40078000CBE00022754B1A704A22754B1A702C46C3E00A2C2BD1784A137843F0A0031370744B1B7813F0020F14D06D4B1B7813F0080F01D0092300E00A236F4A11780B4336
:4007C00013706022664B1A704FF400426B4B1A602C46A2E06A4A137843F0100313701022684B1A700422023B1A702C4695E00020FFF7C2FE2C4690E014F0020F35D15C4B4B
:400800001B78584A1278DBB2934210D2584A1378DBB255490968CB5CDBB254490B7004214E4B197013780133DBB2137075E0514B1B7813F0020F0CD04F4A137843F00A0332
:4008400013706022464B1A704FF400424B4B1A6063E04B4A137843F0100313701022494B1A700422023B1A7057E0424B1B7813F0020F0CD0404A137843F09A031370602229
:40088000374B1A704FF400423C4B1A6045E03C4A137843F01003137010223A4B1A700422023B1A70344A137843F09003137034E0354A1378DBB2354908682C490978C9B21D
:4008C000C15413780133DBB213701378304A1278DBB2934203D21022204B1A701DE0254B1B7813F0020F0CD0234A137843F00903137060221A4B1A704FF400421F4B1A60A3
:400900000BE01F4A137843F0100313700022134B1A7002E00020FFF72FFE14F0200F1CD00F4B1B7813F0080F01D0012300E00223114A11780B431370114A137803F0EF0340
:4009400013701022064B1A7038BD054B1B7813F0100F02D11022024B1A7038BDD7490040BA81FF1FC881FF1FBC81FF1FD8490040C081FF1FCB81FF1FCC81FF1F80E100E0CB
:40098000D6490040D9490040CA81FF1FC481FF1FC981FF1F002948D070B40C4626490978C9B2102906D12549097811F0080F11D1002112E020490978C9B260290CD14FF406
:4009C00000451F490D601F4D297801F0F7012970002102E0012100E0022149BB4526164D2E700026184D2E70184D2A70184A1460184A1370134C227802F0FD022270420015
:400A0000D2B21548027013F0010F06D012220B4B1A700422023B1A7002E00122074B1A704FF400420D4B1A6002E0022108467047084670BC704700BFBA81FF1FD94900408C
:400A400080E200E0CC81FF1FC081FF1FC881FF1FBC81FF1FCB81FF1FD849004000E100E000294AD070B40C4627490978C9B2102906D12649097811F0080F11D1002112E0EA
:400A800021490978C9B260290CD14FF4004520490D60204D297801F0F7012970002102E0012100E0022159BB4926174D2E700026194D2E70194D2A70194A1460194A1370E8
:400AC000144C227802F0FE0222704200D2B242F001021548027013F0010F06D012220B4B1A700422023B1A7002E00122074B1A704FF400420D4B1A6002E002210846704782
:400B0000084670BC704700BFBA81FF1FD949004080E200E0CC81FF1FCA81FF1FC981FF1FC481FF1FCB81FF1FD849004000E100E04FF40042084B1A60084B1878C0B2084BA3
:400B40001B7813F0400F01D040F004004FF40042044B1A60704700BF80E100E0CC81FF1FBA81FF1F00E100E04FF40043044A1360044A107800211170034A1360704700BF0C
:400B800080E100E0CC81FF1F00E100E04FF40042064B1A600021064B197006490B7803F0FE030B70044B1A60704700BF80E100E0CA81FF1FCC81FF1F00E100E010B50B4C0B
:400BC000237803F09F032370237803F0F00323702378184340F0100020700120FFF7E4FC237803F0EF03237010BD00BF2051004038B505460E4C237843F020032370237860
:400C000003F0BF0323700020FFF7CEFC237803F0F003237023781D4345F0100525700120FFF7C2FC237803F0EF03237038BD00BF2051004070B5354B1A7802F08002D2B222
:400C40001A7033490A7802F0F00242F00F020A7001310A7802F0F0020A7001310A7802F0F0020A701A7802F0DF021A701A7842F040021A704FF4CA760020FFF795FC234D0E
:400C80002B7843F010032B700120FFF78DFC214B1C78E4B22B7803F0EF032B700020FFF783FC04F00804E4B22B7843F010032B700120FFF779FC2B7803F0EF032B7014B92C
:400CC0000A20FFF771FC013E0CB1002ED4D10F4A137803F0BF031370137803F08003DBB213700232137803F0F00313700132137803F0F00343F00F0313700132137803F026
:400D0000F00343F00F03137070BD00BF20510040225100402151004010B50446FFF78AFF2009FFF765FF04F00F00FFF761FF10BD38B505460078012404E0FFF7EDFF285D9F
:400D40000134E4B20028F8D138BD00BF10B50446FFF770FF2009FFF731FF04F00F00FFF72DFF10BD08B52820FFF708FC0320FFF725FF0520FFF702FC0320FFF71FFF0F2093
:400D8000FFF7FCFB0320FFF719FF0120FFF7F6FB0220FFF713FF0520FFF7F0FB0620FFF7D5FF0E20FFF7D2FF2C20FFF7CFFF0820FFF7CCFF0120FFF7C9FF0C20FFF7C6FF39
:400DC0000320FFF7C3FF0520FFF7D8FB014800F039F808BD1419000008B50C20FFF7B6FF0122014B1A7008BDA581FF1F08B5054B5B7823B9FFF7B6FF0122024B5A70FFF7A1
:400E0000EBFF08BDA581FF1F08B5032819D8DFE800F002070D1381F08000FFF797FF08BDA1F14000C0B2FFF791FF08BDA1F16C00C0B2FFF78BFF08BDA1F12C00C0B2FFF75A
:400E400085FF08BD38B50546FFF7F4FE4020FFF77DFF002404E0285DFFF75EFF0134E4B23F2CF8D9FFF7E6FE8020FFF76FFF38BD024B1B68C3F88400704700BF08ED00E023
:400E80004001C0B2014B1870704700BF11E400E04FF40032014B1A60704700BF00E100E04FF40032014B1A60704700BF80E100E010B50446FFF7F4FF2046FFF7D9FF0720A9
:400EC000FFF7DEFFFFF7E4FF10BD00BF4FF40032014B1A60704700BF80E200E0084A137843F0010313701032137843F00103137002F64D32137843F001031370704700BF77
:400F0000A3430040014B1870704700BF034F0040014B1878704700BF034F0040014B1880704700BF044F0040014B1880704700BF064F004008B5164A137803F001031370CD
:400F40000232137803F0FC031370124B1A7802F0CF021A701A7842F030021A701A7802F0F0021A701A7842F00F021A700A4A137843F00103137041F28730FFF7CFFF41F2A8
:400F80008730FFF7D1FF0820FFF7BCFF08BD00BF004F00400B4F0040014F004008B5054B1B7823B9FFF7C6FF0122024B1A70FFF795FF08BDA781FF1F044A137803F0FB030E
:400FC000800000F0040018431070704760510040024B1878C0F38000704700BF61510040014B1868704700BF8081FF1F0E4B70B51E460E4C0025E41AA410A54204D056F805
:40100000253098470135F8E700F0C0FC084B094C1E46E41AA4100025A54204D056F8253098470135F8E770BD981900009819000098190000A019000010B5431E0A44914246
:4010400004D011F8014B03F8014FF8E710BD814210B501EB020301D3421E0BE09842FBD28118D21AD34204D013F8014D01F8014DF8E710BD994204D011F8014B02F8014F09
:40108000F8E710BD03460244934202D003F8011BFAE770470EB400B54FF402719CB0ADF814106FF00041049107914FF6FF711DABADF81610084953F8042B029006900868E5
:4010C00002A9019300F064F8029B00221A701CB05DF804EB03B070478081FF1F2DE9F0478E688246B3420C469046994640D38A8912F4906F3AD02568096902236F1A6569CC
:4011000005EB450595FBF3F57B1C4B449D4238BF1D4653050FD5294600F014FB064698B121693A46FFF788FFA38923F4906343F08003A38113E02A4600F05AFB064670B9AB
:401140005046216900F0BAFA0C23CAF80030A3894FF0FF3043F04003A381BDE8F08726613E4426604E466561ED1BA560B14500D24E46324620684146FFF769FFA3680020D8
:401180009B1BA36023681E442660BDE8F08700002DE9F0439DB003938B8906461C060D4690460CD50B6953B9402100F0CBFA2860286110B90C233360CCE040236B610023FF
:4011C000099320238DF8293030238DF82A3043461C4613F8012B1AB9B4EB08090FD002E0252AF5D1F8E73046294642464B46FFF775FF013000F0A980099B4B44099323788A
:40120000002B00F0A28000234FF0FF3204930793059206938DF853301A9304F101084446DFF8489121784846052200F039FA08F10108049B30B1C9EB0000012282401343AE
:401240000493ECE7D80644BF20228DF85320190744BF2B228DF8532022782A2A02D0079923460EE0039A0134111D12680391002ABBBF524243F0020307920792B8BF04930C
:401280000AE01C4622780133303A092A03D80A2000FB0121F5E7079123782E2B1AD163782A2B0AD1039B02341A1D1B680392002BB8BF4FF0FF3305930CE0611C00220C464C
:4012C00023780131303B092B03D80A2000FB0232F5E70592DFF8988021784046032200F0DFF938B1049AC8EB00004023834013430493013421781A48062204F101088DF8B8
:40130000281000F0CDF988B1164B33B9039B073323F007030833039313E003AB0093304604A92A46104BAFF3008007E003AB0093304604A92A460C4B00F092F8421C0746F8
:4013400003D0099B3B44099341E7AB895B0601D4099801E04FF0FF301DB0BDE8F08300BF6019000000000000DD100000561900005C1900002DE9F84391461F468A680B6978
:4013800006469342B8BF1346C9F8003091F843200C46DDF8208012B10133C9F800302368990642BFD9F800300233C9F80030256815F006051CD094F843302268003318BF42
:4013C000012392061FD5E118302081F843005A1C94F845102244023382F8431013E03046394604F119020123C047013007D00135E368D9F800209B1A9D42F0DBDBE74FF07C
:40140000FF30BDE8F8833046394604F14302C0470130F4D02268D9F80050E36802F00602042A08BF5D1B2269A3680CBF25EAE57500259342C4BF9B1AED184FF00009A9459E
:401440000ADA3046394604F11A020123C0470130D5D009F10109F2E70020BDE8F88300002DE9FF410C461746227E98466E2A06460A9B01F1430100F0B08012D8632A23D098
:401480000AD8002A00F0BD80582A40F0CC8084F84520DFF804E257E0642A1ED0692A1CD0C1E0732A00F0B18009D86F2A2ED0702A40F0B980226842F0200222603FE0752A2D
:4014C00024D0782A3BD0AEE01A6804F14205111D1960136884F84230A9E020681A6810F0800F02D0101D186008E010F0400F02F10400186002D0B2F9003000E01368002B7D
:401500003EDA2D225B4284F8432039E020681A6810F0800F02D0101D186007E010F0400F02F10400186001D0138800E01368227EDFF864E16F2A0CBF08220A221CE0782227
:40154000DFF858E184F845202268186812F0800F00F104051D6003D1550601D5038800E00368D00744BF42F0200222601BB9226822F0200222601022002084F8430002E0D6
:40158000DFF814E10A226568002DA8BF2068A560A4BF20F00400206003B965B10D46B3FBF2F002FB10331EF8033005F8013D03460028F4D100E00D46082A0BD12368DA07F2
:4015C00008D5236962689A42DEBF302305F8013C05F1FF35491B21612EE025681A6815F0800F606903D0151D1D60136808E015F0400F02F104051D60136801D0188000E0B2
:401600001860002323610D4616E01A68111D1960156800212846626800F042F808B1401B6060636804E004F1420584F8422001232361002384F84330CDF8008030462146A0
:4016400003AA3B46FFF796FE013002D14FF0FF301FE0304639462A462369C0470130F5D023689B0705D4E068039B9842B8BF18460FE00025E368039A9B1A9D42F3DA3046E5
:40168000394604F119020123C0470130DED00135F0E704B0BDE8F081671900007819000010B5C9B202449042034605D01C7801308C42F8D1184610BD002010BD30B50029B1
:4016C0003CD051F8042C0B1F1D49002AB8BF9B180A680C4612B95A600B6030BD93420DD219685818904201BF5A5852181A60426823605A6030BD994203D80A465168002957
:40170000F9D1146815199D420AD11B682344D0188842136012D10868034413604B680CE002D90C23036030BD1C681819884201BF08684968001918605960536030BD00BF5D
:40174000AC81FF1F70B5CC1C24F0030408340C2C38BF0C24002C064603DA0C233360002070BD8C42F9D3204A136810461946A1B10A68121B0ED40B2A03D90A608B188C50F6
:401780001FE08B420BBF5A684A6802605A6018BF0B4616E00B464968E9E7144D2B681BB9304600F04BF828603046214600F046F8421C0346D1D0C51C25F0030585420AD127
:4017C0001C6003F10B001A1D20F00700821A0AD05142995070BD3046E91A00F02FF80130BBD02B46ECE770BDAC81FF1FA881FF1FF8B5074615460E4621B91146BDE8F840FB
:40180000FFF7A0BF1AB9FFF759FF2846F8BD00F025F8A8420ED238462946FFF793FF044650B131462A46FFF707FC38463146FFF745FF01E03046F8BD2046F8BD38B5064C03
:401840000023054608462360FEF7C4FC431C02D1236803B12B6038BDD081FF1F51F8040C0028BEBF091851F8043CC0180438704700000000253032752D2530327520253007
:4018800032753A253032753A253032750000000020202020202020202020202020202020202020200000000054696D653A2000006C696E656565656500000000C84900401F
:4018C0001900004F00400C0010510040100030510040100050510040100000000140800000010140000F00140140000800400140000A004C01400002005001402000000087
:401900006052004070020048060080000140780200488000000E0808080E0000000E0A0A0A0E0000000A0A0A0A0E0000000E0A0C0A0A0000000E080C080E0000000E080EBA
:40194000020E0000000E080E0A0E000000040C04040E00004300232D302B2000686C4C00656667454647003031323334353637383941424344454600303132333435363785
:40198000383961626364656600000000F8B500BFF8BC08BC9E4670474D00000051020000F8B500BFF8BC08BC9E46704729000000C01900000881FF1F80000000500000004A
:4019C00000000000D881FF1F0000E02EC05D00001800000000366E01000000000000000000000000000000000000000000000000000000000000000054190000000000001B
:401A000000000000000000000000000000000000000000000000000000000000000000000000000000000000000000000000000000000000000000002081FF1F00000000E7
:401A40000000000000000000000000000000000000000000000000000000000000000000000000000000000000000000000000000000000000000000000000000000000066
:401A80000000000000000000000000000000000000000000000000000000000000000000000000000000000000000000000000000000000000000000000000000000000026
:401AC00000000000000000000000000000000000000000000000000000000000000000000000000000000000000000000000000000000000000000000000000000000000E6
:401B000000000000000000000000000000000000000000000000000000000000000000000000000000000000000000000000000000000000000000000000000000000000A5
:020000040003F7
:0200000480007A
:4000000001450040024F004003520040016400400F000140340101404A020140390301400205014001150140011B01400E40014005410140074201400143014003440140F6
:400040000145014001460140014701400148014002490140084C0140064D01400250014001510140300201100A4B208821102402800F140316041C0E28042A092C052E0A3A
:40008000360F38A03E105602572458045B045F0105200620074009080A020C010D020E21118012081580171A18081A021C101E201F1026802E643690370A3D803E093F1015
:4000C0004588462047604D2A4E0A4F1055025618600464016610672069806A556B18730286808C04C070C2B5C4F3CA70CCF0CEF0D070D230D874E21000040120041A05203D
:400100000625081209200C160D060F191120140715041628171818121A041C211E121F10201621042404261229092B022C122E042F203020312032073307361D37183A80F5
:400140003B083E013F015409580459045B045F01810D8402860D890D8D0D94139501960C9702990D9C159D029E0A9F0DA10DA502A708A819AA06AD02AF04B40FB610B70F29
:40018000BA20BB80BE40D804D904DF01000404100506071209C80C100D880E04120815811708180419801C401DC81F082240268B271029452D022E402F0830103108324060
:4001C00035013688370239813B103D813E153F105C405D185E0265809010918092559404990A9B0AA5C8A60AAF20B201C0F4C2E5C4B2CABBCCDECEFDD6F0D810EA20AA8053
:40020000AD12EA01EA0107805220578059045F02602084208D048E20C020D460D6C0D840E6109904A780AF80B302E8403E1059049904AB80CE20D640EE2096101010142031
:40024000C40C9830983098309610AA10EA8010401320148078107C209830C40EDE0378407C8098C0AB20DC01DE040001080103C02030000030000000010406000060030085
:4002800007560009000A00100004080001000604000400000C0100000C000000080404000C07003804040800000007000800007F00800800000010001603500002CEF0DBF5
:4002C0003BFFFFFF2200F008040000004000000004040404000000010000C00040011011C001001140014001000000000000000000000000000000000000000000001000D1
:40030000300000300000300000000000200000200000000000000000007F7F000000000002FCFC00DC00000007000007040000000000000000000000000000000000000007
:40034000000000000000000000000000000000000000000000000000000000000000000000000000000000000000000000000000000000000000000000000000000000007D
:40038000000000000000000000000000000000000000000000000000000000000000000000000000000000000000000000000000000000000000000000000000000000003D
:4003C00000000000000000000000000000000000000000000000000000000000000000000000000000000000000000000000000000000000000000000000000000000000FD
:4004000000000000000000000000000000000000000000000000000000000000000000000000000000000000000000000000000000000000000000000000000000000000BC
:0200000490006A
:0400000000004005B7
:0200000490105A
:04000000BC90ACAF55
:0200000490303A
:02000000326E5E
:0200000490402A
:4000000000000000000000000000000000000000000000000000000000000000000000000000000000000000000000000000000000000000000000000000000000000000C0
:400040000000000000000000000000000000000000000000000000000000000000000000000000000000000000000000000000000000000000000000000000000000000080
:400080000000000000000000000000000000000000000000000000000000000000000000000000000000000000000000000000000000000000000000000000000000000040
:4000C0000000000000000000000000000000000000000000000000000000000000000000000000000000000000000000000000000000000000000000000000000000000000
:0200000490501A
:0C00000000012E12306900012E1C62D796
:00000001FF