:400000000080002011000000A5110000A511000008B5044B1A6803F53F5302331A6001F0DBF800BFFA46004010B5054C237833B9044B13B10448AFF300800123237010BD37
:400040000882FF1F00000000709C0000084B10B51BB108480849AFF300800848036803B910BD074B002BFBD0BDE81040184700BF00000000709C00000C82FF1F0881FF1F27
:400080000000000010B582B002AB03E903001A4B1B7813F0FF0F2BD1002323E09DF8031003EB43021548825C91421AD19DF8041003EB430202445278914212D1104A03EBC4
:4000C0004303034419889B781180937001240A4B1C7002F029FFC043C0B202F019FF204607E00133054A92689342D7DB002000E0012002B010BD00BF29A2FF1F0C81FF1F48
:4001000020A4FF1F094A0023937013705370084A11680B70537213715361136113735373044A1370044A1370704700BF20A4FF1F08A4FF1F29A2FF1F00A4FF1F10B584B0B3
:40014000304803F0C5FC03F067FD2F4803F0D0FC2E4803F0BFFC2E4805210A4603F032FF2C4A01AB07CA83E80700184600F014FF002402F0ABFFD0B904AB03EB84032046F9
:4001800053F80C1C00F0A2FE013CE4B2224BA3FB04235B0803EB4303E41AE4B204AB03EB8403204653F80C1C00F008FFE1E702F09BFFD0B904AB03EB8403204653F80C1C3E
:4001C00000F084FE0134E4B2134BA3FB04235B0803EB4303E41AE4B204AB03EB8403204653F80C1C00F0EAFEC3E702F075FF0028BFD11CB1012CBCD1052000E0022004B075
:4002000010BD00BFFFF9F700ECF1000025141800B89C0000749C0000ABAAAAAA00B585B004AB03E90700019802F06EFC05B05DF804FB00BF2DE9F04383B007460E46154647
:400240001C461C4803F046FC07EB050909F1FF3906EB040808F1FF38384631464A46434604F0B2FC6FF07F4003F034FC032003F001FC384631464A46434602F03DFF0120C3
:4002800003F0F8FBADF80070ADF80260ADF80490ADF806806FF07F4003F01CFC064803F027FC0A9869460E22012303F0BFFF03B0BDE8F083C44D8300D4FE00002DE9F04F6F
:4002C000F7B04F4803F004FC03F0A6FC4D4803F00FFC4D4803F0FEFB74AB4C4A52F80C0F516803C34A4C254667A84A4955F8102B09F0C8F8484874A90E22012303F096FF1E
:40030000464803F0F5FB464803F0E4FB454874A90222012303F08AFF95E803008DE8030094E80F0000F098FDE379257A5FFA80F8C0F3072761693C4E81FB06AB01EB0B024F
:40034000C817C0EBE2224FF4616909FB12120095CDF80480029786FB01E52944C0EBE1210391324D85FB02011144D217C2EB6112049247A880212E4A09F052F8002047A9DD
:400380002C4A00F089FE94F807C094F808E0616981FB0623CA18C817C0EBE22209FB12122368CDF800C0CDF804E0CDF80880039786FB01463144C0EBE121049185FB0215CC
:4003C0001544D217C2EB6512059206A84FF48071194A09F025F806A802F048FE0A2002F057FE0A2002F054FE144802F03FFE01F099FB0028FBD1012077B0BDE8F08F00BFB1
:400400006CC96B00ECF1000025141800749C000008A4FF1FC49C0000D89C0000D4FE0000C5AB8D00E09C0000C5B3A29189888888F09C0000389D0000449D0000209E000029
:4004400070B596B003AD85E8070014A800F036FC9DF853308DF84C309DF854308DF84D305C4C95E8070084E80700BDF84C30A3819DF813209DF81430C3EB03139B004FF4A4
:40048000616101FB02332361534803F021FB03F0C3FB524E304603F02BFB514D11AB2A4652F80C0F516803C36FF07F4003F012FB4C4811A90E22012303F0B8FE304603F0BB
:4004C00017FB0FAA2B4653F8140F596803C203980FA90E22012303F0A9FE02232371424B00930A204FF48571E6224FF49B73FFF7A1FE66E0374B5B7A4BBB364B5869002854
:4005000025DD3A4E86FB0036C1170644C1EBE6264FF4616202FB1602354C84FB02351544D217C2EB651584FB00340444C1EB6414C4EB0414A400041B2E4803F0CBFA00947A
:4005400008A82D4932462B4608F09CFF27E0214B1869264E86FB0036C1170644C1EBE6264FF4616202FB1602214C84FB02351544D217C2EB651584FB00340444C1EB64141A
:40058000C4EB0414A400041B6FF07F4003F0A2FA009408A8184932462B4608F073FF06AB0F4A52F81C0F516803C3144803F0A0FA06A803F027FB08A806A90E22012303F0BC
:4005C00035FE044B1B79022B94D0FFF777FE16B070BD00BF08A4FF1F442B2600D4FE0000749C0000489E00005C9E0000C5B3A291898888886262EA00689E0000ECF10000B9
:4006000070B58CB0254C0AAB224652F8240F516803C3234803F05EFA3C205021B422F02304F0D2FA6FF07F4003F054FA04AD2C340FCC0FC594E8030085E8030004A808F0F1
:4006400045FF431E0022009204A80AA90E2203F0E1FEFF241E2502F0F1FC68B102F0D8FC0CAE06F8210D02F0F5FC0020014601F05BFE304601F0ECFDE4B22544EDB20948E3
:4006800005212A4603F06AFF01F04CFA10B16442E4B2E0E700200CB070BD00BF749C0000A68E8600789F000010B582B004460D4803F00EFA03F0B0FA6B460B4A52F8240FF3
:4006C000516803C36FF07F4003F004FA204669460E22012303F0AAFD41F2883001F02AF902B010BD442B2600749C000010B50446012001F0BBFD0020014601F015FE20469C
:4007000001F0A6FD4FF47A7001F014F910BD00BF30B58DB00120002101F006FE0AAC204600F0CCFA9DF829209DF82A309DF82B509DF82C009DF82D1000950190029104A86E
:40074000444908F09FFE0120002101F0EDFD424801F07EFD0120002101F0E6FD04A801F077FD94E80300FFF78DFCE0B13B4B9B78032B18D001F0BCFEC043C0B201F0ACFE24
:400780000122364B9A7000F0EFFA3548FFF7AEFF344B1B69002B06DC324B5B7A1BB1314A5369013353612F4B1B79022B20D12D4B1B69002B1CDD2C4B1B7813F0FF0F17D0F7
:4007C000264B9B78012B0ED1244C0023A3702378607843EA0020052100F00AFB00B22070C0F30720607000221F4B1A7000F0B2FA1C4B1B79022B1DD11B4A127812F0FF0F36
:4008000018D1184A1369013B1361002B08DC527A32B10022134B1A610122134B1A7014E0002B12DC0F4B5B7A7BB90E4A5369013353610AE0032B08D10B4B1B7813F0FF0F26
:4008400003D0084A13690133136101F0F1FD0DB030BD00BF789E0000949E000020A4FF1FAC9E000008A4FF1F29A2FF1F10B5154B1B7813F0FF0F19D00024124B1C7000F011
:4008800069FA204602F044FB0F4B9B78012B06D103220D4B9A700D48FFF728FF10BD0C48FFF724FF03220B4B1A7110BD094B1B79022B05D10322074B1A710548FFF716FF83
:4008C00010BD00BF29A2FF1F20A4FF1FB89E0000C89E000008A4FF1FF0B58FB000AF494803F0F6F803F098F9474803F001F9474803F0F0F8464805210A4603F063FB454BC7
:40090000DB689B000A3323F00703ADEB030D6D46002308E003EB43013E4A02EB8102126945F8232001333B4AD2689342F2DB284600F032FB02F040F802F052F8002401F059
:40094000F1F868BB03F068F9381D334955F8242008F098FD381DFFF7A7FE4FF47A7000F0E9FF2E4B1B68022B0BD104EB4404294B03EB840404F1100393E80700FFF760FD30
:400980003DE0052B0BD104EB4404224B03EB840404F1100393E80700FFF740FC2FE0FEE7002002F025F80028C9D0204655F8241000F08CFA02F034F882B2002804DB40F668
:4009C000FE739A4202D803E0002201E040F6FF72134BA3FB0213D21A03EB5203C3F38F24002630460F49224608F04CFD3046FFF77DFE204655F8241000F0E0FA9FE73C376C
:400A0000BD46F0BDFFF9F700ECF1000025141800D89E00000C81FF1FE89E000004A4FF1F81011880FC9E000008B562B601F0DEFC02F0AAFA01F042FD274801F0C9FC2748CE
:400A400002F094FA01F0BCF800F05AFE01F05EFC012001F00BFC224801F0FAFB02F00AF802F038F802F096FA02F0C4FA03F004F91C4803F02DF803F0CFF81B4803F038F861
:400A8000FFF740FB0122194B1A60184B1B68052BFBD801A252F823F0B10A0000BB0A0000C50A00008B0A00008B0A0000CF0A0000FFF744FB0D4B1860E7E7FFF7A1FD0B4B0C
:400AC0001860E2E7FFF708FF084B1860DDE7FFF703FF064B1860D8E7110700006D080000089F0000FFF9F700A4F2000004A4FF1F10B50446002000F011FE204600F0C2FDE7
:400B000000F0B4FD10F0010FFAD010BD10B50446012000F003FE204600F0B4FD00F0A6FD10F0010FFAD010BD70B506460D46012000F0F4FD002408E0305D00F0A3FD00F02C
:400B400095FD10F0010FFAD00134AC42F4DB70BDFEE700BFFEE700BF08B50120FFF7C8FF0A2000F0E7FE3620FFF7C2FF8820FFF7CDFF3A20FFF7BCFF5520FFF7C7FF112024
:400B8000FFF7B6FF2920FFF7B3FFFA2000F0D2FE08BD00BF024A136801331360704700BF24A4FF1F10B500F09FFF002409E0204600F0B0FF20B92046064900F0A3FF02E00A
:400BC0000134042CF3D9042C02D9002000F0B0FE10BD00BF950B000008B5FFF7E3FF08BD08B504484FF4005102F0D2FB024802F0D3FF08BD2482FF1FB0EA000008B5FFF735
:400C0000ABFF08BD30B5A1B000241B941C941D941E941F9401A82146682208F0F9FB154815492246234603F02DF905462046F0214FF4A07205F09EFE2046F0214FF4A072D7
:400C400005F0B0FE02231D9328461BA904F097FB0A4B01930A4B02930A4B04930A4B06930A4B0893284601A9094A0A4B04F0A5FB21B030BD9008010038080100F10A0000C0
:400C80000D0B0000290B0000510B0000550B00002D5E00008D5A0000012904D108B5FFF7ADFF002008BD4FF0FF3070470309A3EB83035A001044C0B2704700BF2DE9F0474F
:400CC00082B00446002302A901F8043D6820012201F0F0F801F0BCF910F0020FFAD001F0D3F968201A490722002301F049F901F0AFF910F0010FFAD001F0C6F9144D287820
:400D000000F07F00FFF7D2FF06466878FFF7CEFF0746A878FFF7CAFF80462879FFF7C6FF81466879FFF7C2FF8246A879FFF7BEFF054601F0BBF9257084F801A084F8029095
:400D400084F8038027716671204602B0BDE8F08728A4FF1F08B501F0E7FB024B00221A601A7108BD24A2FF1F08B51A4A136801331360527912F0FF0F02D101F0D5FB08BDC3
:400D8000012B26D101F0B4FBC043C0B201F0A4FB104B1B79012B0FD013B1022B06D015E001F034FC01220B4B1A710FE001F02EFC0122084B1A7109E0074B1B780BB10022D9
:400DC00000E00222034B1A7101F0AEFB0022014B1A6008BD24A2FF1F32A4FF1FC1EB011189004FF4616303FB00101044704700BF10B584B00C46C0F30721C0B20022FFF721
:400E0000EDFFC4EB041400EB8401114880FB01300844CB17C3EBE0238DF804304FF4616000FB13100B4B83FB00230344C017C0EB63108DF80500BDF804300020DAB262F329
:400E40000700C3F3072363F30F2004B010BD00BFC5B3A2918988888884B000B583B00DF1100E8EE80F009DF817009DF818100022FFF7B4FF099A0244124880FB02301044C5
:400E8000D317C3EBE0238DF800304FF4616000FB13200D4B83FB00230344C017C0EB63108DF80100BDF800300020DAB262F30700C3F3072363F30F2003B05DF804EB04B0F8
:400EC000704700BFC5B3A291898888882DE9F04182B00D4658B9C0EB001424012B4B83FB0423A3EBE47404F10408513418E001280BD1C0EB00142401244B83FB0423A3EBE5
:400F0000E47404F102084F340AE0C0EB001424011E4B83FB0423A3EBE47404F102084D3408F1280704F12806194802F0D3FD00203946DB22334603F047FE164802F0CAFDC3
:400F400000203946DB22334602F0D6F8012008F12901DA2204F1270302F0CEF80823ADF800301F44ADF80270D423ADF8043004F12006ADF80660022002F0E0FD2846694607
:400F80000C2203F03EF902B0BDE8F08156555555FFF9F700442B260038B50546064802F0A7FD002405E0204655F82410FFF78EFF0134022CF7DD38BDD4FE00002DE9F04362
:400FC00083B00D4650B9C0EB001424012F4B83FB0423A3EBE474271D513416E001280AD1C0EB00142401294B83FB0423A3EBE474A71C4F3409E0C0EB00142401234B83FBD4
:401000000423A3EBE474A71C4D3407F1280804F12806DFF88090484602F05CFD00204146DB22334603F0D0FD194802F053FD00204146DB22334602F05FF82734012007F1FA
:401040002901DA22234602F057F8042007F12C01DA22234603F0B8FD484602F03BFD0823ADF800309844ADF80280D423ADF80430083EADF80660022002F060FD28466946E0
:401080000C2203F0BEF803B0BDE8F08356555555442B2600FFF9F7002DE9F04F87B00191934650B9C0EB001424013B4B83FB0423A3EBE474271D513416E001280AD1C0EB52
:4010C00000142401344B83FB0423A3EBE474A71C4F3409E0C0EB001424012F4B83FB0423A3EBE474A71C4D3407F1280604F12805DFF8ACA0504602F0EDFC00203146DB22E1
:401100002B4603F061FD254802F0E4FC00203146DB222B4601F0F0FF2734012007F12901DA22234601F0E8FF4FF00809ADF81090B6B206EB0903ADF812304FF0D408ADF84D
:401140001480083DADB2ADF81650022002F0F6FC584604A9002203F054F8042007F15E01DA22234603F030FD504602F0B3FCADF808903A36ADF80A60ADF80C80ADF80E5053
:40118000022002F0DBFC01980DEB09010C2203F038F807B0BDE8F08F56555555442B2600FFF9F700FEE700BF08B5094B1A681044084BC31A802B02DC054B186005E008F0BB
:4011C000D5F80C2303604FF0FF32104608BD00BF4081FF1FD0A5FF1F08B5104E104D16E029686B68AC68002204E051F8040B43F8040B0432A242F8D1E868002203E00021ED
:4012000043F8041B04328242F9D11035013E002EE6D108F0B1F8FFF707FCFEE701000000300E010008B5134A134B1A60134A136843F40073136000230AE0032B03D8104A11
:4012400052F8231000E00F490F4A42F8231001332F2BF2D90D4B1A780D4B1A700A4A0D4B1A6000F019F900F083FA00220A4B1A6008BD00BF0004FA050CED00E014ED00E007
:4012800000000000A51100000080FF1FBC7600400481FF1F08ED00E00081FF1FFEE700BFF0B40022174611E050F82760F3B226F0FF0608E001EB420511F812406D78A555B5
:4012C0000132013BDBB2002BF4D10137262FEBD9F0BC70470D4B1B78DBB203F007010C4A11701B09013213701023A2F26272137020216032117002F6231213700222054B94
:401300001A704422A3F28A231A707047CF0100496E580040005B004008B50A46002108F077F808BD08B508F04DF808BD70B500243C4B1C80502202331A70032602331E80CE
:401340001823394A1370362102321180023213704FF49C7235490A8002310B7002310A80334A137040F65F11023211800232137043F697222F4B1A80192502331D702E48F7
:401380002E490422FFF7CEFF02222D4B1A7008224FF040231A7003F500731E70294B1B78DBB229490B70294B1A8041F25122023B1A800CE0264B1B7803F0010343EA4404F0
:4013C00004F003044FF4F07000F0C2F9013D0DB1032CEFD115B90320FFF760FF1D4B4FF480721A8007221A7000221B490A704820023108701A700222033B1A7004220A339D
:401400001A70164A137843F07F031370013A137843F001031370013A137843F08003137070BD00BF80400040864000408C400040924000409840004000410040140B004870
:401440000043004008010049A146004022420040254200400440004006400040A2430040012807D8044B53F820201844017A13780B431370704700BF8CDF0000012808D8F7
:40148000044B53F820201844017A137823EA0103137070478CDF000070B572B6484A137843F00403137000240AE0464963001A1952000A44D068118AFFF72EFF0134E4B27F
:4014C000072CF2D9002410E03E49A3001A1952000A4452F83C0F23445B000B445168B3F84420FFF71FFF0134E4B2012CECD94FF090403549FFF7D4FE0A24344B1C70344894
:401500000421FFF709FF33480421FFF705FF324A137843F0020313701032137843F0020313702E4D2B7843F040032B70A2F58632513A137843F0100313702948294908223A
:40154000FFF7F0FE284829492246FFF7EBFE284828492246FFF7E6FE274828492246FFF7E1FE274827490822FFF7DCFE264827490822FFF7D7FE264826490822FFF7D2FEA5
:40158000254826492246FFF7CDFE254825492246FFF7C8FE244A137843F008031370234E01243470FFF7C2FE81233370204B1C70FFF790FE1F4829460E22FFF7B3FE70BDE1
:4015C000E84600408CDF00009C00004883580040007600400876004003500140A043004002510040B80A0048C0510040C00A0048F0510040CC0A004810510040D80A00487E
:4016000022510040E40A004832510040EC0A004842510040F40A004850510040FC0A004860510040080B0048224300400048004004000840B043004008B500F091F80A4AF6
:40164000137843F0200313700532137843F010031370043A137843F01003137000F084F800F068F808BD00BF95640040014B1878704700BF6A640040014B1878704700BFBE
:4016800066640040034B1B7813F0040FFAD0024B187070476A6400404564004008B501E00A4B1B780A4B1B7813F0200FF8D100F057F8084B1A7842F001021A701A7802F00C
:4016C000FE021A7000F050F808BD00BF55640040666400409564004008B50F22064B1A70FFF7DCFFFFF7C2FFFFF7C6FF0023034A1370043A137008BD856400408A6400408C
:4017000008B5054B1B7823B9FFF7E6FF0122024B1A70FFF791FF08BD2CA2FF1F044A137803F0DF03400100F0200018431070704740510040054A137843F0020313701032E8
:40174000137843F002031370704700BFA24300400230800803D000BF01380046FCD17047EFF3108072B6704780F31088704700BF0B4A7F2313708021517007E0DA0002F1D7
:40178000804202F5F042013BDBB21370002BF5D1DB0003F1804303F5F04300221A7070474481FF1F172815D831B103010A495A5C42F020025A5405E0030107495A5C02F000
:4017C000DF025A540001044A835C43F00103835400207047012070471070004017280BD80001064BC25C02F0FE02C254C25C02F0DF02C2540020704701207047107000409F
:4018000017280BD80001064A835C03F0F10301F0070143EA4101815400207047012070471070004041F6FF73994201D14FF4005141F6FF739A4201D14FF40052172808D8CE
:40184000C00000F1804000F5EC408180C280002070470120704700BF172805D8034B03EB0010417200207047012070471070004017281BD810B4C00000F1804404F5EC4407
:40188000D201D2B201F07F01114321709DF804201201D2B203F00F03134363709DF8083003F00F03A3700020E07001E0012070475DF8044B704700BF10B5FFF751FF0A4B75
:4018C0005B78182B0BD9084A1478013B5370E30003F1804303F5F0431B78137000E0FF24FFF742FF204610BD4481FF1F10F0800F0CD111F4704F0BD1C00000F1804000F574
:40190000F04001808270C37000207047012070470120704710F0800F08D1C00000F1804000F5F0408180C280002070470120704701BE704710B5044605E0084B1868FFF727
:4019400007FFA4F50044B4F5004FF6D8034B586800FB04F0FFF7FCFE10BD00BF4C81FF1F08B5034B1B7A03FB00F0FFF7F1FE08BD4C81FF1F70B504460E46074B1D680F2866
:4019800002D90020FFF7D4FF04F00F0455F8240045F8246070BD00BF08ED00E070B504460E46074B1D681F2802D90020FFF7C0FF04F01F04103455F8240045F8246070BD1E
:4019C00008ED00E038B504460D46072902D90020FFF7AEFF1F2C02D90020FFF7A9FF04F01F0000F1604000F564406D01EDB2057038BD00BF024A136843F00203136070473A
:401A000010E000E008B5FFF7F5FF034A136843F00103136008BD00BF10E000E020F07F40014B1860704700BF14E000E0012805D1054A136843F0040313607047024A136898
:401A400023F004031360704710E000E0024B1868C0F30040704700BF10E000E010B5FFF7F5FF01280BD107E0054B03EB84035B6803B19847013400E00024042CF4D910BD93
:401A800030A2FF1F0022014B1A60704718E000E008B5002305E00F4A02EB8302002151600133042BF7D90F200B49FFF763FF0120FFF7BCFF094BDB680948A0FB033080093E
:401AC000FFF7ACFFFFF7DEFF4FF40042054B1A6008BD00BF30A2FF1F5D1A00004C81FF1FD34D621000E100E008B5054B9B6923B9FFF7CEFF0122024B9A61FFF783FF08BDA2
:401B000030A2FF1F024B03EB800358685960704730A2FF1F024B03EB80004068704700BF30A2FF1F024B1878C0F34010704700BFF151004038B50222114B1A7081220E3B53
:401B40001A70082202331A700F2511331D70002401331C704FF400420A4B1A6028460521FFF730FF28460849FFF718FF1022074B1A70074B1C70074B1C70074B1C7038BD93
:401B8000D649004080E100E0E91B000033A4FF1F44A4FF1F42A4FF1F38A4FF1F08B5FFF7DFFD064A137843F0040313701032137843F004031370FFF7D7FD08BDA543004020
:401BC00008B5074B1B7823B9FFF7B4FF0122044B1A70FFF7E3FF4FF40042024B1A6008BD4CA2FF1F00E100E038B5A44B1C78E4B2A34B1B7813F0400F00F0378114F0010F77
:401C000000F01B819E4B1B78453B052B00F21281DFE813F006008200100110010600DE0004F0DF0504F00A04082C42D1944B1B78DBB2452B35D1934B1B7813F0FF0F10D017
:401C4000914B1B681B78DBB2904A137004228B4B1A7001228E4B1A704622894B1A702C46EBE08C4B1B7813F0020F0DD08A4A137843F00A0313706022814B1A704FF400429F
:401C8000864B1A602C46D8E0854A137843F0100313701022834B1A700422023B1A702C46CBE00022754B1A704A22754B1A702C46C3E00A2C2BD1784A137843F0A0031370E9
:401CC000744B1B7813F0020F14D06D4B1B7813F0080F01D0092300E00A236F4A11780B4313706022664B1A704FF400426B4B1A602C46A2E06A4A137843F010031370102278
:401D0000684B1A700422023B1A702C4695E00020FFF70EFE2C4690E014F0020F35D15C4B1B78584A1278DBB2934210D2584A1378DBB255490968CB5CDBB254490B7004210F
:401D40004E4B197013780133DBB2137075E0514B1B7813F0020F0CD04F4A137843F00A0313706022464B1A704FF400424B4B1A6063E04B4A137843F0100313701022494BF3
:401D80001A700422023B1A7057E0424B1B7813F0020F0CD0404A137843F09A0313706022374B1A704FF400423C4B1A6045E03C4A137843F01003137010223A4B1A70042283
:401DC000023B1A70344A137843F09003137034E0354A1378DBB2354908682C490978C9B2C15413780133DBB213701378304A1278DBB2934203D21022204B1A701DE0254B82
:401E00001B7813F0020F0CD0234A137843F00903137060221A4B1A704FF400421F4B1A600BE01F4A137843F0100313700022134B1A7002E00020FFF77BFD14F0200F1CD04A
:401E40000F4B1B7813F0080F01D0012300E00223114A11780B431370114A137803F0EF0313701022064B1A7038BD054B1B7813F0100F02D11022024B1A7038BDD749004026
:401E800033A4FF1F40A4FF1F34A4FF1FD849004038A4FF1F43A4FF1F44A4FF1F80E100E0D6490040D949004042A4FF1F3CA4FF1F41A4FF1F002948D070B40C462649097821
:401EC000C9B2102906D12549097811F0080F11D1002112E020490978C9B260290CD14FF400451F490D601F4D297801F0F7012970002102E0012100E0022149BB4526164DAA
:401F00002E700026184D2E70184D2A70184A1460184A1370134C227802F0FD0222704200D2B21548027013F0010F06D012220B4B1A700422023B1A7002E00122074B1A7044
:401F40004FF400420D4B1A6002E0022108467047084670BC704700BF33A4FF1FD949004080E200E044A4FF1F38A4FF1F40A4FF1F34A4FF1F43A4FF1FD849004000E100E058
:401F800000294AD070B40C4627490978C9B2102906D12649097811F0080F11D1002112E021490978C9B260290CD14FF4004520490D60204D297801F0F7012970002102E032
:401FC000012100E0022159BB4926174D2E700026194D2E70194D2A70194A1460194A1370144C227802F0FE0222704200D2B242F001021548027013F0010F06D012220B4B95
:402000001A700422023B1A7002E00122074B1A704FF400420D4B1A6002E0022108467047084670BC704700BF33A4FF1FD949004080E200E044A4FF1F42A4FF1F41A4FF1F51
:402040003CA4FF1F43A4FF1FD849004000E100E04FF40042084B1A60084B1878C0B2084B1B7813F0400F01D040F004004FF40042044B1A60704700BF80E100E044A4FF1F4C
:4020800033A4FF1F00E100E04FF40043044A1360044A107800211170034A1360704700BF80E100E044A4FF1F00E100E04FF40042064B1A600021064B197006490B7803F05D
:4020C000FE030B70044B1A60704700BF80E100E042A4FF1F44A4FF1F00E100E010B50B4C237803F09F032370237803F0F00323702378184340F0100020700120FFF730FC1D
:40210000237803F0EF03237010BD00BF2051004038B505460E4C237843F020032370237803F0BF0323700020FFF71AFC237803F0F003237023781D4345F01005257001201B
:40214000FFF70EFC237803F0EF03237038BD00BF2051004070B5354B1A7802F08002D2B21A7033490A7802F0F00242F00F020A7001310A7802F0F0020A7001310A7802F0D7
:40218000F0020A701A7802F0DF021A701A7842F040021A704FF4CA760020FFF7E1FB234D2B7843F010032B700120FFF7D9FB214B1C78E4B22B7803F0EF032B700020FFF711
:4021C000CFFB04F00804E4B22B7843F010032B700120FFF7C5FB2B7803F0EF032B7014B90A20FFF7BDFB013E0CB1002ED4D10F4A137803F0BF031370137803F08003DBB2E3
:4022000013700232137803F0F00313700132137803F0F00343F00F0313700132137803F0F00343F00F03137070BD00BF20510040225100402151004010B50446FFF78AFF8B
:402240002009FFF765FF04F00F00FFF761FF10BD38B505460078012404E0FFF7EDFF285D0134E4B20028F8D138BD00BF10B50446FFF770FF2009FFF731FF04F00F00FFF769
:402280002DFF10BD08B52820FFF754FB0320FFF725FF0520FFF74EFB0320FFF71FFF0F20FFF748FB0320FFF719FF0120FFF742FB0220FFF713FF0520FFF73CFB0620FFF77E
:4022C000D5FF0E20FFF7D2FF2C20FFF7CFFF0820FFF7CCFF0120FFF7C9FF0C20FFF7C6FF0320FFF7C3FF0520FFF724FB014800F039F808BDDCDF000008B50C20FFF7B6FFC3
:402300000122014B1A7008BD4DA2FF1F08B5054B5B7823B9FFF7B6FF0122024B5A70FFF7EBFF08BD4DA2FF1F08B5032819D8DFE800F002070D1381F08000FFF797FF08BD84
:40234000A1F14000C0B2FFF791FF08BDA1F16C00C0B2FFF78BFF08BDA1F12C00C0B2FFF785FF08BD38B50546FFF7F4FE4020FFF77DFF002404E0285DFFF75EFF0134E4B20D
:402380003F2CF8D9FFF7E6FE8020FFF76FFF38BD024B1B68C3F88400704700BF08ED00E04001C0B2014B1870704700BF11E400E04FF40032014B1A60704700BF00E100E070
:4023C0004FF40032014B1A60704700BF80E100E010B50446FFF7F4FF2046FFF7D9FF0720FFF7DEFFFFF7E4FF10BD00BF4FF40032014B1A60704700BF80E200E0084A137890
:4024000043F0010313701032137843F00103137002F64D32137843F001031370704700BFA3430040014B1870704700BF034F0040014B1878704700BF034F0040014B18805F
:40244000704700BF044F0040014B1880704700BF064F004008B5164A137803F0010313700232137803F0FC031370124B1A7802F0CF021A701A7842F030021A701A7802F0CE
:40248000F0021A701A7842F00F021A700A4A137843F00103137041F28730FFF7CFFF41F28730FFF7D1FF0820FFF7BCFF08BD00BF004F00400B4F0040014F004008B5054B27
:4024C0001B7823B9FFF7C6FF0122024B1A70FFF795FF08BD4FA2FF1F044A137803F0FB03800000F0040018431070704760510040024B1878C0F38000704700BF6151004021
:4025000010B500F06BFB074C20780121FFF74AF960780121FFF746F9002000F089FB00F005FB10BD50A2FF1F10B500F00DFB054C2078FFF753F96078FFF750F900F05CFB64
:4025400010BD00BF50A2FF1F70B505460E46012001462A0C4FF4804300F004FB094C2070A278104631460123FFF7C0F9A078A9B245F68232FFF7CEF92078A178FFF76CF99E
:4025800070BD00BF50A2FF1F70B505460E46012001462A0C4FF4804300F002FB094C6070E278104631460123FFF7A0F9E078A9B245F68232FFF7AEF96078E178FFF74CF920
:4025C00070BD00BF50A2FF1F10B500F059FB022000F020FB002000F043FBFFF76DF9094CA070FFF769F9E070074C20464FF47A71FFF7AAFF04F57A7040F28661FFF7C4FFB7
:4026000010BD00BF50A2FF1F1CE0000008B5054B1B7923B9FFF7D8FF0122024B1A71FFF76FFF08BD50A2FF1F10B59DF80840012C4AD10138092826D8DFE800F00525250527
:4026400025250D15251D0F2B02D9214800781BE02048007818E00F2B02D91F48007813E01E48007810E00F2B02D91D4800780BE01C48007808E00F2B02D91B48007803E0BA
:402680001A48007800E0002040B201EB401101FB02F1C90B8AB20D2B0BD8C3F10E0289B211418AB2124901EB8401013301F8023C05E00F4B03EB84030F2103F8021C013CF9
:4026C0000B4B23F8242010BD0020FFF731F910BD180100491C010049190100491D0100491A0100491E0100491B0100491F01004958A2FF1FF8B50746FFF732F806460D4D47
:402700002B7843F003032B700B4C237843F0030323700A4B1F700320FFF722F92B7803F0FC032B70237803F0FC0323703046FFF71BF8F8BDF8460040F946004092580040A1
:402740000022314B1A7101285DD170B534222F4B1A70062202331A70082201331A70002401331C7001331C701F2201331A7002331C7001331C7001331C7001250A331D70B7
:40278000142203F527631A70052601331E70162201331A7001331C70442203331A70482201331A7001331D7002331C7001331C700A2201331A70432201331A705220FFF72F
:4027C00099FF5822124B1A7001331C7005331E70022201331A7001331C7001331C70204600F074FA40F233320A4B1A602C20294600F090FAB620294600F010FB1D200649CD
:40280000FFF7CCF870BD704758A2FF1F004E00409458004048A4FF1F712A0000F0B583B0284D01272F70284E00247471102000F05FFA102000F0E0FA1D200721FFF7C2F868
:402840000422224B1A7001331C7007331C70204A137843F0180313701E4B1C7003F2F5231C7001331C700A22A3F209331A7001331C7002331C70122205331A70132201333A
:402880001A7004331C701422A3F68C231A700097022048F66B514FF400420C23FFF7C4FE2B7806EB830313F8022C0B4B1A702B78013B36F82320094B1A802878FFF740FF5E
:4028C00003B0F0BD5C81FF1F58A2FF1F96580040075B0040935800400E4E00400C4E004070B5FEF73DFF06462A4B1B782A4B1A7842F001021A701A7842F010021A70103321
:402900001A7842F001021A701A7842F010021A70224D2B7843F002032B70214C237843F0020323701F4A137843F0030313700320FFF716F82B7803F0FD032B70237803F098
:40294000FD032370184A137843F0060313707A22164B1A70164A137843F0010313701032137843F0010313700F3A137843F0010313701032137843F0010313704FF00053BE
:402980000C4A1360A2F5C07213603046FEF7ECFE70BD00BF5C81FF1FAA430040F8460040F9460040915800407758004082580040A143004080E200E008B5084B9B794BB9CC
:4029C000064BDB7913F0FF0F01D1FFF727FF0122024B9A71FFF784FF08BD00BF58A2FF1F024A137843F0010313707047004E0040094B1B7913F0FF0F03D0074B5B79DBB24E
:402A000003E0064B1B7803F00103012B01D00028EED01846704700BF58A2FF1F014E00400E4B1B7803F00303012B03D80C4B188880B209E00A4A12780A49087842EA00207F
:402A4000032B01D1084B1B78084B1B7913F0FF0F02D00022054B5A7100B27047144E0040104E0040114E0040124E004058A2FF1F704700BF7222084B1A702022013B1A707A
:402A800006225A3B1A70472210331A70002203F5A7731A70704700BF8864004010B5FEF75FFE04460A4A137843F020031370013A137843F01003137002F58272137843F0E8
:402AC0001003137000F016FA2046FEF74DFE10BD9864004008B5054B1B7823B9FFF7CAFF0122024B1A70FFF7D9FF08BD60A2FF1F034B1B7813F0040FFAD1024B187070475B
:402B00006B6500404C64004038B5074B1B782BB938BDFFF7EDFF0134A4B201E005460024285D0028F5D138BD60A2FF1F054A137843F0040313701032137843F00403137084
:402B4000704700BFA2430040054A137803F0FB0313701032137803F0FB031370704700BFA2430040F0B583B086460F4616461D460A4C0023237000930193184671463A4610
:402B8000FEF776FE207831462A46FEF74BFE20780221FEF735FE207803B0F0BD5D81FF1FF0B583B086460F4616461D460A4C0120207000230093019371463A46FEF758FE8D
:402BC000207831462A46FEF72DFE20780221FEF717FE207803B0F0BD5E81FF1F054A137843F0040313701032137843F004031370704700BFA8430040054A137803F0FB03EF
:402C000013701032137803F0FB031370704700BFA8430040054B1A7802F0FD021A701A7800F0020010431870704700BF28580040014B1870704700BF825B0040064B1B78F2
:402C4000C3F3810303F19243063393F82831DBB2024A1370704700BF285800400A46004008B5064B1A7802F0F3021A701A7800F00C0010431870FFF7E1FF08BD285800403D
:402C800008B50020074B187001331870064A137843F008031370FFF7E3FF0220FFF7BAFF08BD00BF28580040975A004010B5002404E02046FEF7E2FB0134E4B2012CF8D919
:402CC000FF22014B1A7010BD5F81FF1F10B50446FFF7ECFF2046FEF7C3FB014B1C7010BD5F81FF1F014B188880B2704780400040034B1A7800F0F80010431870704700BF78
:402D000082400040024B187800F00700704700BF8240004070B505460E46FFF7F3FF0446FFF7E0FF854256D02B4B1B7803F0010294B900B185B938B9284B1D80284A137854
:402D400003F0BF03137070BD254A137843F040031370224B1D8070BD22B3002321490B7001240F310C7004310B700C390B7803F07F030B701A4B1B7813F0080F00D08DB976
:402D8000194B18800721013B1970164B1B7813F0010FFAD110490B7803F0FE030B700021104B19700C4B1B7813F0010F0DD00E4B1D800EB1032200E001220A4B1A70094B1E
:402DC0001B7813F0010FFAD170BD044B1D8002490B7813430B7070BDA243004080400040824000400140004002400040014B188880B2704700410040034B1A7800F0F80035
:402E000010431870704700BF02410040024B187800F00700704700BF0241004070B505460E46FFF7F3FF0446FFF7E0FF854256D02B4B1B7803F0010294B900B185B938B90D
:402E4000284B1D80284A137803F0BF03137070BD254A137843F040031370224B1D8070BD22B3002321490B70012413310C7004390B7008390B7803F07F030B701A4B1B7890
:402E800013F0080F00D08DB9194B18800721013B1970164B1B7813F0010FFAD110490B7803F0FE030B700021104B19700C4B1B7813F0010F0DD00E4B1D800EB1032200E043
:402EC00001220A4B1A70094B1B7813F0010FFAD170BD044B1D8002490B7813430B7070BDA143004000410040024100400140004002400040054A137843F010031370103216
:402F0000137843F010031370704700BFA2430040044A137803F0F703C00000F0080018431070704760510040024B1878C0F3C000704700BF61510040014B1B689864704767
:402F400008ED00E04001C0B2014B1870704700BF02E400E00422014B1A60704700E100E00422014B1A60704780E100E010B50446FFF7F6FF2046FFF7DFFF0620FFF7E2FF40
:402F8000FFF7E8FF10BD00BF0422014B1A60704780E200E07222084B1A70202201331A700622643B1A70472210331A70002203F251131A70704700BF8B64004010B5FEF767
:402FC000CFFB04460A4A137843F0200313700132137843F010031370FD32137843F01003137000F065F82046FEF7BEFB10BD00BF9B64004008B5054B1B7823B9FFF7CAFF94
:403000000122024B1A70FFF7D9FF08BD62A2FF1F084B1B78DBB213F0200F06D0064A1078C0B213F01E0F02D17047002070470020704700BF6C64004048650040044B1B7816
:4030400013F0200F01D0012070470020704700BF6C640040034B1B7813F0040FFAD1024B18707047696500404964004038B5074B1B782BB938BDFFF7EDFF0134A4B201E08D
:4030800005460024285D0028F5D138BD62A2FF1F08B5064B1B783BB1FFF7DCFF0D20FFF7D9FF0A20FFF7D6FF08BD00BF62A2FF1F054A137843F0080313701032137843F088
:4030C00008031370704700BFA2430040014B1878C009704751510040024B1878C0F34010704700BF11510040024B1878C0F38000704700BF115100402DE9F7431E4CD4F8C3
:4031000000E0DEF85050DEF84C406F181D449EF818302618013B9BB21444F21AADF800201A19ADF804206846FA1A2B44ADF80220ADF8063004F022F9D8B107F1010805F1C3
:40314000FF3922463946304602F0F0FE22462946304602F0EBFE4A464146304602F00EFF4A464146204602F009FF04F045F80028E7D103B0BDE8F0836081FF1F074B10B5BD
:403180005A685C6A01325A605A6B02EBC0014C60002102F83010586210BD00BF50A4FF1F10B50E4944680F2301EBC302126C94420A4A03D213F1FF33F6D210BD0F2B0CD8B7
:4031C0001168091B11608168C06801B1486008B1016010BD02EBC303596410BD50A4FF1FF8B5274E0546F368B26B013B0818134498420C4605D84B591BB943681D44FFF705
:40320000CFFFB36B9C420BD954F8043C5B42E718E3582BB97B6838461D443C46FFF7C0FF0F2306EBC302126C954203D213F1FF33F7D223E00F2B21D8083306EBC3025168AF
:403240006019002284E82400A160246140F8045C04F1080001B1486006EBC303A160E260586033680649EA1896F8293032602BB9CB689B1A8A68934288BF8B602846F8BDAF
:4032800050A4FF1F2DE9F74F234F8346B846FE68BC6B013E264494E82800A3BB61198E4231D954F805A0BAF1000F2CD07B6B13F83A30012B27D1D8F82C302046D1F80490C6
:4032C00000930191FFF76CFF0199D8F83420086802EBC002546020464A4606F07EF8009B04EB09019A4508BFD8F83430284604BF5B1BC8F83430FFF773FFBBF1000F01D028
:40330000584505D24D462C44A642C4D8012000E0002003B0BDE8F08F50A4FF1F28B1034BDA6B026002B15060D863704750A4FF1F034B5B6B03EBC00040680830704700BF3B
:4033400050A4FF1F054BDA690132DA615A6B12F83030013302F83030FFF7EABF50A4FF1F30B50368094953F8085C4C6B14F83530012B03D9CA690AB1013ACA61013B04F8BF
:40338000353000230360184630BD00BF50A4FF1F024B21F0030118605960704764A2FF1F10B5044660B1074B5B6B03EBC00359684868FFF715FF2046BDE81040FFF7DEBE47
:4033C00010BD00BF50A4FF1F2DE9F041224CE36A3BB9224B9D685B680835B3FBF5F5023503E023691D1D05EBD305E80000F0C2F8804660B3616B226901EBC0035E68184BED
:4034000008361B68D2003046E76A9847226966631346C4F82C80691E8B4205D2013306EBC30040F8043CF7E706EBC3064FF00008C6F80480636862629B1A2B446360256196
:4034400038463FB1FFF7ACFF4046BDE8F0810120BDE8F081BDE8F08150A4FF1F64A2FF1F9081FF1F70B5184A92F8283053BB012382F82830154B1021D960996811B959682C
:40348000890899605A2111621026002102EBC10006FA01F5013110290B4C0564F6D158681968A0F114030B440125022222616363A163E0605D6065626560FFF791FEFFF7D4
:4034C00083FF256370BD00BF50A4FF1F64A2FF1F2DE9F0410746264E0337FFF7C3FF27F00307306C0437F26B874238BF0746144634B154F8043C9F4223682CD01C46F7E7D1
:40350000F368B26B02EB030858F8045CC5EB08052B6833B12046FFF7B5FE58F8045CC5EB08052B680BBB6B689F421EDC28461C1DFFF736FEF3686868DB1BF3607369E41B94
:403540003B44C01B2C44736102D02946FFF748FE44F8047C09E00BB161685960616801B10B60A24201D12368F3632046BDE8F08150A4FF1F2DE9F8430446394EFFF772FFB9
:40358000356C3368AC4224BF033424F003050C35AB42334C3ED3236B62689A420FD97368776A013B7360736B4FEAC70803EB080252687262012203F8372057B92AE0013BCF
:4035C0002363FFF701FF236B013323630028E6D020E00F2306EBC302126C95420CD213F1FF33F7D208E094682CB16268954214D9A268002AF7D101330F2B03D806EBC302C5
:40360000526CF6E72846FFF73DFE0028E1D03846FFF7B4FD0020BDE8F883D4F80490336CC5EB09020C339A4238BF4D462046FFF7B7FD736B611998444D454FF00003C8F8DB
:40364000044027606560A360246141F8045C03DAC5EB0900FFF7C4FD3846BDE8F88300BF50A4FF1F08B1FFF785BF704773B50646FFF7F8FF054660B1FFF764FE064B02AC1F
:4036800044F8040D1B683246002198472046FFF767FE284602B070BD9481FF1F4D4B2DE9F04F1A688BB0D169CC69A389984208DBE589854205D32568C31A06954FF0FF36F9
:4036C00013E0A368002B7CD01D88A84279DB5E88864276D35B68401B666880B203EB8005069633F92030B5F90260581C099368D091F818B0A17CB2F92A900BFB01F348461F
:40370000B2F92270B2F92480079394F810A002F0D7FB079B089018462E4D099B2968CA69896B0591069900FB03100490A37C4146039301230293D37E38460193937E52461C
:4037400000935B4602F05CFD731C1AD049F0020002F0B6FB2A680699D369926B38460592079A02FB06160496A27C4146039201220292DA7E01929B7E524600935B4602F0ED
:403780003FFD2B68DB695A7E1B7E9A4215D9B9F1020F12D089F0040002F092FB0D4B1B68D869437E827E017EC07E434400FB01810AFB0272384602F00BFC9DF8200002F0ED
:4037C0007FFB044B617C1A68538C0B4453840BB0BDE8F08F6081FF1F044B1B68DB69DB6909B11A7C0A60587C704700BF6081FF1F02230B807047C3699A89914202DBDA8998
:403800008A420FD2986880B1038899420CD342888A4209D3C91A436833F82100C043C0F3C0307047012070470020704738B103888B4202D843888B4201D28068F6E770470B
:403840002DE9F04F384C89B023680646B3F92A80DB690146D869FFF7E9FF002860D005884768751B07EBC506404696F802A002F027FBD4F800C017F83520DCF81CE0DCF820
:4038800038309EF818B0BCF924108146BCF92200059373684FF0010C0493CDF80CA0CDF808C09EF81BC05B46CDF804C09EF81AE0CDF800E002F0A4FC2368DA69537E92F8DC
:4038C00018A00793534520D9B8F1020F1DD092F81BB000F084F8804600F07AF800F0FAF8226817F83550B2F92410B2F92200D269079BD27E0BFB031305FB02020BFB0A113B
:4039000002F066FB404600F0E5F8484602F0D8FA23687178DA69907E5A8C00FB01225A8409B0BDE8F08F00BF6081FF1F38B50C4B02461B680C46DD690146E869FFF776FFA3
:4039400060B103884168D21A01EBC200AB7E407858431CB111F832205343236038BD00BF6081FF1F01230B80704708B5C069FFF75DFF003018BF012008BDC3B2CAB29A1AC8
:4039800092B210B514B2002CBCBF524214B204FB04F2C0F30723C1F307241B1B9BB21CB2090C002CC1EB1041B8BF5B4289B208B2B8BF1CB204FB04230028BCBF494208B29B
:4039C00080B200FB003010BD08B103F051BE704708B502F085FEBDE8084002F087BD08B502F086FEBDE8084002F080BD10B538B309B30AB3B2F90040B1F90030A342A8BF4D
:403A00002346B2F902400380B1F90230A342A8BF2346B2F904404380B1F90430B2F90620A342B8BF23468380B1F906309342B8BF1346C38010BD11460B6803604B684360DB
:403A400010BD68B1038889B20B440380838892B219444388818013444380C3881A44C28070470000024B1B6858849984002070476081FF1F024B1B681A7E187610467047F2
:403A80006081FF1FB0F90220B1F906309A4214DCB1F90220B0F906309A420EDCB0F90020B1F904309A4208DCB0F90400B1F900308342CCBF0020012070470020704708B555
:403AC00002F020FF02F086FFBDE8084003F0D6BC02F052BD02F056BD024B034A1B681A6302F012BD6081FF1F785634FF02F0E8B9034B1B68DA6900B1D8611046704700BF0E
:403B00006081FF1F094B10B41880094B0A461980084B1B68597C084B53F82130D9680C6A01461846234610BC184700BF38A5FF1F28A5FF1F6081FF1F60A5FF1F034B1B6877
:403B4000B3F92A2058851046704700BF6081FF1F70B50B4D00240B4E45F8044B3368702221462846984733680422214606489847064B1D60064B1C70064B1C6070BD00BF87
:403B800074A2FF1F9481FF1F60A5FF1F6081FF1F48A5FF1F24A5FF1F014BD860704700BF6081FF1F2DE9F3410446042016461F460D4602F085F9124B80461B686846DA6CBB
:403BC0001B6D14441D4416441F44ADF80040ADF80460ADF80250ADF8067003F0CFFB28B9404602F06DF902B0BDE8F0813B4632462946204602F0ECF903F0FEFAEFE700BF5E
:403C00006081FF1FB0F90630B0F90420B0F90210B0F90000FFF7C6BF002110B50846FFF721FFBDE8104043F6FF7302491A460846FFF7B8BF01C0FFFF024BDA6FD867426074
:403C4000704700BF74A2FF1F10B5094C23686BB901232360FCF7C4FFFCF7D4FF2046BDE81040044B40F8803FFFF7E6BF10BD00BF74A2FF1F513B000070B5FFF7E5FF2F4BAD
:403C80002E222F4C2F4D1A70FCF7A6FF2E4B04F10C0123672B681A1DDA6303F10802A2615A7C9B631B64294B53F82200C3681B6B9847274B6366EB6823622B680833A361E5
:403CC00001232377E37703F0E1FC032384F86830204BE064606F6363A36302F04DFCA86802F050FC1C4A1D4B1A6002F0A9FB054602F068FD064602F06BFD06B140B902F007
:403D000055FD064602F055FD0146304602F054FD00210846FFF7F6FE03F002FCA36F43B1A36F33B11B6803B19847A36F5B68A367F6E70B4B01221A70284670BD19A5FF1F0F
:403D400074A2FF1F6081FF1FF407010060A5FF1FEC070100785634FF2808010058A5FF1F40A5FF1F002809DC054B53F8200020B1C3681B681BB10068F9E7704700207047C4
:403D800060A5FF1FFFF7CABAF8B51C1E06460D46174601DD0020F8BD1C20FFF799FB0028F8D00DB1056109E0084B53F8241029B10B680BB11946FBE70B6903610023836013
:403DC00084618782C66003604360F8BD60A5FF1F81690A4A52F821309842036804D142F821300BB100225A60426802B11360036803B15A60002303604360704760A5FF1F0F
:403E000030B508B9012030BD8469002CFADC1B4B1A789442A4BF01221A70194A52F8243015461BB942F82400184630BD5A680AB11346FBE7C2681268D9680968914203DD67
:403E40001B68002BF8D1DDE709D1818A012906D1196821B10B46C96809688A42F8DD5A6812B11060426001E045F824005860984208BF00230360002030BD00BF11A5FF1FE2
:403E800060A5FF1F38B51D46FFF77EFF044648B1FFF7B6FFE3681B6823B9034B16351B6843F82540204638BD6081FF1F2DE9F04F054685B000287FD003F0A2FE404C0746B6
:403EC0002368A146B3F9228003F082FE226886B2938C9B1B93842B78002B61D047F6FF71284603F0F5FE01468246284603F01AFF2268938D03F00303012B04D0022B04D1B3
:403F000090FBF3F302E0034600E00023518C1FFA80FBCB1A9BB219B25184ADF80810B2F924200BF1FF310B44ADF80C30ADF80A20BBB2013A1A44ADF80E20514602AA28463E
:403F4000019303F01FFF2268BDF80A1028469184514600F077FE2A5C05EB000E0A2A019B01D00D2A12D12268918D01F00301013901298ABF118CA2F8228051849EF80010E7
:403F80000A290AD1918C0B44938406E0BDF80800D9F800308344A3F822B09EF8003043B923689A8C16449A8D9E8422F003029A8502E00EF101058EE705B0BDE8F08F00BF58
:403FC0006081FF1F024B1B6859849A84FFF76EBF6081FF1F2DE9F04F1F4687B0002301900C4616460293039303F00AFEDDF80490824624B12068616804AB03C302E004A802
:40400000FFF7E2FC16F00C0802D1BDF9124031E03C4600258CB12146019803F059FE0146241A019800F00EFE019B01351844019001A803F085FC0028ECD0B8F1080F05D009
:40404000B8F10C0F08D0B8F1040F12D1BDF916400AFB154401340DE0BDF91220BDF9163002249B1A01330AFB153595FBF4F5AC1800E00024DFF840B1CDF80490002506F0BA
:404080000306002F7BD03946019803F021FE014680463F1A019803F045FE012E0FD0022E03D086B9BDF910500DE0BDF91050BDF914305B1B1B1A93FBF6F31D4403E0BDF99F
:4040C00014502D1A0135DBF8001023B201382AB28B842844ADF80A300AF1FF334A842344ADF80820ADF80C0002AA41460198ADF80E3003F047FE2F4B1B7873B3DBF80030BB
:404100005B8D9A0729D4019B99450CD1BDF90A30BDF912108B4206DD013BBDF91420BDF91000FFF73FFDBDF90820BDF91000824206DDBDF90E30013ABDF90A10FFF732FD9D
:40414000BDF90C00BDF91420904206DABDF90E30BDF90A100130FFF725FD4146019800F071FD019B0DF11808184448F8140D03F047FD0444404603F0E3FB002881D00D4B38
:404180001B78A3B10C4B1B685B8D9B070FD4019B99450CD0BDF90E10BDF91630994206DABDF914200131BDF91000FFF7FBFC07B0BDE8F08F04A3FF1F6081FF1F2DE9F34138
:4041C0000C46174698460646C0B169B1084603F0C5FA054648B102462146684603F0E0FB684603F0BBFA00E00D46304643463A462146FFF7EFFE284603F0B0FA02B0BDE838
:40420000F08147F6FF73FFF7D9BFF8B505460E46174600243A463146284603F0CFFC10B105440134F6E72046F8BD00002DE9F04F99468BB000230C460292089309930746AD
:40424000002800F0E080B1F90430B1F900A00193CAEB030301330093B1F90260B1F9065003F0CEFC029B834613F00C081BD04A4600993846FFF7C9FFB8F1080F05D0B8F1B4
:404280000C0F07D0B8F1040F0DD16E1C00FB1B6006B208E0AB1B013300FB1B30022390FBF3F0064436B2204603F058FA804688B1BDF804300246214606A8ADF818A0ADF8DB
:4042C0001A60ADF81C30ADF81E5003F069FB06A803F044FA3D461FFA8BF30393013B04934A460099284603F037FCBDF804201FFA86FBADF82420049A01465A4405902846E8
:40430000ADF82260ADF820A0ADF8262003F00AFD029B03F00306012E059B11D0022E02D09EB922880FE0B4F90010B4F90420521A121A013292FBF6F00844ADF8200004E010
:40434000A2880132121AADF82020194608AA284603F018FD2D4B1B7873B32D4B1B685B8D9A0729D4BD420CD1BDF92230B4F902108B4206DD013BB4F90420B4F90000FFF793
:4043800011FCBDF92020B4F90000824206DDBDF92630013ABDF92210FFF704FC1C4BB4F904201B68B3F92200904205DCBDF92630BDF92210FFF7F6FB28464A46009903F0E0
:4043C000FDFB039B054403EB0B062B7836B2002B86D10E4B1B789BB10D4B1B685B8D9B070ED4AF420CD0BDF92610B4F90630994206DAB4F904200131B4F90000FFF7D2FB89
:40440000404603F0ABF90BB0BDE8F08F04A3FF1F6081FF1F2DE9F04F85B00E9D81460C4692469B4615B9FFF7C9FE39E019B9029103910D4615E00868496802AB03C31A4AD8
:4044400002AB03CB10602046516003F087F9054638B102462146684603F0A2FA684603F07DF9124E4FF000083368114CC3F814800E9B276802A823605B6898475B46524662
:4044800002A94846FFF7A6FD284603F067F9336817B1C3F8148002E003F108025A61276005B0BDE8F08F00BF6CA5FF1F6081FF1F1CA5FF1F2DE9F041D0F80C8086B00446D5
:4044C00000200E461746FFF711FB0546B8F1000F05D098F8043013B140F0020001E025F00200FFF703FB216969B101206388228803900290E0680190A06800900C68304691
:404500003946A0471FE0DFF85080124BD8F8002021461B68527CE0689847E18820B9012904BFD8F80030986B638822880590A0680490A08802910121039001910091304642
:40454000394601F05DFE284606B0BDE8F041FFF7CDBA00BF6481FF1F6081FF1F114B73B51B680646DC6C1D6D03880C44013B2344ADF8043043881544013B2B446846ADF89A
:404580000040ADF80250ADF8063002F0F7FE38B12A4621463046FFF78DFF02F02DFEF6E702B070BD6081FF1F2DE9F0430C681D68DFF898E0254405F1FF3C1568DEF800E014
:4045C0002F46BEF90A800568DDF81C902F444445D9F8006007F1FF350BDAC1F800800899C4EB0804614321F003010E4419680C1B1C60BEF90E10C1EB0C010029C2BF1C6859
:40460000611A19601B68002B02DC0120BDE8F083BEF90C30EB1A002BC2BF1168CB1A13600168BEF90830994208DA5B1A116806EB8306C91A116001680B4403601368002BBA
:40464000E3DDC9F800600020BDE8F0836081FF1F2DE9F04F89B0049105920693039002F047F8129B059E0793B60007AB07460093019606AB05AA04A903A8FFF795FF58BBED
:404680000446DFF85C80DFF85C90069B9C4220DADDF81CA00025059B9D4215DA5AF8250001F016FFD9F80030049A5B7C039958F823E02944DEF80C302244D3F818B00346FA
:4046C0007046D8470135E6E7079B013433440793DBE73846FFF700FA09B0BDE8F08F00BF60A5FF1F6081FF1F2DE9F04F95B00F920E93239A229B109103EB42035FFA83FA0C
:404700001190FFF76CF91E9B209A1393B04C1F9B0C9043EA020623680F9D587C02F03EF8AB00012E0790A346069340F0DF802368587C02F02BF8219B834240F066810AF022
:404740000209A44F5FFA89F9DBF80000109BB0F90A100E9ACB1A9342DDF84C8003DD0C98FFF7B8F9D6E1002B0ADD10910F995943D31A08EB8108002BCDF84C800E93EEDDB2
:40478000B0F90E3010998B42E9DB0E9C119E0A19013AD31A002BC8BFE31AB0F90840C8BF0E93A31B002B0F9D05DD2646139AED1A02EB83021392B0F90C309E42CFDCAA198B
:4047C000013A9342BCBF9D1B0135002DC7DD824B1B7883B100230593139B2A460493069B30460393202302930123019300930E9B01F006FD8EE10793139BB9F1000F0BD0B3
:40480000002453F8242002F07F42B2F17F4F0CD10134A542F5D108E04C4653F8242012F07F4F02D10134A542F7D1ACB10493069B079A0393202302930123059201930093CC
:4048400030462246109901F0DBFC139B264403EB840313932D1B39E01A1DBAF1020F13921C681BD0BAF1030F0BD0BAF1010F17D1C4F3074204F0FF23240643EA1424144317
:404880000EE0C4F30743220643EA122204F47F43E443134304F07F441C4301E084F07F44220EFF2A10D0A74204D02046089201F069FE089AD243494F24F07F433F68D2B27D
:4048C00010993046B84727460136013D002D93DC109B013310930F9B08EB830313930E9B013B0E93002B7FF42FAF38E70023109F384A08930E9B08999942BFF630AF209B4D
:40490000FB180A93013B0993314B09981B68B3F90A10814270DCB3F90E309F426CDC139B119D0D931F9B4FF0000B1D441F9BEB1A0B930F9B9B455FDA0D9BBAF1020F53F837
:404940002B401BD0BAF1030F0BD0BAF1010F17D1C4F3074104F0FF23240643EA14240C430EE0C4F30743210643EA112104F47F43E4430B4304F07F441C4301E084F07F44E1
:40498000A2424FEA146602D0204601F0FBFDFF2E2CD05FFA86F81EB36FEA0808B9465FFA88F80B9B0793079B9D420ADD0B4B42461B6849461E4607982346B047079B01335C
:4049C000F0E7099B09F101094B45EADA0EE000BF6081FF1F785634FF48A5FF1F7081FF1F099B6A1E39460B9801F0F2FA1F9B0BF1010B1D44224699E7139B06990A9F0B44A2
:404A00001393089B0133089374E7069B0FAA019313AB009310A90EAB11A8FFF7C5FD002878D106463D4DDFF8FC800E9B9E42BFF696AE139BDFF8F090089300270F9B9F4273
:404A400062DA089BBAF1020F53F827401BD0BAF1030F0BD0BAF1010F17D1C4F3074204F0FF23240643EA142414430EE0C4F30743220643EA122204F47F43E443134304F024
:404A80007F441C4301E084F07F44254B1B7893B1079B20469847DBF80030109A5B7C119958F823E03244DEF80C3039449C6903467046A04726E0230EFF2B23D0A54204D00E
:404AC0002046099301F05EFD099BDAB25BB1D2431099119824F07F43D2B231443844D9F80050A8470DE0DBF8003011995A7CDB6B58F822001B68C26839449569109A3244FA
:404B0000A8472546013799E7139B069A0136134413938AE715B0BDE8F08F00BF785634FF48A5FF1F60A5FF1F7081FF1F10B5002486B005940494064C03940B9C02940A9C6E
:404B40000194089C0094FFF7CFFD06B010BD00BF8D4C000010B5012486B005940494064C03940B9C02940A9C0194089C0094FFF7BBFD06B010BD00BFA94D00002DE9F04174
:404B80000F461D460646904601F0B4FE0B4B42461C6801462846A04701F09AFC084B31461B685A7C074B53F822403A46E3689D690346AC462046BDE8F04160478881FF1FBB
:404BC0006081FF1F60A5FF1FF7B50F4C2568EC6C2D6D26186F1814441D446846ADF80060ADF80440ADF80270ADF8065002F0C6FB40B12B4622463946304601F0E9F902F0AA
:404C0000FBFAF5E703B0F0BD6081FF1F024B1A6802B9186000F032B808A3FF1FF8B5084E0468336805461B6820469847336807465B6820469847204428603846F8BD00BFB4
:404C400058A5FF1FF8B506460D46064F00243DB13B6830465B689847013D06440444F6E72046F8BD58A5FF1F0078704701207047012070470170012070470000024B1B68D0
:404C800003B11847704700BF68A3FF1F70470000074A00F01F01C0F3C423D35C525CC0F3451003EB0243034A105C03EB00207047180C0100D80B0100074AC1B2C0F3074330
:404CC000D35C525CC0F3072003EBC223034A105C03EB4010704700BFD8090100D80801004FF6FF7070470000F0B5DFF854E00646DEF800E00D4614461F46BEF1000F03D03A
:404D0000F446BDE8F04060470B490C4856F8042B013CC2F307435FFA82FECB5C11F80EE0C2F30722825C03EBCE2303EB42132B803D44EBD1F0BD00BFD8090100D808010070
:404D400070A3FF1FF0B5154E864676680F4614461D461EB1B446BDE8F0406047501E02F1804103FB00E0013907EB81010C4E0D4F0288013C02F01F0316F803E04FEAD2239B
:404D8000F35CC2F34512BA5C03EB0E4303EB022341F80439A0EB0500EAD1F0BD70A3FF1F180C0100D80B0100C343C0F3074203F07F431A43030403F47F03134300F47F40EB
:404DC00018437047104670474068801A01387047084670470068401A0138704710B48468D4F8F840A44610BC60478368D3F8F4301847F7B5164604460D468768FFF7F5FFE3
:404E00000190019ABB6A2946534020463246FFF7E5FF03B0F0BD13B584680092D4F8F040A04702B010BD13B584680093D4F8F0400B46A04702B010BD10B48468D4F8F040B9
:404E4000A44610BC604730B48468D4F8EC40A44630BC60477047000073B5079E84680C4D76B1286888B906980090D4F8A8602046B047D4F8A8302B60064BC4F8A83004E078
:404E80002B6813B1C4F8A8302E6002B070BD00BF78A3FF1F554E0000026CD0F8DC3090691847026CD0F8E030906918472DE9F34791468A4698460A9C85680B9F00942846B3
:404EC000D5F8A860B0473946C9EB0404CAEB0806621C286C06FB0222D5F8E430806902B0BDE8F04718472DE9F34791468A4698460A9C85680B9F00942846D5F8A860B0471A
:404F00003946C9EB0404CAEB0806621C286C06FB0222D5F8E830806902B0BDE8F04718470139172928D8DFE801F01427272727272727270E101219290C2727272727272378
:404F40001E250F4870470F4870470F4870470F48704703689B68D3F80401704703689B68D3F8FC00704703689B68D3F80001704707487047074870470020704706487047FC
:404F8000535300003F5300002B530000D152000035520000594E000069530000013980680D2923D8DFE801F0090B0D0F2222221125070713181D0120704700687047406862
:404FC000704780687047C0687047806B704788B1406B00F00100704760B1406BC0F34000704738B1406BC0F3800070474FF0FF30704700207047836801290CBF586C0020AA
:405000007047826800230B804B801368013B8B805368013BCB807047F0B5104C91B06D46264607460FCE0FC596E80F00203485E80F000FCC08AD0FC594E80F0085E80F0074
:405040007B6B10AA02EB830353F8402C53F8203CC7F80821C7F80C3111B0F0BD5008010007B580698DE806006A460321FBF714FE03B05DF804FB08467047084670470846BD
:4050800070471046704710467047104670474068801A013870470068401A013870470068401A013870474068801A013870474068801A013870470068401A013870472DE950
:4050C000F34184689846E38C0E469B0717462ED5D4F80831204698470546D4F80C313A46314620469847A36922699D42D4BF002301239542B8BF43F0010362690646904255
:40510000B8BF43F0010313B9E36998420ADD62682368013A00920022D4F8A870013B11462046B847D4F8AC303246294601E0D4F8AC302046984741462046D4F8A43002B02C
:40514000BDE8F0411847F7B584680E46E38C17469B0743D5D4F8083120469847D4F80C31314605463A4620469847D4F8983006461BB10022012120469847A36922699D4203
:40518000D4BF002301239542B8BF43F0010362699642B8BF43F0010313B9E3699E420ADD62682368013A00920022D4F8A870013B11462046B8472946D4F8AC30324620464B
:4051C0009847D4F8A03020469847D4F8983005467BB101220021204698470AE0D4F8AC30204698472046D4F8A03003B0BDE8F0401847284603B0F0BD38B5856804469DB953
:405200004FF4BE70FEF764F9084B4FF4BE721B68A06029469847A3680222DA8401221A62034A1C64C3F8102138BD00BF9481FF1F1950000070B506460D461446FFF7DCFFF0
:40524000B368002B3BD0262D02D0272D16D070BD9A6B102A02D0122A08D070BD184AC3F8DC40C3F8B820C3F8B42070BD154AC3F8E040C3F8BC20C3F8C02070BD9A6B102A9F
:4052800002D0122A0ED070BD3CB10F4AC3F8E440C3F8CC20C3F8C82070BDC3F8CC40C3F8C84070BD3CB1094AC3F8E840C3F8D020C3F8D42070BDC3F8D040C3F8D44070BD11
:4052C000994E0000A34E0000AD4E0000E74E000070B50646FFF790FF4FF4FA70B568FEF7F7F8A866B0FA80F4A86B2B680730C0105843FEF7EDF8002200284FF00101E866DB
:40530000B0694FEA541408BF0124FBF7C5FCD5F810310443284698472846D5F8B0309847002CD4BF0020012070BD70B506460D461446FFF761FFB3681D605C6070BD70B531
:4053400006460D461446FFF757FFB3689D60DC6070BD10B50446FFF74FFFA06900220621BDE81040FBF798BC10B50446FFF744FFA06900220521BDE81040FBF78DBC38B5D1
:405380000C460546FFF738FF2268AB68DA6262681A63A2685A63520707D51A68596883E806009A68D968DA609960A2899A84226912B122EAE2721A6238BD2DE9F0410446E4
:4053C00088461E461746FFF717FFA5686822414605F58A7003F0F6FF2046B8472046B04723699B689847A862BDE8F0810B0A80F8713080F87210D0F8203102217130184764
:405400002DE9F04115460446806E0E460021A5B1034636F8022B0131170AFA2903F8027B427007D1D4F820314FF4FA71A06E9847A36E0021013D1846E9E731B1D4F8203156
:40544000A06E4900BDE8F0411847BDE8F08108B5D0F8B830984708BD89B2FFF7C7BF00002DE9F04F3E4E82468568306885B0007C884610F0010F14469946A3EB01003DD030
:4054800043000393471C0E9B9C4266DCD5F8CCB0EE6EBBF1000F01D1C34607E08DE850004B46224641465046D8470DE0CB450ADC5946D5F8F4302246504698470BF1010B73
:4054C00026F8020BF2E7EE6E039AB31E1644B34205D0A96A33F8022F4A401A80F7E7009422464B4641462846D5F8A860B0473A46E96E2846FFF784FF0134C4E70E9FBC1ADA
:40550000671C00FB07770E980090D5F8A8402846A0473368AE6EDB6B1C680123C4F3072906EB030AE4B2C7B1B846F92F28BF4FF0F9084FEA48013BB9D5F820315046984741
:40554000C8EB07070023EEE7334672189342F3D083F8019003F8024FF8E705B0BDE8F08F6081FF1F2DE9F04F8FB00393836805900993199B0691082B08920CD8199A4FF490
:405580008B73D340DB0706D5984B1B681B7C03F00303022B10D0069B1C9A18989918089A039B0244013A0092099ACB18D2F8A840013B089A0998A047039B1C9A013B0D9341
:4055C000069B089F13440493049A0D9B13440C93089B189AFB1A9A4240F35382199B013B0F2B00F24882DFE813F01000C10046024801460246024602D80146024602460250
:4056000046024602460246024102059B9C681D9B5B680B93754B1B681B7C03F00303022B22D0032B76D0012B74D01D9B039E1C9DDDF86CB0B3F80090BDF82CA04FF08008EE
:405640009BF8002048FA05F31A4214BF5146494601352046FFF7CAFE082D04BF0BF1010B0025013EECD106E21B9B00250A932B46DDF810B0D4F86CA0DDF87080CDF81CB0D9
:405680000A9A92F80090802242FA08F219EA02090DD01BB9D4F86CA0DDF81CB0BDF82C300135AAF800300AF1020A012313E0012B10D1079B0097013B3A4659462046D4F812
:4056C000A860B0472A46E16E2046FFF799FE4D464B4600E04B46079A08F101080132B8F1080F079208BF0A9A039904BF01320A92049A08BF4FF000080A4407999142BFD19F
:40570000002D00F0B8810097D4F8A8600C9B3A465946A5E1039B049A1C9DDDF86C80079303EB020A4FF0800B079B98F80020C3EB0A094BFA05F31A420DD0D4F8F4303A464F
:40574000494605989847A36A3A46434049460598D4F8F860B0470135079B082D04BF08F101080025013B0793DED184E1059B9C681D9B002B00F07F811B9B93F800B01B4B18
:405780001B681B7C13F003030FD0022B40F07381049B00260A931B9BD4F86CA0DDF870900B93DDF81080324645E01C9D039EDDF86C904FF0C008C5F103035A00C2F106032D
:4057C00048FA03F303EA0B03D3401D9A013532F823102046FFF70AFE042D02BF99F801B0002509F10109013EE5D144E16081FF1F1AB9D4F86CA0CDF82880079A1D9B013697
:4058000053F822300AF1020A2AF8023C012209F10109B9F1040F08F1010806D10B9B4FF0000993F801B001330B93049B03990B44984500F0A680C9F103056D00C5F1060340
:40584000C02141FA03F303EA0B03EB400793CFD1012A10D1009708F1FF333A460A992046D4F8A850A8473246E16E2046FFF7C8FD079E3246CBE7079AC9E7059B9C681D9B48
:40588000002B00F0F8801B9B93F800B07E4B1B681B7C13F003030FD0022B40F0EC80049B00260A931B9BD4F86CA0DDF870900B93DDF81080324642E01C9D039EDDF86C9043
:4058C0004FF0F008C5F101039A00C2F1040348FA03F303EA0B03D3401D9A013532F823102046FFF783FD022D02BF99F801B0002509F10109013EE5D1BDE01AB9D4F86CA05F
:40590000CDF82880079A1D9B013653F822300AF1020A2AF8023C012209F10109B9F1020F08F1010806D10B9B4FF0000993F801B001330B93039B04990B44984521D0C9F19D
:405940000105AD00C5F10403F02141FA03F303EA0B03EB400793D0D1012A10D1009708F1FF333A460A992046D4F8A850A8473246E16E2046FFF744FD079E3246CCE7079A35
:40598000CAE7002E77D000973A46D4F8A8500C9B0A992046A847324665E0059B9C681D9B002B68D0384B1B681B7C13F003030FD0022B60D1DDF818A0039A00255244D4F837
:4059C0006C80DDF86CB0CDF81CA02B460A9224E01B9D039B1B9A5B1B1344002B4BDD15F8013B1D9A204632F82310FFF7FFFCF0E71BB9D4F86C80DDF81CA01D9B013553F82C
:405A0000293008F1020828F8023C0123079A0132079207990A9A914219D01BF8019BB9F1000FE5D1012B10D1079B0097013B3A4651462046D4F8A860B0472A46E16E20460E
:405A4000FFF7DEFC4D464B46E0E74B46DEE70D9B069A13447DB13A4651460097D4F8A8602046B0472A46E16E204602E0039A1B990998FFF7C5FC1B9B1A9A013713441B9312
:405A8000A6E50FB0BDE8F08F6081FF1F10B50446FFF7B2FBA468104B0821C4F8EC300F4B2046C4F8F0300E4BC4F8F4300D4BC4F8F8300D4BC4F8A0300C4BC4F8A430D4F8B7
:405AC000CC30C4F80431D4F8943098471023A363074B636410BD00BF655500006154000047510000BF5000004F54000059540000600C01002DE9F04104460E461546D0F891
:405B00008C302A219847E16AD4F8903031442046C1F30F219847E16AB7B23944D4F890302046C9B29847E16AD4F8903031442046C1F30F219847E16AD4F89030394420465E
:405B4000C9B29847D4F88C3020462B219847216BD4F8903029442046C1F30F219847216BAEB23144D4F890302046C9B29847216BD4F8903029442046C1F30F219847216B1D
:405B8000D4F8903031442046C9B29847D4F88C302046BDE8F0412C2118472DE9F041044688461F461646D0F88C302A21069D9847E16AD4F8903041442046C1F30F219847BE
:405BC000E16AD4F8903041442046C9B29847E16AD4F8903039442046C1F30F219847E16AD4F8903039442046C9B29847D4F88C3020462B219847216BD4F8903031442046EC
:405C0000C1F30F219847216BD4F8903031442046C9B29847216BD4F8903029442046C1F30F219847216BD4F8903029442046C9B29847D4F88C302046BDE8F0412C211847F1
:405C400013B504466B460D4A1068516803C3D4F88C302046362198472046636B02AAA18C134413F8083C21F0E0011943D4F8903089B202B0BDE81040184700BFC408010095
:405C800013B50446D0F814312E209847216AD4F83031684603319847236A0DEB03021DF803305078DB088008DB0243EA4013907843EAD00002B010BD1FB50446D0F83431EE
:405CC0002E209847216AD4F85031684602319847226A0DEB42035B88C3F3C4005B1103F4FC6303433DF81200000200F47840184304B010BD70B505460C46D0F81431080AFF
:405D00009847D5F81431E0B2BDE870401847D0F8343108461847D0F81831C8B21847D0F83831084618470000082902D0102905D07047064BC0F88C30054B03E0054BC0F8C2
:405D40008C30054BC0F89030704700BFF55C0000175D00000F5D00001F5D0000F0B585B00A9F8568BC1A581A0097013400FB0444D5F8A87028460B9EB847D5F814312E205A
:405D80009847D5F83031296A02A89847D5F83031032102A898479DF80930013C4FEA93029DF808304FEAD3034FEAC32343EA42139DF80A2043EAD20326F8023BE6D105B001
:405DC000F0BDF0B587B00C9F8568BC1A581A0097013400FB0444D5F8A87028460D9EB847D5F834312E209847D5F85031296A02A89847D5F85031022102A89847BDF80A307C
:405E0000013CC3F3C4024FEA631303F4FC6343EA0203BDF808204FEA022222F4FF6243EA020326F8023BE4D107B0F0BD10B50446FFF7E2F9A368114A0021C3F8AC20104AD3
:405E4000C3F8BC10C3F8A8200E4AC3F8D010C3F8B0200D4AC3F8B8200C4A10685268C3F8B400C3F8C820DA8C094822F00302DA84084AC3F8CC00C3F8942010BDF55A000086
:405E80009B5B0000415C0000815C00007881FF1F5D5D0000295D000070B5084B1B681A7C82EA0001490705D59C6BD96B25680E6826600D601874104670BD00BF6081FF1FE5
:405EC000014B1B689B6818478081FF1F0A46154B30B41B680446B3F90A10914220DCB3F90E108A421CDCB3F90810814218DCB3F90C10884214DC197C587C11F0010F0A4904
:405F000051F8200004D0C368214630BCDB691847C168DB6B8D691B682146AC4630BC604730BC70476081FF1F60A5FF1F114B30B41C680D46B4F90A308B4219DCB4F90E30BF
:405F4000994215DCB4F90810B4F90C308142B8BF01469342A8BF1346994209DC607C064A52F82000C26894682A46A44630BC604730BC70476081FF1F60A5FF1F124B30B422
:405F80001C68B4F9083083421BDCB4F90C30984217DCB4F90A309942B8BF1946B4F90E309342A8BF134699420BDC084A647C52F82440E268D5680A46AC460146204630BCEA
:405FC000604730BC704700BF6081FF1F60A5FF1F73B5134C2468B4F90850B4F90C608542B8BF05469642A8BF1646AE4215DBB4F90A208A42B8BF0A46B4F90E108B42A8BFD8
:406000000B469A4209DC607C064951F82000C16800930C6933462946A04702B070BD00BF6081FF1F60A5FF1F2DE9F04F8FB0189DDFF8C8E10295199DDEF800E008951B9DD9
:40604000079003950C4617460193DDF868A01C9EDDF874B01E9DBEF1000F02D0DEF8004054E0029B089A1343012B54D1614B1868B0F90A20531A002B0ADD0199C3EB010ECE
:40608000BEF1000F40F3B280039901FB036602E00A46DDF804E0019B1C44B0F90E30013CE41A002C05DDC4EB0E0EBEF1000F40F39D80079BB0F90C103B44013B5B1A002B0A
:4060C000C8BFFF1A079B591BB0F90830994209DA5B1A1D44FF1A23F0070306EBE506194405F00705002F40F38180407C424B039C53F82000C368CDF874B01C951B961A942B
:40610000CDF864A0CDF860E05C683B46A4460FB0BDE8F04F60477546CAF108030B93029BDFF8D090013BCDF814E00D93059B019A93425BDA089BE3180993013B0A93D9F867
:4061400000300A99B3F90A208A4248DCB3F90E309C4244DC079B4FF0000806960093CDF81080049BBB423ADAB8F1000F05D1069B4FF008081D78013306930B9BCAEB080836
:4061800045FA03F313F0FF0105FA0AF5EDB204D1D9F80020127C920719D4D9F80020D26B10680C90BBF1000F02D05BF8213000E0DBB2136000990D9A0A9B0A4400982146AB
:4061C000FFF706FFD9F800300C9ADB6B1A60049B029A01330493009B13440093C1E7059B099C01330593039B1E449FE70FB0BDE8F08F00BF6081FF1F60A5FF1F1CA5FF1FD0
:406200002DE9F04F8FB0189CDFF814E20294199C1D9E0894DEF800E01B9C054603940091904601931A9F1C9C0496BEF1000F02D0DEF800407AE0029B089A1343012B7AD146
:40624000754B01991868009BB0F90A20D31A002B07DDC91A002940F3DB80039E06FB034400E0009A9DE848001E44B0F90E30013EF61A002E03DD891B002940F3C98005EB31
:406280000803B0F90C60013B9B1BB0F90860002BC8BFC3EB0808B54231DA731B082FC3EB080827D00DDC022F14D0042F1AD0012F26D123F0070604EBE304354403F0070321
:4062C0001EE0182F18D0202F16D0102F18D104EB430413E023F0030604EBA304354403F003030DE023F0010604EB6304354403F0010305E01C4401E004EB830435460023C0
:40630000B8F1000F40F38480467C444850F82600049ED0F80CE01C93039B18911A93294643461D961B941997DEF80440A4460FB0BDE8F04F6047F346C7F108030B93029B2A
:40634000DFF8D4A0013BCDF818E00D93069B019A93425DDA009A089B13440993013B0A93DAF800300A99B3F90A208A4248DCB3F90E30009A9A4243DC2E464FF000090794A7
:40638000CDF81490059B43453ADAB9F1000F06D1079B4FF0080993F800B0013307930B9B0BFA07F24BFA03F313F0FF015FFA82FBC7EB090904D1DAF80020127C920717D458
:4063C000DAF80020D26B10680C90049810B150F8213000E0DBB213600D9A0A9B324400993046FFF7F5FDDAF800300C9ADB6B1A60059B029A01330593334613441E46C1E77F
:40640000069B01330693039B1C44099B00939DE70FB0BDE8F08F00BF6081FF1F60A5FF1F1CA5FF1F044B1968044B4A7C083153F82200C3681B6B18476081FF1F60A5FF1FD5
:4064400007B5FFF7EFFF00F0B1F8002839D1FDF789FC019038B900F0FFF81B4B1A681B4B9A420CD12AE0C3680C215B6A01A89847034628B3019898470028ECD021E0002078
:40648000FDF770FC0190C8B1002001F0CFFC0420FFF716FD43F6FF7300211A460846FFF797FD0020FFF70CFD019B0E21DB6801A85B6A9847034608B101989847002000E071
:4064C000012003B05DF804FBE8A2FF1F785634FF044B1B685A7C044B53F822301B691B68184700BF6081FF1F60A5FF1F044B1B685A7C044B53F822301B695B68184700BFF7
:406500006081FF1F60A5FF1F044B1B681A7C52074CBF9B6BDB6B1860704700BF6081FF1F08B5064B1B68196B814206D01863FFF7CFFFBDE80840FFF7E7BF08BD6081FF1FFA
:40654000044B1B681A7C52074CBFDB6B9B6B1860704700BF6081FF1F08B5064B1B68596B814206D05863FFF7B3FFBDE80840FFF7E7BF08BD6081FF1F014B1B685B68184787
:406580008081FF1F014B1B681B6818478081FF1F10B5044C2068FCF7C1FE034A00232360136010BD74A5FF1F94A3FF1F38B50A4D2C6864B9094B18688000FCF789FF286092
:4065C00038B10748074B40F8043FFDF735FB002038BD012038BD00BF74A5FF1F8481FF1F94A3FF1F916500002DE9F843044618B387681FB3144D286820B32268B2F5807FC8
:406600001FDC124B00261B689A42A8BF1A469046464509DA57F82600D5F80090FFF758FF49F826000136F3E7094B1B680BB1204698472868BDE8F883BDE8F8833846BDE810
:40664000F8830020BDE8F88374A5FF1F8481FF1F94A3FF1FFFF7C8BF2DE9F74F00F013F91C4E8046B146DFF874A0002444452DDA2046FDF777FB38B33368204693F811B011
:406680005C7400F057F8082804DDD9F8003083F811B019E05AF824301A690F4B9A42F4D0204600F04AF8034600259D42EDDAEFB238460193FFF71AFF39460246204600F0D6
:4066C00041F90135019BF0E70134CFE703B0BDE8F08F00BF6081FF1F480C010060A5FF1F024B1B689B6B1868704700BF6081FF1F024B1B68DB6B1868704700BF6081FF1FE9
:4067000010B50C46FDF72EFB28B1C3682146BDE810409B6A184710BD002801DCFFF7F0BF00207047014608B50020FFF7E9FF20EAE07008BD0821FFF7EFBF0921FFF7ECBF5A
:40674000024B1B68587CFFF7F8BF00BF6081FF1F034B082153F82000C3689B6A184700BF60A5FF1F10B5FDF7FDFA28B1BDE81040C3680221DB6A184710BD0000024B1B68AA
:40678000587CFFF7EFBF00BF6081FF1F024B53F820301B695868704760A5FF1F024B53F820301B691868704760A5FF1F0120FFF7B9BF0220FFF7B6BF014B83E8030070474A
:4067C000A0A3FF1F014B1868704700BFA0A3FF1F014B5868704700BFA0A3FF1F00283BD030F0010329D030F0030328D030F0070327D030F00F0326D030F01F0325D030F0A4
:40680000FF0324D020F4FF7323F001030BB320F47F6323F00F03E3B120F4FF4323F07F03BBB1030C1B04A3B1830C9B049BB110F07F4F0CBF18202020704701207047022043
:40684000704703207047042070470520704708207047102070471220704708B5FFF7BEFF01280FD0831E062B09D9A0F10903072B07D911380F288CBF0020202008BD08202E
:4068800008BD102008BD08B50020FDF76BFA003018BF012008BD0000F7B50446134F144E3B680D465B7C694656F82300C3681B6B9847BDF90030A34215DCBDF904309C4240
:4068C00011DCBDF90230AB420DDCBDF906309D4209DC3B682A465B7C214656F82300C3685B69984700E0002003B0F0BD6081FF1F60A5FF1F08B5FFF7CFFFBDE80840FFF7C7
:40690000F5BD00000D4B10B51C461A68517C0C4A52F8210040B1C36813B11B68042B01D00068F7E7FDF754FA23680022DA6503F108025A61BDE81040FFF774BD6081FF1F6B
:4069400060A5FF1F37B50C461546FDF70BFA019008B901200CE0C36810215B6A01A8984703460028F5D001982A4621469847002003B030BD37B50C461546FDF7F3F901900B
:4069800008B901200CE0C3680B215B6A01A8984703460028F5D001982A4621469847002003B030BD37B50C461546FDF7DBF9019008B901200CE0C3680A215B6A01A89847BD
:4069C00003460028F5D001982A4621469847002003B030BD10B5074C2368186BFFF778FDFFF792FD2368586BFFF772FDBDE81040FFF7A6BD6081FF1F144B70B500241C6018
:406A0000134B14481C60144B144D1C60144B04701C60144B44601C60134B84601C60134B21461C6018222B680C309847104B21461C60104B08221C600F482B6898472B6894
:406A40002146BDE8704008220C481847A4A5FF1F8CA5FF1FA8A3FF1FACA5FF1F9481FF1FB4A5FF1F7CA5FF1F9CA5FF1FA8A5FF1F88A5FF1F80A5FF1FC0A5FF1FB8A5FF1FB0
:406A8000F0B507460C46164685B002AD002F48D03846FCF757FC876A0146BB0701903AD526B13246284600F07BFF02E003C885E8030029462046FCF7E5FF60B317F0010F93
:406AC000019B1CD13EB1B3F90220B6F902309342B8BF134601E0B3F90230B4F902209342B4F9062005DDBDF90A309A4213DB013B03E0BDF90E309A420DDDE3800BE0DF6989
:406B00004FB138462A462146FFF7BAFF3846FCF70FFC076AF4E7019B01A81F6AFCF720FCB4E705B0F0BD2DE9FF4106460F469046002502AC002E35D03046FCF703FC866A84
:406B40000146B207019027D5B8F1000F04D04246204600F025FF02E003C884E8030021463846FCF78FFFB8B1F30705D4BDF80C30012501333B800FE0019BDE6966B12246E5
:406B800039463046FFF7CFFF0028304618BF0125FCF7CEFB066AF1E7019B01A81E6AFCF7DFFBC7E7284604B0BDE8F081F0B505460E46174685B002AC7DB32846FCF7C2FB2B
:406BC000856A0146AA07019021D527B13A46204600F0E6FE02E003C884E8030021463046FCF750FF98B1EB0704D4BDF80830013BB3800CE0019BDD694DB1284622463146D2
:406C0000FFF7D4FF2846FCF793FB056AF4E7019B01A81D6AFCF7A4FBCEE705B0F0BD000073B506460D462846FCF78CFB836A014613F00204019004D101A8FCF791FB2046FD
:406C400012E0304600F08FFE019B01A89C693CB9FCF786FB054B1868431B5842584103E0FCF77EFB2546DEE702B070BD80A5FF1F2DE9FF4106460C4600294CD0FCF762FBF1
:406C800000238461019003622046FCF75BFBC76904AC44F8080D2FB9C66101A8FCF760FB204636E0019B38469D6AFCF74BFB0DF1100805F0080548F8040D75B9836A1A0775
:406CC0000BD5019B01A81F62029BDE61FCF748FB2046FCF745FB40461BE02046FCF740FB4046FCF73DFB3846FCF722FB0390039B1C6A0CB91E620BE02046FCF719FB002D6E
:406D0000F4D1836A1B07F1D5039B1E62019B1C6201A8FCF725FB04B0BDE8F08103460846B3F90220B3F90010FCF78BBE114B30B51C6885B0626C0546BAB11068516802AB42
:406D400003C30D4B186800B9A06CFCF7FBFA04AC02A944F80C0DFFF7E1FF2046FCF700FB02A8294600F0FFFD02A802F01FFA05B030BD00BF6081FF1F7CA5FF1F1FB50E4B68
:406D80001B6893F854200AB10C4811E0986CFCF7D9FA02AC019003C884E8030001A8FCF7DFFA074B196811B12046FFF739FF2046FFF7BCFF04B010BD6081FF1FBCA3FF1F5C
:406DC0007CA5FF1F13B5044600B3FCF7BBFA836A01909B0717D5406A40B10D4B1B689C4204D001F0ABF8019B00225A62204600F053FC04463CB12046FFF7E4FF2046FCF731
:406E000097FA046AF6E701A8FCF7AAFA02B010BDB0A5FF1FB0F90020B0F904309A4208DCB0F90230B0F906008342CCBF0020012070470020704700007FB50D460446164608
:406E4000FCF776FA816A01908B0733D52846FFF7E1FF78B340F601030B40012B2AD02046FCF770FA02AC024601902946204600F097FD2046FFF7CEFFC8B144F22001019B47
:406E80009A6A03F10805114029B1224629462846FCF7ACFD0BE0324394E8030085E803009A62054A138801331380FDF7E7FE01A8FCF756FA04B070BD90A5FF1F2022FFF794
:406EC000BBBFF0B50F4685B01546064648B3FCF739FA836A04AC9B07024644F80C0D03D42046FCF73DFA1CE0394602A800F058FD0028F5D02046FCF733FA2A4602A9304670
:406F0000FFF79AFF304600F0C7FB04464CB120462A4602A9FFF7D5FF2046FCF709FA046AF4E705B0F0BD2DE9FF41804617461D460C4681B30846FCF705FA866A0246B3076D
:406F4000019025D5414602A800F02AFD00B340F601033340012B07D101992B460A6A02A88969FFF7E0FF04E02A4602A92046FFF763FF019BDC695CB1BC4209D020462A4692
:406F800002A9FFF79EFF2046FCF7D2F9046AF2E701A8FCF7E5F904B0BDE8F0812023FFF7C2BF1FB504AB43F8101D1946019000F027FB05B05DF804FB00230B8002884B8031
:406FC00083889B1A8B804288C3889B1ACB807047F0B50F4687B00546002833D0FCF7B2F9866A0190B2072AD503C804ACF30384E8030002D52846FFF7E5FE5FB138687968ED
:4070000002AB03C302A90198FFF788FE02A9204600F0A9FC29462046FFF702FE78B140F601033340012B06D1019B20461A6A9969FFF7B4FF03E021462846FFF73FFF01A80D
:40704000FCF78EF907B0F0BD0021FFF7C1BF00000B4B70B51A680546966C1C4608B9094B1D689564FFF7DEF92846FCF761F92368B0F90020DA64B0F9022030461A6570BD55
:407080006081FF1F94A5FF1F2DE9F74FDDF830A098464C4B05460E461746D3F80090BAF1000F24D1484B1B8833B3484B1B685A1C012A21D99A465046FCF744F9B0F90010D2
:4070C000B0F9022001900D4416441FB9B0F904305F1A0137B8F1000F05D1B0F90630C2EB030808F1010801A8FCF73AF904E0BAF1FF3FE0D14FF0000A0F982C30FCF7B6FAC0
:407100000446002859D0304A0D9B0DF1080B49EA0309138801331380FCF714F90E9B826A03612B4B4BF8080D09EA0303058046803D4446441343013D013E83628580C680C7
:407140005846FCF70DF9234B186848B1FCF7F0F805462046FCF7ECF86B6943616C6100E01C6051462046FFF783FD19F0200F02D02046FFF76DFF19F0010F1FBF164A136876
:407180000133136019F0400F02D0204600F094FA19F0020F0DD02046FCF7D4F8836A009043F0020383625846FCF7DAF82046FFF74BFF01212046FFF7F4FE204603B0BDE82D
:4071C000F08F00BF9CA5FF1F78A5FF1F80A5FF1F9F3F3F0094A5FF1FB4A5FF1F1FB5089C0394079C0294069C019400240094FFF74BFF04B010BD00002DE9FF415D4F3B68EC
:4072000093F85400002800F0B1805B4A136A1446012B03DD013B13620020A7E0D36902AD013302F1140696E80300D36185E8030023B99389ADF80830D38910E0138BD28ADA
