:400000000080002011000000090300000903000008B5044B1A6803F53F5302331A6000F075F900BFFA46004010B5054C237833B9044B13B10448AFF300800123237010BDF1
:400040007881FF1F00000000F08A0000084B10B51BB108480849AFF300800848036803B910BD074B002BFBD0BDE81040184700BF00000000F08A00007C81FF1F0881FF1F6D
:400080000000000030B58BB001F0DCF901F0AAF9124801F0E7F8124801F0DDF8114C08AB2068616803C302AD08340FCC0FC594E8030085E8030002A808F012FD431E002298
:4000C000009202A808A90E2201F09CFC064805211E2201F03BFD0BB030BD00BFDC97000032191A00F48A0000308B000008B562B600F02CFBFFF7C6FF00F026FC18B100F093
:400100002BFC0028F8D101F06DF906487821052201F046FB4FF47A7001F05EFD01F062F9EAE700BF148B000010B50446002000F01BFB204600F0CCFA00F0BEFA10F0010F13
:40014000FAD010BD10B50446012000F00DFB204600F0BEFA00F0B0FA10F0010FFAD010BD70B506460D46012000F0FEFA002408E0305D00F0ADFA00F09FFA10F0010FFAD011
:400180000134AC42F4DB70BDFEE700BFFEE700BF08B50120FFF7C8FF0A2000F013FB3620FFF7C2FF8820FFF7CDFF3A20FFF7BCFF5520FFF7C7FF1120FFF7B6FF2920FFF747
:4001C000B3FFFA2000F0FEFA08BD00BF024A136801331360704700BF78A3FF1F014B1868704700BF78A3FF1F044B1B681844034B1B68C31A002BFADC704700BF78A3FF1FA3
:4002000010B500F083FB002409E0204600F094FB20B92046064900F087FB02E00134042CF3D9042C02D9002000F0CAFA10BD00BFCD01000008B5FFF7E3FF08BD08B50448EA
:400240004FF4005100F09AFC024801F095F808BD9481FF1FE88F000008B5FFF799FF08BD30B5A1B000241B941C941D941E941F9401A82146682208F02BFC15481549224672
:40028000234601F0E5F905462046F0214FF4A07203F032FB2046F0214FF4A07203F044FB02231D9328461BA902F04FF80A4B01930A4B02930A4B04930A4B06930A4B0893F4
:4002C000284601A9094A0A4B02F05DF821B030BD90A4000038A40000290100004501000061010000890100008D010000F92D0000592A0000012904D108B5FFF7ADFF002018
:4003000008BD4FF0FF307047FEE700BF08B5104E104D16E029686B68AC68002204E051F8040B43F8040B0432A242F8D1E868002203E0002143F8041B04328242F9D11035E5
:40034000013E002EE6D108F077FBFFF7CFFEFEE7010000009CAA000008B5124A124B1A60124A136843F40073136000230AE0032B03D80F4A52F8231000E00E490E4A42F867
:40038000231001332F2BF2D90C4B1A780C4B1A70094A0C4B1A6000F0D9F800220A4B1A6008BD00BF0004FA050CED00E014ED00E000000000090300000080FF1FBC760040B4
:4003C0000481FF1F08ED00E00081FF1FFEE700BFF0B40022174611E050F82760F3B226F0FF0608E001EB420511F812406D78A5550132013BDBB2002BF4D101371C2FEBD917
:40040000F0BC70470A4B1B78DBB203F00701094A11701B09013213702022074B1A70022203F693131A704422A3F28A231A707047CF0100496E5800406D51004008B50A46BD
:40044000002108F045FB08BD08B508F01BFB08BD38B50024314B1C80502202331A70032502331D8018232E4A137040F65F1102321180023213702B482B490422FFF7E4FF3C
:4004800002222A4B1A7008224FF040231A7003F500731D70264B1B78DBB226490B70264B1A8041F25122023B1A8019250CE0234B1B7803F0010343EA440404F003044FF4F3
:4004C000F07000F06DF9013D0DB1032CEFD115B90320FFF77BFF1A4B4FF480721A8007221A70002217490A704820023108701A700222033B1A7004220A331A70124A1378BA
:4005000043F007031370013A137843F001031370013A137843F08003137038BD804000408640004000410040940400480043004008010049A14600402242004025420040D9
:400540000440004006400040A243004070B572B6384A137843F00403137000240AE0364963001A1952000A44D068118AFFF766FF0134E4B2082CF2D900240BE02E49A30051
:400580001A1952000A44506C916C0622FFF75CFF0134E4B2002CF1D04FF090402749FFF717FF0A24264B1C70264A137843F0020313701032137843F002031370224D2B7878
:4005C00043F040032B70A2F58632513A137843F0100313701D481E492246FFF735FF1D481D492246FFF730FF1C481D490822FFF72BFF1C481C490822FFF726FF1B481C491C
:400600002246FFF721FF1B4A137843F008031370194E01243470FFF71BFF81233370174B1C70FFF7EFFE164829460E22FFF70CFF70BD00BFE8460040748F0000740000481C
:400640008358004003500140A0430040C051004060040048F05100406C0400482251004078040048425100408004004860510040880400482243004000480040040008401E
:40068000B043004008B500F093F80A4A137843F020031370043A137843F0100313700132137843F01003137000F086F800F068F808BD00BF95640040014B1878704700BF31
:4006C00061640040014B1878704700BF62640040034B1B7813F0040FFAD0024B18707047616400404164004008B501E00A4B1B780A4B1B7813F0200FF8D100F059F8084B69
:400700001A7842F001021A701A7802F0FE021A7000F052F808BD00BF51640040626400409164004008B50F22064B1A70FFF7DCFFFFF7C2FFFFF7C6FF0023034A137001323A
:40074000137008BD856400408164004008B5054B1B7823B9FFF7E6FF0122024B1A70FFF791FF08BD94A1FF1F044A137803F0DF03400100F020001843107070474051004092
:40078000054A137843F0020313701032137843F002031370704700BFA2430040000000000230800803D000BF01380046FCD17047EFF3108072B6704780F31088704700BF60
:4007C00001BE704710B5044605E0084B1868FFF7E7FFA4F50044B4F5004FF6D8034B586800FB04F0FFF7DCFF10BD00BF0C81FF1F70B504460E46074B1D680F2802D900206C
:40080000FFF7DEFF04F00F0455F8240045F8246070BD00BF08ED00E0024A136843F002031360704710E000E008B5FFF7F5FF034A136843F00103136008BD00BF10E000E085
:4008400020F07F40014B1860704700BF14E000E0012805D1054A136843F0040313607047024A136823F004031360704710E000E0024B1868C0F30040704700BF10E000E08D
:4008800010B5FFF7F5FF01280BD107E0054B03EB84035B6803B19847013400E00024042CF4D910BD98A1FF1F0022014B1A60704718E000E008B5002305E00F4A02EB830221
:4008C000002151600133042BF7D90F200B49FFF78FFF0120FFF7BCFF094BDB680948A0FB03308009FFF7ACFFFFF7DEFF4FF40042054B1A6008BD00BF98A1FF1F81080000B4
:400900000C81FF1FD34D621000E100E008B5054B9B6923B9FFF7CEFF0122024B9A61FFF783FF08BD98A1FF1F024B03EB800358685960704798A1FF1F024B03EB8000406862
:40094000704700BF98A1FF1F024B1878C0F34010704700BFF1510040024B1878C0F34000704700BF61510040074B10B55A685C6A01325A605A6B02EBC0014C60002102F8D4
:400980003010586210BD00BF7CA3FF1F10B50E4944680F2301EBC302126C94420A4A03D213F1FF33F6D210BD0F2B0CD81168091B11608168C06801B1486008B1016010BD03
:4009C00002EBC303596410BD7CA3FF1FF8B5274E0546F368B26B013B0818134498420C4605D84B591BB943681D44FFF7CFFFB36B9C420BD954F8043C5B42E718E3582BB96D
:400A00007B6838461D443C46FFF7C0FF0F2306EBC302126C954203D213F1FF33F7D223E00F2B21D8083306EBC30251686019002284E82400A160246140F8045C04F1080086
:400A400001B1486006EBC303A160E260586033680649EA1896F8293032602BB9CB689B1A8A68934288BF8B602846F8BD7CA3FF1F2DE9F74F234F8346B846FE68BC6B013E7F
:400A8000264494E82800A3BB61198E4231D954F805A0BAF1000F2CD07B6B13F83A30012B27D1D8F82C302046D1F8049000930191FFF76CFF0199D8F83420086802EBC002FE
:400AC000546020464A4607F0E8FF009B04EB09019A4508BFD8F83430284604BF5B1BC8F83430FFF773FFBBF1000F01D0584505D24D462C44A642C4D8012000E0002003B072
:400B0000BDE8F08F7CA3FF1F28B1034BDA6B026002B15060D86370477CA3FF1F034B5B6B03EBC00040680830704700BF7CA3FF1F054BDA690132DA615A6B12F8303001333B
:400B400002F83030FFF7EABF7CA3FF1F30B50368094953F8085C4C6B14F83530012B03D9CA690AB1013ACA61013B04F8353000230360184630BD00BF7CA3FF1F024B21F0A2
:400B80000301186059607047B4A1FF1F10B5044660B1074B5B6B03EBC00359684868FFF715FF2046BDE81040FFF7DEBE10BD00BF7CA3FF1F2DE9F041224CE36A3BB9224B59
:400BC0009D685B680835B3FBF5F5023503E023691D1D05EBD305E80000F0F6F8804660B3616B226901EBC0035E68184B08361B68D2003046E76A9847226966631346C4F840
:400C00002C80691E8B4205D2013306EBC30040F8043CF7E706EBC3064FF00008C6F80480636862629B1A2B446360256138463FB1FFF7ACFF4046BDE8F0810120BDE8F0817E
:400C4000BDE8F0817CA3FF1FB4A1FF1F6881FF1F70B5184A92F8283053BB012382F82830154B1021D960996811B95968890899605A2111621026002102EBC10006FA01F571
:400C8000013110290B4C0564F6D158681968A0F114030B440125022222616363A163E0605D6065626560FFF791FEFFF783FF256370BD00BF7CA3FF1FB4A1FF1F2DE9F04182
:400CC0000746264E0337FFF7C3FF27F00307306C0437F26B874238BF0746144634B154F8043C9F4223682CD01C46F7E7F368B26B02EB030858F8045CC5EB08052B6833B118
:400D00002046FFF7B5FE58F8045CC5EB08052B680BBB6B689F421EDC28461C1DFFF736FEF3686868DB1BF3607369E41B3B44C01B2C44736102D02946FFF748FE44F8047C39
:400D400009E00BB161685960616801B10B60A24201D12368F3632046BDE8F0817CA3FF1F08B5FFF775FF0C4A00239918D1F8BC0010B1836800200BE0083B13F1800FF4D1EE
:400D800008E05A689B68904238BF104613B19B68002BF6D10C3808BD7CA3FF1F08B5FFF7DFFF6422B0F5800F88BF90FBF2F0054B8BBF1B6A1B6A5843584398BFB0FBF2F0AB
:400DC00008BD00BF7CA3FF1F2DE9F8430446394EFFF73EFF356C3368AC4224BF033424F003050C35AB42334C3ED3236B62689A420FD97368776A013B7360736B4FEAC708F2
:400E000003EB080252687262012203F8372057B92AE0013B2363FFF7CDFE236B013323630028E6D020E00F2306EBC302126C95420CD213F1FF33F7D208E094682CB162684F
:400E4000954214D9A268002AF7D101330F2B03D806EBC302526CF6E72846FFF709FE0028E1D03846FFF780FD0020BDE8F883D4F80490336CC5EB09020C339A4238BF4D4644
:400E80002046FFF783FD736B611998444D454FF00003C8F8044027606560A360246141F8045C03DAC5EB0900FFF790FD3846BDE8F88300BF7CA3FF1F08B1FFF785BF704780
:400EC00073B50646FFF7F8FF054660B1FFF730FE064B02AC44F8040D1B683246002198472046FFF733FE284602B070BD6C81FF1F4D4B2DE9F04F1A688BB0D169CC69A389A0
:400F0000984208DBE589854205D32568C31A06954FF0FF3613E0A368002B7CD01D88A84279DB5E88864276D35B68401B666880B203EB8005069633F92030B5F90260581CF2
:400F4000099368D091F818B0A17CB2F92A900BFB01F34846B2F92270B2F92480079394F810A001F093FF079B089018462E4D099B2968CA69896B0591069900FB0310049017
:400F8000A37C4146039301230293D37E38460193937E524600935B4602F0EEF8731C1AD049F0020001F072FF2A680699D369926B38460592079A02FB06160496A27C414696
:400FC000039201220292DA7E01929B7E524600935B4602F0D1F82B68DB695A7E1B7E9A4215D9B9F1020F12D089F0040001F04EFF0D4B1B68D869437E827E017EC07E43448F
:4010000000FB01810AFB0272384601F09DFF9DF8200001F03BFF044B617C1A68538C0B4453840BB0BDE8F08F1C81FF1F044B1B68DB69DB6909B11A7C0A60587C704700BF24
:401040001C81FF1F02230B807047C3699A89914202DBDA898A420FD2986880B1038899420CD342888A4209D3C91A436833F82100C043C0F3C0307047012070470020704771
:40108000C3B2CAB29A1A92B210B514B2002CBCBF524214B204FB04F2C0F30723C1F307241B1B9BB21CB2090C002CC1EB1041B8BF5B4289B208B2B8BF1CB204FB04230028DF
:4010C000BCBF494208B280B200FB003010BD08B103F08CBE70470000044BB3F900300360034BB3F900300B60704700BF64A4FF1F54A4FF1F10B538B309B30AB3B2F9004070
:40110000B1F90030A342A8BF2346B2F902400380B1F90230A342A8BF2346B2F904404380B1F90430B2F90620A342B8BF23468380B1F906309342B8BF1346C38010BD11460A
:401140000B6803604B68436010BD68B1038889B20B440380838892B219444388818013444380C3881A44C280704700000C4B10B51C681CB1A047041C18BF012403F072FCC0
:40118000084B00281B6818BF01241BB19847002818BF0124044B1B6803B19847204610BD60A4FF1F88A4FF1F80A4FF1F10B50024FFF7DCFF08B10124FAE7204610BD000074
:4011C000024B1B6858849984002070471C81FF1F024B1B681A7E1876104670471C81FF1FB0F90220B1F906309A4214DCB1F90220B0F906309A420EDCB0F90020B1F9043047
:401200009A4208DCB0F90400B1F900308342CCBF00200120704700207047000008B5034B7022196807F02EFC08BD00BF1C81FF1F08B5034B01467022186807F023FC08BD8B
:401240001C81FF1F08B502F01FFB02F085FBBDE8084003F03DBC02F04BB902F04FB901F015BE0000034B1B68DA6900B1D8611046704700BF1C81FF1F024B1B689A7E987670
:40128000104670471C81FF1F094B10B41880094B0A461980084B1B68597C084B53F82130D9680C6A01461846234610BC184700BF64A4FF1F54A4FF1F1C81FF1F8CA4FF1FEB
:4012C000034B1B68B3F92C2098851046704700BF1C81FF1F034B1B68B3F92A2058851046704700BF1C81FF1F08B50E4B186802F0FFF80D4B186802F001F90120FFF768FF95
:401300000020FFF7DDFF0020FFF7E4FF0020FFF7A6FF064B1868FFF7A5FFBDE808400020FFF7AABF38A2FF1F2481FF1F2881FF1F70B50B4D00240B4E45F8044B33687022FB
:4013400021462846984733680422214606489847064B1D60064B1C70064B1C6070BD00BFC4A1FF1F6C81FF1F8CA4FF1F1C81FF1F74A4FF1F50A4FF1F014BD860704700BF27
:401380001C81FF1F2DE9F3410446042016461F460D4601F07BFD124B80461B686846DA6C1B6D14441D4416441F44ADF80040ADF80460ADF80250ADF8067003F0E1F928B9F7
:4013C000404601F063FD02B0BDE8F0813B4632462946204601F0B8FD03F010F9EFE700BF1C81FF1F002110B50846FFF7E9FEBDE8104043F6FF7302491A460846FFF7C2BF6D
:4014000001C0FFFF024BDA6FD8674260704700BFC4A1FF1F10B5094C23686BB901232360FEF70CFFFEF71CFF2046BDE81040044B40F8803FFFF7E6BF10BD00BFC4A1FF1FB2
:401440003113000070B5FFF7E5FF2F4B2E222F4C2F4D1A70FEF7EEFE2E4B04F10C0123672B681A1DDA6303F10802A2615A7C9B631B64294B53F82200C3681B6B9847274BBA
:401480006366EB6823622B680833A36101232377E37703F0B9FC032384F86830204BE064606F6363A36302F023F8A86802F026F81C4A1D4B1A6001F07FFF054602F07AF9E1
:4014C000064602F07DF906B140B902F063F9064602F063F90146304602F066F900210846FFF7D2FE03F050FBA36F43B1A36F33B11B6803B19847A36F5B68A367F6E70B4BFB
:4015000001221A70284670BD45A4FF1FC4A1FF1F1C81FF1F14A400008CA4FF1F0CA40000785634FF28A4000084A4FF1F6CA4FF1F002809DC054B53F8200020B1C3681B68E0
:401540001BB10068F9E77047002070478CA4FF1FFFF7DABAF8B51C1E06460D46174601DD0020F8BD1C20FFF7A9FB0028F8D00DB1056109E0084B53F8241029B10B680BB1AD
:401580001946FBE70B6903610023836084618782C66003604360F8BD8CA4FF1F81690A4A52F821309842036804D142F821300BB100225A60426802B11360036803B15A6030
:4015C00000230360436070478CA4FF1F30B508B9012030BD8469002CFADC1B4B1A789442A4BF01221A70194A52F8243015461BB942F82400184630BD5A680AB11346FBE7AB
:40160000C2681268D9680968914203DD1B68002BF8D1DDE709D1818A012906D1196821B10B46C96809688A42F8DD5A6812B11060426001E045F824005860984208BF002344
:401640000360002030BD00BF3DA4FF1F8CA4FF1F38B51D46FFF77EFF044648B1FFF7B6FFE3681B6823B9034B16351B6843F82540204638BD1C81FF1F2DE9F04F054685B0EC
:4016800000287FD004F06EF9404C07462368A146B3F9228004F04EF9226886B2938C9B1B93842B78002B61D047F6FF71284604F0C1F901468246284604F0E6F92268938D14
:4016C00003F00303012B04D0022B04D190FBF3F302E0034600E00023518C1FFA80FBCB1A9BB219B25184ADF80810B2F924200BF1FF310B44ADF80C30ADF80A20BBB2013A8E
:401700001A44ADF80E20514602AA2846019304F0EBF92268BDF80A1028469184514600F087FA2A5C05EB000E0A2A019B01D00D2A12D12268918D01F00301013901298ABFEE
:40174000118CA2F8228051849EF800100A290AD1918C0B44938406E0BDF80800D9F800308344A3F822B09EF8003043B923689A8C16449A8D9E8422F003029A8502E00EF17F
:4017800001058EE705B0BDE8F08F00BF1C81FF1F024B1B6859849A84FFF76EBF1C81FF1FF8B50B4B05461B680E46B3F92C00174640F00200FFF784FD04463A462846314600
:4017C000FFF7E6FF2046BDE8F840FFF779BD00BF1C81FF1F2DE9F04F1F4687B0002301900C4616460293039304F0BCF8DDF80490824624B12068616804AB03C302E004A8A5
:40180000FFF765FC16F00C0802D1BDF9124031E03C4600258CB12146019804F00BF90146241A019800F004FA019B01351844019001A803F0F1FF0028ECD0B8F1080F05D09F
:40184000B8F10C0F08D0B8F1040F12D1BDF916400AFB154401340DE0BDF91220BDF9163002249B1A01330AFB153595FBF4F5AC1800E00024DFF840B1CDF80490002506F0E2
:401880000306002F7BD03946019804F0D3F8014680463F1A019804F0F7F8012E0FD0022E03D086B9BDF910500DE0BDF91050BDF914305B1B1B1A93FBF6F31D4403E0BDF96D
:4018C00014502D1A0135DBF8001023B201382AB28B842844ADF80A300AF1FF334A842344ADF80820ADF80C0002AA41460198ADF80E3004F0F9F82F4B1B7873B3DBF8003036
:401900005B8D9A0729D4019B99450CD1BDF90A30BDF912108B4206DD013BBDF91420BDF91000FFF72FFDBDF90820BDF91000824206DDBDF90E30013ABDF90A10FFF722FDE5
:40194000BDF90C00BDF91420904206DABDF90E30BDF90A100130FFF715FD4146019800F067F9019B0DF11808184448F8140D03F0F9FF0444404603F04FFF002881D00D4B5A
:401980001B78A3B10C4B1B685B8D9B070FD4019B99450CD0BDF90E10BDF91630994206DABDF914200131BDF91000FFF7EBFC07B0BDE8F08F54A2FF1F1C81FF1F2DE9F34165
:4019C0000C46174698460646C0B169B1084603F04DFB054648B102462146684603F04CFF684603F043FB00E00D46304643463A462146FFF7EFFE284603F038FB02B0BDE855
:401A0000F08100002DE9F04F85B00E9D81460C4692469B4615B9FFF7D1FF39E019B9029103910D4615E00868496802AB03C31A4A02AB03CB10602046516003F017FB0546F6
:401A400038B102462146684603F016FF684603F00DFB124E4FF000083368114CC3F814800E9B276802A823605B6898475B46524602A94846FFF7AEFE284603F0F7FA336879
:401A800017B1C3F8148002E003F108025A61276005B0BDE8F08F00BF98A4FF1F1C81FF1F48A4FF1F2DE9F041D0F80C8086B0044600200E461746FFF7D2FB0546B8F1000F84
:401AC00005D098F8043013B140F0020001E025F00200FFF7C4FB216969B101206388228803900290E0680190A06800900C6830463946A0471FE0DFF85080124BD8F8002077
:401B000021461B68527CE0689847E18820B9012904BFD8F80030986B638822880590A0680490A088029101210390019100913046394601F021FB284606B0BDE8F041FFF749
:401B40008EBB00BF2081FF1F1C81FF1F114B73B51B680646DC6C1D6D03880C44013B2344ADF8043043881544013B2B446846ADF80040ADF80250ADF8063002F001FE38B159
:401B80002A4621463046FFF78DFF02F037FDF6E702B070BD1C81FF1F024B1A6802B9186000F062B858A2FF1F094A10B5136851688B420BD093E80300064CA34214BF0833DE
:401BC000503B136003F082F9012010BD002010BD2C81FF1FACA2FF1F70B50446FEF7FEFA084E0444FEF7FAFA251A002D08DDFFF7DDFA3068A842A8BF2846FEF7F5FAF1E753
:401C000070BD00BF3481FF1FF8B5084E0468336805461B6820469847336807465B6820469847204428603846F8BD00BF84A4FF1FF8B506460D46064F00243DB13B683046E8
:401C40005B689847013D06440444F6E72046F8BD84A4FF1F0078704701207047012070470170012070470000024B1B6803B11847704700BFB8A2FF1F074A00F01F01C0F3A7
:401C8000C423D35C525CC0F3451003EB0243034A105C03EB0020704718A80000D8A70000074AC1B2C0F30743D35C525CC0F3072003EBC223034A105C03EB4010704700BFB0
:401CC000D8A50000D8A400004FF6FF7070470000F0B5DFF854E00646DEF800E00D4614461F46BEF1000F03D0F446BDE8F04060470B490C4856F8042B013CC2F307435FFABB
:401D000082FECB5C11F80EE0C2F30722825C03EBCE2303EB42132B803D44EBD1F0BD00BFD8A50000D8A40000C0A2FF1FF0B5154E864676680F4614461D461EB1B446BDE828
:401D4000F0406047501E02F1804103FB00E0013907EB81010C4E0D4F0288013C02F01F0316F803E04FEAD223F35CC2F34512BA5C03EB0E4303EB022341F80439A0EB050065
:401D8000EAD1F0BDC0A2FF1F18A80000D8A70000104670474068801A01387047084670470068401A0138704710B48468D4F8F840A44610BC60478368D3F8F4301847F7B510
:401DC000164604460D468768FFF7F5FF0190019ABB6A2946534020463246FFF7E5FF03B0F0BD13B584680092D4F8F040A04702B010BD13B584680093D4F8F0400B46A04783
:401E000002B010BD10B48468D4F8F040A44610BC604730B48468D4F8EC40A44630BC60477047000073B5079E84680C4D76B1286888B906980090D4F8A8602046B047D4F8E9
:401E4000A8302B60064BC4F8A83004E02B6813B1C4F8A8302E6002B070BD00BFC8A2FF1F211E0000026CD0F8DC3090691847026CD0F8E030906918472DE9F34791468A4629
:401E800098460A9C85680B9F00942846D5F8A860B0473946C9EB0404CAEB0806621C286C06FB0222D5F8E430806902B0BDE8F04718472DE9F34791468A4698460A9C8568E5
:401EC0000B9F00942846D5F8A860B0473946C9EB0404CAEB0806621C286C06FB0222D5F8E830806902B0BDE8F04718470139172928D8DFE801F01427272727272727270EEE
:401F0000101219290C272727272727231E250F4870470F4870470F4870470F48704703689B68D3F80401704703689B68D3F8FC00704703689B68D3F80001704707487047D1
:401F40000748704700207047064870471F2300000B230000F72200009D22000001220000251E000035230000013980680D2923D8DFE801F0090B0D0F222222112507071381
:401F8000181D01207047006870474068704780687047C0687047806B704788B1406B00F00100704760B1406BC0F34000704738B1406BC0F3800070474FF0FF3070470020C1
:401FC0007047836801290CBF586C00207047826800230B804B801368013B8B805368013BCB807047F0B5104C91B06D46264607460FCE0FC596E80F00203485E80F000FCCFA
:4020000008AD0FC594E80F0085E80F007B6B10AA02EB830353F8402C53F8203CC7F80821C7F80C3111B0F0BD50A4000007B580698DE806006A460321FEF75CF903B05DF813
:4020400004FB0846704708467047084670471046704710467047104670474068801A013870470068401A013870470068401A013870474068801A013870474068801A0138E8
:4020800070470068401A013870472DE9F34184689846E38C0E469B0717462ED5D4F80831204698470546D4F80C313A46314620469847A36922699D42D4BF002301239542DD
:4020C000B8BF43F00103626906469042B8BF43F0010313B9E36998420ADD62682368013A00920022D4F8A870013B11462046B847D4F8AC303246294601E0D4F8AC30204624
:40210000984741462046D4F8A43002B0BDE8F0411847F7B584680E46E38C17469B0743D5D4F8083120469847D4F80C31314605463A4620469847D4F8983006461BB1002232
:40214000012120469847A36922699D42D4BF002301239542B8BF43F0010362699642B8BF43F0010313B9E3699E420ADD62682368013A00920022D4F8A870013B11462046D2
:40218000B8472946D4F8AC30324620469847D4F8A03020469847D4F8983005467BB101220021204698470AE0D4F8AC30204698472046D4F8A03003B0BDE8F04018472846A9
:4021C00003B0F0BD38B5856804469DB94FF4BE70FEF774FD084B4FF4BE721B68A06029469847A3680222DA8401221A62034A1C64C3F8102138BD00BF6C81FF1FE51F0000EF
:4022000070B506460D461446FFF7DCFFB368002B3BD0262D02D0272D16D070BD9A6B102A02D0122A08D070BD184AC3F8DC40C3F8B820C3F8B42070BD154AC3F8E040C3F803
:40224000BC20C3F8C02070BD9A6B102A02D0122A0ED070BD3CB10F4AC3F8E440C3F8CC20C3F8C82070BDC3F8CC40C3F8C84070BD3CB1094AC3F8E840C3F8D020C3F8D42092
:4022800070BDC3F8D040C3F8D44070BD651E00006F1E0000791E0000B31E000070B50646FFF790FF4FF4FA70B568FEF707FDA866B0FA80F4A86B2B680730C0105843FEF790
:4022C000FDFC002200284FF00101E866B0694FEA541408BF0124FEF70DF8D5F810310443284698472846D5F8B0309847002CD4BF0020012070BD70B506460D461446FFF78F
:4023000061FFB3681D605C6070BD70B506460D461446FFF757FFB3689D60DC6070BD10B50446FFF74FFFA06900220621BDE81040FDF7E0BF10B50446FFF744FFA069002231
:402340000521BDE81040FDF7D5BF38B50C460546FFF738FF2268AB68DA6262681A63A2685A63520707D51A68596883E806009A68D968DA609960A2899A84226912B122EA1A
:40238000E2721A6238BD2DE9F041044688461E461746FFF717FFA5686822414605F58A7006F070FB2046B8472046B04723699B689847A862BDE8F0810B0A80F8713080F8C3
:4023C0007210D0F820310221713018472DE9F04115460446806E0E460021A5B1034636F8022B0131170AFA2903F8027B427007D1D4F820314FF4FA71A06E9847A36E002174
:40240000013D1846E9E731B1D4F82031A06E4900BDE8F0411847BDE8F08108B5D0F8B830984708BD89B2FFF7C7BF00002DE9F04F3E4E82468568306885B0007C884610F01A
:40244000010F14469946A3EB01003DD043000393471C0E9B9C4266DCD5F8CCB0EE6EBBF1000F01D1C34607E08DE850004B46224641465046D8470DE0CB450ADC5946D5F807
:40248000F4302246504698470BF1010B26F8020BF2E7EE6E039AB31E1644B34205D0A96A33F8022F4A401A80F7E7009422464B4641462846D5F8A860B0473A46E96E28461D
:4024C000FFF784FF0134C4E70E9FBC1A671C00FB07770E980090D5F8A8402846A0473368AE6EDB6B1C680123C4F3072906EB030AE4B2C7B1B846F92F28BF4FF0F9084FEAA6
:4025000048013BB9D5F8203150469847C8EB07070023EEE7334672189342F3D083F8019003F8024FF8E705B0BDE8F08F1C81FF1F2DE9F04F8FB00393836805900993199BB2
:402540000691082B08920CD8199A4FF48B73D340DB0706D5984B1B681B7C03F00303022B10D0069B1C9A18989918089A039B0244013A0092099ACB18D2F8A840013B089A2B
:402580000998A047039B1C9A013B0D93069B089F13440493049A0D9B13440C93089B189AFB1A9A4240F35382199B013B0F2B00F24882DFE813F01000C10046024801460249
:4025C00046024602D80146024602460246024602460246024102059B9C681D9B5B680B93754B1B681B7C03F00303022B22D0032B76D0012B74D01D9B039E1C9DDDF86CB0A1
:40260000B3F80090BDF82CA04FF080089BF8002048FA05F31A4214BF5146494601352046FFF7CAFE082D04BF0BF1010B0025013EECD106E21B9B00250A932B46DDF810B0F4
:40264000D4F86CA0DDF87080CDF81CB00A9A92F80090802242FA08F219EA02090DD01BB9D4F86CA0DDF81CB0BDF82C300135AAF800300AF1020A012313E0012B10D1079B78
:402680000097013B3A4659462046D4F8A860B0472A46E16E2046FFF799FE4D464B4600E04B46079A08F101080132B8F1080F079208BF0A9A039904BF01320A92049A08BF83
:4026C0004FF000080A4407999142BFD1002D00F0B8810097D4F8A8600C9B3A465946A5E1039B049A1C9DDDF86C80079303EB020A4FF0800B079B98F80020C3EB0A094BFAC9
:4027000005F31A420DD0D4F8F4303A46494605989847A36A3A46434049460598D4F8F860B0470135079B082D04BF08F101080025013B0793DED184E1059B9C681D9B002B2E
:4027400000F07F811B9B93F800B01B4B1B681B7C13F003030FD0022B40F07381049B00260A931B9BD4F86CA0DDF870900B93DDF81080324645E01C9D039EDDF86C904FF0F0
:40278000C008C5F103035A00C2F1060348FA03F303EA0B03D3401D9A013532F823102046FFF70AFE042D02BF99F801B0002509F10109013EE5D144E11C81FF1F1AB9D4F8BA
:4027C0006CA0CDF82880079A1D9B013653F822300AF1020A2AF8023C012209F10109B9F1040F08F1010806D10B9B4FF0000993F801B001330B93049B03990B44984500F0BC
:40280000A680C9F103056D00C5F10603C02141FA03F303EA0B03EB400793CFD1012A10D1009708F1FF333A460A992046D4F8A850A8473246E16E2046FFF7C8FD079E324603
:40284000CBE7079AC9E7059B9C681D9B002B00F0F8801B9B93F800B07E4B1B681B7C13F003030FD0022B40F0EC80049B00260A931B9BD4F86CA0DDF870900B93DDF8108019
:40288000324642E01C9D039EDDF86C904FF0F008C5F101039A00C2F1040348FA03F303EA0B03D3401D9A013532F823102046FFF783FD022D02BF99F801B0002509F1010947
:4028C000013EE5D1BDE01AB9D4F86CA0CDF82880079A1D9B013653F822300AF1020A2AF8023C012209F10109B9F1020F08F1010806D10B9B4FF0000993F801B001330B93E3
:40290000039B04990B44984521D0C9F10105AD00C5F10403F02141FA03F303EA0B03EB400793D0D1012A10D1009708F1FF333A460A992046D4F8A850A8473246E16E20463B
:40294000FFF744FD079E3246CCE7079ACAE7002E77D000973A46D4F8A8500C9B0A992046A847324665E0059B9C681D9B002B68D0384B1B681B7C13F003030FD0022B60D1B0
:40298000DDF818A0039A00255244D4F86C80DDF86CB0CDF81CA02B460A9224E01B9D039B1B9A5B1B1344002B4BDD15F8013B1D9A204632F82310FFF7FFFCF0E71BB9D4F8A1
:4029C0006C80DDF81CA01D9B013553F8293008F1020828F8023C0123079A0132079207990A9A914219D01BF8019BB9F1000FE5D1012B10D1079B0097013B3A4651462046B9
:402A0000D4F8A860B0472A46E16E2046FFF7DEFC4D464B46E0E74B46DEE70D9B069A13447DB13A4651460097D4F8A8602046B0472A46E16E204602E0039A1B990998FFF7FA
:402A4000C5FC1B9B1A9A013713441B93A6E50FB0BDE8F08F1C81FF1F10B50446FFF7B2FBA468104B0821C4F8EC300F4B2046C4F8F0300E4BC4F8F4300D4BC4F8F8300D4B42
:402A8000C4F8A0300C4BC4F8A430D4F8CC30C4F80431D4F8943098471023A363074B636410BD00BF312500002D240000132100008B2000001B2400002524000060A8000087
:402AC0002DE9F04104460E461546D0F88C302A219847E16AD4F8903031442046C1F30F219847E16AB7B23944D4F890302046C9B29847E16AD4F8903031442046C1F30F2160
:402B00009847E16AD4F8903039442046C9B29847D4F88C3020462B219847216BD4F8903029442046C1F30F219847216BAEB23144D4F890302046C9B29847216BD4F8903016
:402B400029442046C1F30F219847216BD4F8903031442046C9B29847D4F88C302046BDE8F0412C2118472DE9F041044688461F461646D0F88C302A21069D9847E16AD4F87A
:402B8000903041442046C1F30F219847E16AD4F8903041442046C9B29847E16AD4F8903039442046C1F30F219847E16AD4F8903039442046C9B29847D4F88C3020462B21C0
:402BC0009847216BD4F8903031442046C1F30F219847216BD4F8903031442046C9B29847216BD4F8903029442046C1F30F219847216BD4F8903029442046C9B29847D4F834
:402C00008C302046BDE8F0412C21184713B504466B460D4A1068516803C3D4F88C302046362198472046636B02AAA18C134413F8083C21F0E0011943D4F8903089B202B041
:402C4000BDE81040184700BFC4A4000013B50446D0F814312E209847216AD4F83031684603319847236A0DEB03021DF803305078DB088008DB0243EA4013907843EAD000AD
:402C800002B010BD1FB50446D0F834312E209847216AD4F85031684602319847226A0DEB42035B88C3F3C4005B1103F4FC6303433DF81200000200F47840184304B010BD86
:402CC00070B505460C46D0F81431080A9847D5F81431E0B2BDE870401847D0F8343108461847D0F81831C8B21847D0F83831084618470000082902D0102905D07047064B01
:402D0000C0F88C30054B03E0054BC0F88C30054BC0F89030704700BFC12C0000E32C0000DB2C0000EB2C0000F0B585B00A9F8568BC1A581A0097013400FB0444D5F8A87024
:402D400028460B9EB847D5F814312E209847D5F83031296A02A89847D5F83031032102A898479DF80930013C4FEA93029DF808304FEAD3034FEAC32343EA42139DF80A20C4
:402D800043EAD20326F8023BE6D105B0F0BDF0B587B00C9F8568BC1A581A0097013400FB0444D5F8A87028460D9EB847D5F834312E209847D5F85031296A02A89847D5F83F
:402DC0005031022102A89847BDF80A30013CC3F3C4024FEA631303F4FC6343EA0203BDF808204FEA022222F4FF6243EA020326F8023BE4D107B0F0BD10B50446FFF7E2F990
:402E0000A368114A0021C3F8AC20104AC3F8BC10C3F8A8200E4AC3F8D010C3F8B0200D4AC3F8B8200C4A10685268C3F8B400C3F8C820DA8C094822F00302DA84084AC3F8E5
:402E4000CC00C3F8942010BDC12A0000672B00000D2C00004D2C00003881FF1F292D0000F52C000070B5084B1B681A7C82EA0001490705D59C6BD96B25680E6826600D6064
:402E80001874104670BD00BF1C81FF1F014B1B689B6818474081FF1F0A46154B30B41B680446B3F90A10914220DCB3F90E108A421CDCB3F90810814218DCB3F90C108842E8
:402EC00014DC197C587C11F0010F0A4951F8200004D0C368214630BCDB691847C168DB6B8D691B682146AC4630BC604730BC70471C81FF1F8CA4FF1F114B30B41C680D4620
:402F0000B4F90A308B4219DCB4F90E30994215DCB4F90810B4F90C308142B8BF01469342A8BF1346994209DC607C064A52F82000C26894682A46A44630BC604730BC704761
:402F40001C81FF1F8CA4FF1F73B5134C2468B4F90850B4F90C608542B8BF05469642A8BF1646AE4215DBB4F90A208A42B8BF0A46B4F90E108B42A8BF0B469A4209DC607CBC
:402F8000064951F82000C16800930C6933462946A04702B070BD00BF1C81FF1F8CA4FF1F2DE9F04F8FB0189DDFF8C8E10295199DDEF800E008951B9D079003950C461746B3
:402FC0000193DDF868A01C9EDDF874B01E9DBEF1000F02D0DEF8004054E0029B089A1343012B54D1614B1868B0F90A20531A002B0ADD0199C3EB010EBEF1000F40F3B2803A
:40300000039901FB036602E00A46DDF804E0019B1C44B0F90E30013CE41A002C05DDC4EB0E0EBEF1000F40F39D80079BB0F90C103B44013B5B1A002BC8BFFF1A079B591B27
:40304000B0F90830994209DA5B1A1D44FF1A23F0070306EBE506194405F00705002F40F38180407C424B039C53F82000C368CDF874B01C951B961A94CDF864A0CDF860E0C3
:403080005C683B46A4460FB0BDE8F04F60477546CAF108030B93029BDFF8D090013BCDF814E00D93059B019A93425BDA089BE3180993013B0A93D9F800300A99B3F90A203D
:4030C0008A4248DCB3F90E309C4244DC079B4FF0000806960093CDF81080049BBB423ADAB8F1000F05D1069B4FF008081D78013306930B9BCAEB080845FA03F313F0FF0158
:4031000005FA0AF5EDB204D1D9F80020127C920719D4D9F80020D26B10680C90BBF1000F02D05BF8213000E0DBB2136000990D9A0A9B0A4400982146FFF706FFD9F8003097
:403140000C9ADB6B1A60049B029A01330493009B13440093C1E7059B099C01330593039B1E449FE70FB0BDE8F08F00BF1C81FF1F8CA4FF1F48A4FF1F2DE9F04F8FB0189C22
:40318000DFF814E20294199C1D9E0894DEF800E01B9C054603940091904601931A9F1C9C0496BEF1000F02D0DEF800407AE0029B089A1343012B7AD1754B01991868009BCA
:4031C000B0F90A20D31A002B07DDC91A002940F3DB80039E06FB034400E0009A9DE848001E44B0F90E30013EF61A002E03DD891B002940F3C98005EB0803B0F90C60013BFB
:403200009B1BB0F90860002BC8BFC3EB0808B54231DA731B082FC3EB080827D00DDC022F14D0042F1AD0012F26D123F0070604EBE304354403F007031EE0182F18D0202FB1
:4032400016D0102F18D104EB430413E023F0030604EBA304354403F003030DE023F0010604EB6304354403F0010305E01C4401E004EB830435460023B8F1000F40F38480FD
:40328000467C444850F82600049ED0F80CE01C93039B18911A93294643461D961B941997DEF80440A4460FB0BDE8F04F6047F346C7F108030B93029BDFF8D4A0013BCDF87E
:4032C00018E00D93069B019A93425DDA009A089B13440993013B0A93DAF800300A99B3F90A208A4248DCB3F90E30009A9A4243DC2E464FF000090794CDF81490059B434513
:403300003ADAB9F1000F06D1079B4FF0080993F800B0013307930B9B0BFA07F24BFA03F313F0FF015FFA82FBC7EB090904D1DAF80020127C920717D4DAF80020D26B1068F2
:403340000C90049810B150F8213000E0DBB213600D9A0A9B324400993046FFF7F5FDDAF800300C9ADB6B1A60059B029A01330593334613441E46C1E7069B01330693039BCA
:403380001C44099B00939DE70FB0BDE8F08F00BF1C81FF1F8CA4FF1F48A4FF1F044B1968044B4A7C083153F82200C3681B6B18471C81FF1F8CA4FF1F07B5FFF7EFFF00F009
:4033C000DDF8002839D1FEF7B3F8019038B900F02BF91B4B1A681B4B9A420CD12AE0C3680C215B6A01A89847034628B3019898470028ECD021E00020FEF79AF80190C8B1A8
:40340000002002F0C5FB0420FFF740FD43F6FF7300211A460846FFF797FD0020FFF736FD019B0E21DB6801A85B6A9847034608B101989847002000E0012003B05DF804FB19
:4034400038A2FF1F785634FF044B1B685A7C044B53F822301B691B68184700BF1C81FF1F8CA4FF1F044B1B685A7C044B53F822301B695B68184700BF1C81FF1F8CA4FF1F8F
:40348000044B1B681A7C52074CBF9B6BDB6B1860704700BF1C81FF1F08B5064B1B68196B814206D01863FFF7CFFFBDE80840FFF7E7BF08BD1C81FF1F044B1B681A7C520794
:4034C0004CBFDB6B9B6B1860704700BF1C81FF1F08B5064B1B68596B814206D05863FFF7B3FFBDE80840FFF7E7BF08BD1C81FF1F014B1B685B6818474081FF1F014B1B68D3
:403500001B6818474081FF1F0B0EFF2B10B50E4C10D1030E08D16FF010035A436369FF3240EA0260184010BDFF2B03D1636901EA030010BD054B02EB02121B68D2B2984724
:403540006169084010BD00BF4481FF1F6081FF1F024B5A6958611046704700BF4481FF1F10B5044C2068FDF7CFFA034A00232360136010BDA0A4FF1FE4A2FF1F38B50A4D7C
:403580002C6864B9094B18688000FDF797FB286038B10748074B40F8043FFDF733FF002038BD012038BD00BFA0A4FF1F5C81FF1FE4A2FF1F613500002DE9F843044618B3E6
:4035C00087681FB3144D286820B32268B2F5807F1FDC124B00261B689A42A8BF1A469046464509DA57F82600D5F80090FFF72CFF49F826000136F3E7094B1B680BB12046CA
:4036000098472868BDE8F883BDE8F8833846BDE8F8830020BDE8F883A0A4FF1F5C81FF1FE4A2FF1FFFF7C8BF2DE9F74F00F023F91C4E8046B146DFF874A0002444452DDA51
:403640002046FDF775FF38B33368204693F811B05C7400F053F8082804DDD9F8003083F811B019E05AF824301A690F4B9A42F4D0204600F046F8034600259D42EDDAEFB286
:4036800038460193FFF7EEFE39460246204600F01BF90135019BF0E70134CFE703B0BDE8F08F00BF1C81FF1F48A800008CA4FF1F10B50C46FDF73CFF28B1C3682146BDE86C
:4036C00010409B6A184710BD002801DCFFF7F0BF00207047014608B50020FFF7E9FF20EAE07008BD0121FFF7EFBF0221FFF7ECBF0321FFF7E9BF0421FFF7E6BF0821FFF77C
:40370000E3BF0921FFF7E0BF024B1B68587CFFF7E9BF00BF1C81FF1F024B1B68587CFFF7E4BF00BF1C81FF1F024B1B68587CFFF7E8BF00BF1C81FF1F034B082153F8200018
:40374000C3689B6A184700BF8CA4FF1F10B5FDF7EFFE28B1BDE81040C3680221DB6A184710BD0000024B1B68587CFFF7EFBF00BF1C81FF1F024B53F820301B6958687047D5
:403780008CA4FF1F024B53F820301B69186870478CA4FF1F0120FFF79DBF0220FFF79ABF0320FFF797BF0000014B83E803007047F0A2FF1F014B1868704700BFF0A2FF1F64
:4037C000014B5868704700BFF0A2FF1F00283BD030F0010329D030F0030328D030F0070327D030F00F0326D030F01F0325D030F0FF0324D020F4FF7323F001030BB320F424
:403800007F6323F00F03E3B120F4FF4323F07F03BBB1030C1B04A3B1830C9B049BB110F07F4F0CBF1820202070470120704702207047032070470420704705207047082068
:403840007047102070471220704708B5FFF7BEFF01280FD0831E062B09D9A0F10903072B07D911380F288CBF0020202008BD082008BD102008BD08B50020FDF759FE0030BC
:4038800018BF012008BD00000D4B10B51C461A68517C0C4A52F8210040B1C36813B11B68042B01D00068F7E7FDF778FE23680022DA6503F108025A61BDE81040FFF76EBDEE
:4038C0001C81FF1F8CA4FF1F37B50C461546FDF72FFE019008B901200CE0C36810215B6A01A8984703460028F5D001982A4621469847002003B030BD37B50C461546FDF72B
:4039000017FE019008B901200CE0C3680B215B6A01A8984703460028F5D001982A4621469847002003B030BD37B50C461546FDF7FFFD019008B901200CE0C3680A215B6A27
:4039400001A8984703460028F5D001982A4621469847002003B030BD10B5074C2368186BFFF772FDFFF78CFD2368586BFFF76CFDBDE81040FFF7A0BD1C81FF1F144B70B53C
:4039800000241C60134B14481C60144B144D1C60144B04701C60144B44601C60134B84601C60134B21461C6018222B680C309847104B21461C60104B08221C600F482B6817
:4039C00098472B682146BDE8704008220C481847D0A4FF1FB8A4FF1FF8A2FF1FD8A4FF1F6C81FF1FE0A4FF1FA8A4FF1FC8A4FF1FD4A4FF1FB4A4FF1FACA4FF1FECA4FF1F95
:403A0000E4A4FF1F10B50446FDF788F8836A054A13F4803F2046BDE81040034B08BF1346184700BF95480000B56E0000F0B507460C46164685B002AD002F48D03846FDF737
:403A400077F8876A0146BB0701903AD526B13246284601F011FF02E003C885E8030029462046FDF7BDFB60B317F0010F019B1CD13EB1B3F90220B6F902309342B8BF1346EB
:403A800001E0B3F90230B4F902209342B4F9062005DDBDF90A309A4213DB013B03E0BDF90E309A420DDDE3800BE0DF694FB138462A462146FFF7BAFF3846FDF72FF8076AB7
:403AC000F4E7019B01A81F6AFDF740F8B4E705B0F0BD2DE9FF4106460F469046002502AC002E35D03046FDF723F8866A0146B207019027D5B8F1000F04D04246204601F0B4
:403B0000BBFE02E003C884E8030021463846FDF767FBB8B1F30705D4BDF80C30012501333B800FE0019BDE6966B1224639463046FFF7CFFF0028304618BF0125FCF7EEFFAE
:403B4000066AF1E7019B01A81E6AFCF7FFFFC7E7284604B0BDE8F081F0B505460E46174685B002AC7DB32846FCF7E2FF856A0146AA07019021D527B13A46204601F07CFECC
:403B800002E003C884E8030021463046FDF728FB98B1EB0704D4BDF80830013BB3800CE0019BDD694DB1284622463146FFF7D4FF2846FCF7B3FF056AF4E7019B01A81D6A7B
:403BC000FCF7C4FFCEE705B0F0BD00002DE9F341214D07462B6802AC986CFCF7A9FF00903846FCF7A5FF0146019054F8080D0830FDF7F6FA064628B30199009A2B680832F1
:403C000001F10800DE6CD3F8508001F035FE2046FCF79CFF019A2B68B2F90010B2F902200E4CD9641A6501A82760FCF78FFF3846FFF7E8FE002323602B68DE64C3F85080B0
:403C4000012605E02046FCF781FF01A8FCF77EFF304602B0BDE8F0811C81FF1FA8A4FF1F2DE9F7430546FCF763FF836A01909B0705D401A8FCF76AFF03B0BDE8F083C469FD
:403C8000002CF6D02046FCF753FF836A009003F00303032B35D101990831FDF7A1FA80B3019B01A8B3F90890B3F90A80B3F90C70B3F90E60FCF74AFF6846FCF747FF20469E
:403CC000FFF784FF70B12046FCF728FF00902046FFF7C6FF2046FCF721FF00902846FCF71DFF01902846FCF723FF01902046FCF71FFF019B0090A3F80890A3F80A809F81B3
:403D0000DE81009B68461C6AFCF720FFB8E7000037B50446FCF70CFF40F60103826A01901340012B05D001A8FCF710FF2046FFF769FE144B1B6813B32046FFF791FF2046FD
:403D4000FCF7ECFE8569046ACDB194B12046FCF7E5FE836A03F00303032B02D12046FFF735FF2046FFF77CFF2046FCF7D7FE046AEBE72846FCF7D2FE046A8569E4E703B044
:403D800030BD00BFE0A4FF1F2DE9F347184D82462B6802AC986CFCF7CBFE2A6844F8040D083200F10803B0F90890B0F90A80B0F90C70B0F90E6092E8030083E80300204621
:403DC000FCF7C4FEDAF80000FFF7A2FF2B68986CFCF7AEFE0190A0F80890A0F80A808781C6812046FCF7B2FE02B0BDE8F08700BF1C81FF1F73B506460D462846FCF798FE2E
:403E0000836A014613F00204019004D101A8FCF79DFE204612E0304601F011FD019B01A89C693CB9FCF792FE054B1868431B5842584103E0FCF78AFE2546DEE702B070BD4B
:403E4000ACA4FF1F2DE9FF4106460C4600294CD0FCF76EFE00238461019003622046FCF767FEC76904AC44F8080D2FB9C66101A8FCF76CFE204636E0019B38469D6AFCF7AA
:403E800057FE0DF1100805F0080548F8040D75B9836A1A070BD5019B01A81F62029BDE61FCF754FE2046FCF751FE40461BE02046FCF74CFE4046FCF749FE3846FCF72EFE18
:403EC0000390039B1C6A0CB91E620BE02046FCF725FE002DF4D1836A1B07F1D5039B1E62019B1C6201A8FCF731FE04B0BDE8F08170B50446FCF712FE05468069A8B1FCF7D9
:403F00000DFEC36906469C4205D12046FCF706FE036AF36170BD43B11846FCF7FFFD036A9C42F8D12B6A036270BD70BD03460846B3F90220B3F90010FDF707B9114B30B540
:403F40001C6885B0626C0546BAB11068516802AB03C30D4B186800B9A06CFCF7E9FD04AC02A944F80C0DFFF7E1FF2046FCF7EEFD02A8294601F063FC02A803F0C3FD05B0A5
:403F800030BD00BF1C81FF1FA8A4FF1F1FB50E4B1B6893F854200AB10C4811E0986CFCF7C7FD02AC019003C884E8030001A8FCF7CDFD074B196811B12046FFF71BFF204676
:403FC000FFF7BCFF04B010BD1C81FF1F0CA3FF1FA8A4FF1F064B10B50446186828B1A04204D0FCF79BFD4069F8E710BD012010BDC0A4FF1F13B5044600B3FCF799FD836AA3
:4040000001909B0717D5406A40B10D4B1B689C4204D001F097FF019B00225A62204600F0F9FE04463CB12046FFF7E4FF2046FCF775FD046AF6E701A8FCF788FD02B010BDBF
:40404000DCA4FF1FB0F90020B0F904309A4208DCB0F90230B0F906008342CCBF0020012070470020704700007FB50D4604461646FCF754FD816A01908B0733D52846FFF7A8
:40408000E1FF78B340F601030B40012B2AD02046FCF74EFD02AC024601902946204601F0EBFB2046FFF7CEFFC8B144F22001019B9A6A03F10805114029B122462946284669
:4040C000FDF718F80BE0324394E8030085E803009A62054A138801331380FDF7C5FD01A8FCF734FD04B070BDBCA4FF1F2022FFF7BBBFF0B50F4685B01546064648B3FCF768
:4041000017FD836A04AC9B07024644F80C0D03D42046FCF71BFD1CE0394602A801F0ACFB0028F5D02046FCF711FD2A4602A93046FFF79AFF304600F06DFE04464CB1204698
:404140002A4602A9FFF7D5FF2046FCF7E7FC046AF4E705B0F0BD2DE9FF41804617461D460C4681B30846FCF7E3FC866A0246B307019025D5414602A801F07EFB00B340F6F0
:4041800001033340012B07D101992B460A6A02A88969FFF7E0FF04E02A4602A92046FFF763FF019BDC695CB1BC4209D020462A4602A9FFF79EFF2046FCF7B0FC046AF2E7B2
:4041C00001A8FCF7C3FC04B0BDE8F08170B5054608460C461646FCF7A1FC836A324613F4803F21462846BDE8704014BF4FF480432023FFF7B0BF2023FFF7ADBF13B5044611
:40420000FCF796FC8169019041B1026AFFF7F3FF2046FFF76DFE019B00229A6101A8FCF795FC02B010BD1FB504AB43F8101D1946019000F019FD05B05DF804FB00230B8074
:4042400002884B8083889B1A8B804288C3889B1ACB807047F0B50F4687B00546002833D0FCF766FC866A0190B2072AD503C804ACF30384E8030002D52846FFF7BBFE5FB139
:404280003868796802AB03C302A90198FFF74EFE02A9204601F0D3FA29462046FFF7AAFD78B140F601033340012B06D1019B20461A6A9969FFF79FFF03E021462846FFF7A0
:4042C00015FF01A8FCF742FC07B0F0BD0021FFF7C1BF00000B4B70B51A680546966C1C4608B9094B1D689564FFF758F82846FCF715FC2368B0F90020DA64B0F9022030460B
:404300001A6570BD1C81FF1FC0A4FF1F2DE9F74FDDF830A098464C4B05460E461746D3F80090BAF1000F24D1484B1B8833B3484B1B685A1C012A21D99A465046FCF7F8FBEF
:40434000B0F90010B0F9022001900D4416441FB9B0F904305F1A0137B8F1000F05D1B0F90630C2EB030808F1010801A8FCF7EEFB04E0BAF1FF3FE0D14FF0000A0F982C30A1
:40438000FCF79EFD0446002859D0304A0D9B0DF1080B49EA0309138801331380FCF7C8FB0E9B826A03612B4B4BF8080D09EA0303058046803D4446441343013D013E83627C
:4043C0008580C6805846FCF7C1FB234B186848B1FCF7A4FB05462046FCF7A0FB6B6943616C6100E01C6051462046FFF72BFD19F0200F02D02046FFF76DFF19F0010F1FBFE8
:40440000164A13680133136019F0400F02D0204600F018FD19F0020F0DD02046FCF788FB836A009043F0020383625846FCF78EFB2046FFF74BFF01212046FFF7F4FE204662
:4044400003B0BDE8F08F00BFC8A4FF1FA4A4FF1FACA4FF1F9F3F3F00C0A4FF1FE0A4FF1F1FB5089C0394079C0294069C019400240094FFF74BFF04B010BD000037B50446D9
:40448000002864D0FFF7A6FD002860D00B212046FFF7C9FE204600F097FE2046FCF748FB0190406A08B101F04DFD2A4B00229A60294B19688C4208BF1A60284B1A6894424A
:4044C00004BF00221A60264B00221B682BB159688C4208BF5A601B68F8E70721204600F094FD019DE869FFF7C9FFEB69002BF9D12046FFF783FE1B4B186850B1FCF70EFB34
:40450000054640698442F8D12046FCF707FB43696B61019B01A89A6AD10741BF12490B6803F1FF330B60930641BF104A138803F1FF331380FCF70AFB0D4A20461388013BD2
:404540001380FCF723FB0B4B1868FFF7C3FE03B030BD00BFF8A2FF1FB8A4FF1FD8A4FF1FD0A4FF1FC0A4FF1FE0A4FF1FBCA4FF1FA4A4FF1FACA4FF1F1B4B73B55A681D4624
:40458000CAB11A4B1C68ACB12046FCF7D1FA836A019013F4004F466907D001A8FCF7D6FA2046FFF76BFF3446EDE701A83446FCF7CDFAE8E76C600E4B1B6803B198470D4BFD
:4045C0001B6853B90C4B1B6893F8540048B1FDF7EBFA003018BF012003E098470028F1D0012002B070BD00BFF8A2FF1FC0A4FF1FB0A4FF1F94A4FF1F1C81FF1F2DE9FF41FC
:404600005D4F3B6893F85400002800F0B1805B4A136A1446012B03DD013B13620020A7E0D36902AD013302F1140696E80300D36185E8030023B99389ADF80830D38910E0B1
:40464000138BD28A0133ADF80A20B4F910201BB29A42ADF8083006DAA389ADF80830638B0133ADF80A30BDF90A20B4F91230DFF80C819A4204DD236A0020013B236277E03B
:404680003B68986CFCF754FABDF90820B8F90C3001909A421CD1B8F81230ADF80E30B8F81030ADF80C30344B1B689A6C5AB11046FCF734FA804600222946006AFFF7B6F957
:4046C000D8F81820F2E7019B2946D869FFF7AEF9BDF80830ADF80C303B689A6C6AB11046FCF71CFA002280462946006AFFF7F1F90028EDD1D8F81820F0E7019B2946D8694D
:40470000FFF7E7F90028E3D1B4F91030BDF90820ADF80C309A4207DD95E8030086E8030001A8FCF713FA97E73B689A6C52B11046FCF7F4F9074600222946006AFFF70CFA1D
:40474000BA69F3E704AF57F80C3D2946D869FFF703FA3846FCF7FAF944F62063E2699A4289DC95E8030086E80300FFF70FFC012004B0BDE8F08100BF1C81FF1FF8A2FF1F92
:404780002DE9F041394E86B03268804692F8543013B9FFF7FBFB64E0354F3B6A3D460133012B3B625DDC906CFCF7C2F94FF0FF33FB61304B00901B7813B102AB083004E007
:4047C000836A13F002040CD002AB03C802AC83E80300B8F1000F0CD04146204601F02FF807E03B6A6846013B3B62FCF7AFF9204638E03368204F5A6CC2B1009B106851687F
:40480000019304AB03C33B6833B101A8FCF79EF93868FCF78DF9019004A90198FFF786FB204604A901F00BF801A800E06846FCF78DF9396819B12046FFF7DCFA28B1336886
:404840002046996CFFF7D6FA18B92B6A013B2B6208E00A4B94E8030083E80300FFF7CEFE00E0012006B0BDE8F08100BF1C81FF1FF8A2FF1FC5A4FF1FA8A4FF1F04A3FF1F37
:4048800008B5FCF731FD024B00221B685A6408BD1C81FF1FF0B589B00446FCF749F902AE0769856A0190083003C886E8030001A8FCF74CF9002F32D0AB0730D52E212046FB
:4048C00000F093FB174B15F4805F1A781D4602F101021A700AD00F23059404930796FFF7CFFF04A9204600F0BFF911E03046FFF747FF68B10F27059404970796FFF7C0FFAB
:4049000004A9204600F0B0F9FFF778FE0028F2D12B782F21013B20462B7000F066FB09B0F0BD00BFC5A4FF1F2DE9F04188B00390FCF7FEF8034644F220049D6A00F10802A7
:4049400006AE05902C4092E8030086E8030005A89F69D3F81080FCF7F9F8002C35D0B8F1000F17D003993046FFF744FA90B10398FFF7B0FC69070FD527B105F0010585F070
:40498000010500E001250095002303AA1149304602F0B6F8002403E00398FFF7B9F901240398FCF7C5F8826A059022F4804323F02003920448BF43F00403836205A8FCF770
:4049C000C5F8054A1388013B1380204608B0BDE8F08100BF893D0000BCA4FF1F2DE9F0431C4B9DB01A681D4692F8540078B31A4B18881F4658B3194B9C681E460CB9184BB6
:404A00001C686846FCF70AFC2B68D3F830805D6B24B900240DE0B9F1000F0AD12046FFF783FF81462046FCF779F84469002CF2D1EFE74046B460FCF710FC2846FCF70BFC11
:404A40006846FCF7F5FB3888003018BF01201DB0BDE8F0831C81FF1FBCA4FF1FF8A2FF1FC0A4FF1F38B5164B1B6803B198470025FFF782FD08B10125FAE7124B1B6893F83C
:404A8000544044B1104B1C882CB1104B1B688BB11B6898470124FFF7A1FF08B10125FAE764B10A4B1B6813B15B68984706E000F0ABFE03E0012000F0A7FEEBE7284638BDFA
:404AC000B4A4FF1F1C81FF1FBCA4FF1FD4A4FF1F024B01221B6883F8542070471C81FF1F034B00221B6883F85420FEF757BC00BF1C81FF1F10B5044623684068172B10D055
:404B000007DC0E2B0FD0142B14D1E16800F05CF910E0222B0CD0282B0CD1BDE81040FFF7D5BBE06010BD2146BDE8104000F05FBA024B00E00023E36010BD00BF785634FF72
:404B4000036810B50E2B044602D00F2B09D011E0C3685A68012A12D1BDE810401868FDF71BB8074B1868074B984203D0FCF773FBFCF738FC2046BDE81040FFF7BBBF10BD84
:404B8000CCA4FF1F785634FF30B51D4C85B02178002932D11B4B084619601B4BA1601B681A4D59641A4B19801A4B198004230293194B01930223009343F6FF731A46FFF77A
:404BC0004FFC164A164B28601A60FFF77FFB154800F0F2F8144800F0EFF82868FFF77AFBFFF776FF204601232370104B40F8243F05B0BDE83040FCF705BC05B030BD00BF75
:404C0000F8A2FF1FC0A4FF1F1C81FF1FACA4FF1FBCA4FF1FA4A4FF1F414B0000785634FFCCA4FF1FECA4FF1FE4A4FF1F7D39000008B500F0FFF818B1FBF770FFC06908BD4C
:404C400008BD38B50546FFF7F3FF044654B1AC4207D02046FBF762FF036A9D4202D01C46F4E70024204638BD70B50D4C064623680D46132B12DCFBF751FF02696E6042B166
:404C8000236828460133236090472368013B236070BD2846BDE87040FFF72CBF70BD00BF28A3FF1F30B5044685B010220D466846002103F00DFF2046FBF730FF03691BB107
:404CC000019400956846984705B030BD2DE9F04F8BB00393BDF80C3001910493BDF80430D0F81CB00593BDF8503002920693BBF1000F5ED05846FBF71BFF826A099002F496
:404D000020718029B0F900A0B0F90230B0F90480B0F9069008D0B1F5207F07D101990AEB010636B2039905E0049900E0059901EB0A0636B202F4A06201EB0805B2F5807F1F
:404D40002DB207D0B2F5A06F0AD1029A9F183FB2149A02E0069AD7183FB209EB020405E0BDF80810CF183FB201EB0904B6EB0A0124B2A7EB030200D122B15846079300F036
:404D80000EFA079BAD1BCAEB0808E41BC3EB0909B5EB0801C9EB040200D112B1584600F0A9F80AA850F8043DD3F820B0FBF7CEFE9DE70BB0BDE8F08F024B1A680260186037
:404DC000704700BFD0A4FF1F37B50D4658B151B1FBF7AEFE02AC44F8040D2946FFF72EFA2046FBF7B3FE03B030BD0000044B0146186810B9034B1B68986CFFF7E5BF00BF85
:404E0000A8A4FF1F1C81FF1F014B1868704700BFACA4FF1F08B5034610B1FBF77FFEC369184608BD08B520B1FBF778FEB0F9000008BD08BD08B5034610B1FBF76FFE8369DD
:404E4000184608BD2DE9F043044687B0002839D0FBF76EFE034604AD019003C885E8030001A81E6AD3F82890FBF770FE2046FFF7E8FE074630B32046FFF7DCFF19F0020F19
:404E8000804604D0014632462846FFF7B4F92046FBF74EFE01904046FBF74AFE03903846FBF746FE039B019AD96906620290116201A8DC61FBF74AFE03A8FBF747FE02A8B8
:404EC000FBF744FE07B0BDE8F08300007FB5084A0346106848B1009301910E2302A90293CDF814D0FFF7C0FE012007B05DF804FBB8A4FF1F2DE9F04151EA02038AB080464F
:404F00000F4616466ED000286CD0FBF711FE04AC06AD0346039003C884E8030085E803007FB19A6A02F42072802A0BBFBDF81820BDF81C20D71BBF180CBFADF81870ADF8C0
:404F40001C7086B19A6A02F4A062B2F5807F0BBFBDF81A20BDF81E20961BB6180CBFADF81A60ADF81E609B6ADA0302D54046FFF741F895E80300039B83E803009B6A9B07F3
:404F80000AD52A46214608A8FCF7B4F8039B08A81A6A9969FFF72FF9BDF91E00BDF91670BDF91840BDF91C60BDF91430BDF91A50BDF91220BDF91010C01BF31AAA1A611AAB
:404FC00000900AAC0398FFF781FE54F81C1D01F1080000F034FC40460521FFF724F92046FBF7B4FD0AB0BDE8F081FFF75BBE38B505460C4641B1FFF71DFF28B1A560214642
:40500000BDE83840FFF730BE38BD1FB52623039169460093FFF7EBFF05B05DF804FB2DE9F3410F4690460646E0B1FBF781FDB0F90450B0F90040B0F902302C1B01343D1B47
:40504000B0F906400DF1080EE31A4EF8040D0133C3EB08047046FBF779FD224629463046FFF748FF02B0BDE8F0810000044B10B51B685C6C5864FEF789FF204610BD00BFF1
:405080001C81FF1F2DE9F047164688B0102204460D460DEB0200002103F01AFD03270DF108082CB32046FBF743FD324629460190FCF74BF80198324629460830FCF745F81B
:4050C000019B01A8D3F81CA0D3F82090FBF73EFD324629465046FFF7D5FF204604A90497CDF81C80029503964C46FFF7BDFDD8E708B0BDE8F0872DE9F04306468BB00D46BE
:4051000014460021102206A803F0E2FC002E43D00DB9002C40D03046FBF70AFD03460DF108080190224603C888E8030018462946FCF70BF801982246294608300AAFFCF7EC
:4051400004F857F8243DD3F81C903846FBF7FEFC224629464846FFF795FF3046FBF7E8FC826A019092070AD5816941B1026AFFF72DF8019B40461A6A9969FFF727F83846D4
:40518000FBF7E4FC0323069306A904AB3046099304950594FFF768FD0BB0BDE8F083FFF7AABF37B5054668B1FBF7C2FC02AC44F8040D006800F058FD2046FBF7C7FC2846FE
:4051C000FBF7E4FC03B030BD73B5054601A800F017FD0446DCB10121204600F077FD019B83B178B11846FBF799FC4368AB4209D101A92046019E00F01BFD04463046FFF79D
:40520000D0FFE7E701A9204600F012FDE1E702B070BD00002DE9F04F06460F46904687B09DF850300493129B9D00109B05EB8303039300230193184B139A0199914228D03F
:40524000C246B346DDF8489002975BF8040B0499020EC2F1FF024A43FF21B2FBF1F2029CD2B254F8041B20F07F4002941C680593A047B9F1010920F07F404AF8040B059B7E
:40528000E3D1039A2E441744019AA84401320192D2E707B0BDE8F08F6081FF1F81F07F4180F07F400B0E4FEA106302FB03F24FF0FF03B2FBF3F208BF20F07F4130B5C0F3D7
:4052C00007249D1A44F080730C0A04F0FF146C4300F0FF1002FB0344424301F0FF1305FB0321090A04F0FF2401F0FF1144EA010080F07F4030BD000010B5084C2068FBF7E1
:4053000003FC6068FBF700FCA068FBF7FDFB0023A36063602360E360236110BD2CA3FF1F2DE9F843294C1D4623690646884617463BB9204601232361254B40F8143FFCF7BD
:4053400061F8E368DFF8849043B9224B1B68C9F80C301BB9FEF724FAC9F80C000DB1E3682B607EB12368194D43B9E8688000FBF7A5FC2860B0FA80F56D0900E00025236841
:40538000336000E03546B8F1000F0DD063680F4E3BB9F0688000FBF791FC0028706008BF01256368C8F8003067B1A368074E3BB9F0688000FBF782FC0028B06008BF01257E
:4053C000A3683B602846BDE8F88300BF2CA3FF1FF952000090A4FF1F2DE9F04F93B01D9F002509900A9192461E463D6011AB2A4610A90FA8FFF794FF0446002840F0BD80A6
:40540000119B604DB342A8BF334608932B682646587C5D4B53F8203004931B690B93FEF78BF92B680590587CFEF7A4F9DDF820B006900D95534653F8040B0C931C9B9847C8
:40544000030E0390079300F08680002E3BD1099B089A03EB04090D9B1B68B3F908304B45C4BFC9EB03069946099B351903EB0208049BAD0001930F9B48462B4400930A9B16
:4054800008F1FF32194602F00DFB059B0F98172B07DC0B9B059AC6EB0B01284400F089F803E03A4B069A9A4201D101260BE00544C9EB08082868069B9847B8F1010845F84A
:4054C000040BF7D1F1E7324BA500D3F81C80B8F1000F27D0109C0F99621929440F915B4610925046C04710990F9D00235AF8230000F07F42B2F17F4F55F8232002D141F85E
:40550000232006E002F07F42B2F17F4F08BF41F8230001339B45E9D13B68109443F001033B6028E0079B9DF81C20FF2BDDF8408004D10F9B5B5948F8053014E0D2430F9B7F
:40554000D2B25959039B23F07F40124B1B68984748F8050003E0109B039A43F824203B6843F001033B60BBF1010B04F10104DDF830A07FF45FAF109800E0284613B0BDE82C
:40558000F08F00BF1C81FF1F8CA4FF1FB95D00002CA3FF1F6081FF1F1FB508B9024600E003AA002302A901A8FFF7BAFE05B05DF804FB2DE9F0470C1E054640F3B680082AAD
:4055C0005E6804DD102A40F39A80BDE8F087013A072A00F2AA80DFE802F0042DA859A8A8A885671EFB1004F1804808F1FF3803F1FF3905EB880807F00707A94415F803A0A6
:4056000080253D41EDB2C7F1070305EA0A001841B04748F8040937B999F800A0012509F1FF39072702E06D00013FEDB2013CEAD1BDE8F087671EBB1004F1804803F1FF392E
:4056400008F1FF3807F0030715F803A005EB8808A944C0237D0043FA05F5EDB27B00C3F1060305EA0A001841B04748F8040937B9032599F800A02F4609F1FF3902E0AD0059
:40568000013FEDB2013CE9D1BDE8F087671E7B1004F1804803F1FF3908F1FF3807F0010715F803A005EB8808A944F023BD0043FA05F5EDB2BB00C3F1040305EA0A00184145
:4056C000B04748F8040937B999F800A00F2509F1FF39012702E02D01EDB20027013CE9D1BDE8F08705EB84072544641B15F8010DB047E54247F8040DF8D1BDE8F0875F6935
:4057000037B122462946BC46BDE8F0470223604705EB440705EB840537F8020DB047013C45F8040DF8D1BDE8F087BDE8F0870000F7B5061E0C4662DC324D6B6803B1984746
:40574000012C04D0022C20D0002C58D133E005EB8605AF68AFB93046FBF7EAFE019000284DD0C3680D215B6A01A898470346002845D0214601989847AB6838460133AB60A7
:405780003EE0781CA86020463AE03046FBF7D0FE0190002833D0C3680D215B6A01A89847044600282BD02B6803B1984702210198A047002024E0B4002B199B68012B01D0C5
:4057C000012015E03046FBF7B3FE01900028F7D0C3680D215B6A01A8984706460028EFD0084B1B6803B1984700210198B04700202544AB68002B18BF013BAB6000E0012021
:4058000003B0F0BD4CA3FF1F024B01461B68587CFFF78EBF1C81FF1F13B50368044602A840F8043DFCF7F0F920B10A2804D1019B236001E0012000E0002002B010BDB1F974
:405840000030B0F900209A42B8BF0380B0F90220B1F902309A42B8BF4380B0F90420B1F904309A42C8BF8380B0F90620B1F906309A42C8BFC380704770B5B1F90030B2F9D5
:40588000005006469D42B8BF1D46B1F902300580B2F90200B1F904408342B8BF0346B2F9040073808442A8BF0446B2F90600B1F90620B4808242A8BF0246A542F28004DC98
:4058C0009342CCBF0020012070BD002070BD70B5840742BF02F1FF3201800230540824D0032C234601EB014502D800EB830317E0264600F11003043E032E43F8105C43F8E4
:405900000C5C43F8085C43F8045C03F11003F2DC043CA3085E1C00EB0610A4EB8303E4E7984202D040F8045BFAE7D30748BF018070BD00000A4B1A68938D03F00C03082BCB
:4059400007D00C2B05D0042B07D1D369187E01387047D369187E400870470020704700BF1C81FF1F024B1B68DB69587E704700BF1C81FF1F024B00211B68DB695B681847E7
:405980001C81FF1F024B1B68DB695B68184700BF1C81FF1F7047000073B5154602AB214A43F8081D19460190126890471E4C01902368586940B90120FFF726FF2268D36947
:4059C0005B693BB9194D22E02946FBF709FC0028F1D124E0164C9B68216841B1B2F9225001980099984723682846984714E000990198984710E001A8FCF706F923680646E6
:405A0000DB691B6898472B680BB130469847009B013B002B0093EEDA0020FFF7F5FE02B070BD00BF7081FF1F1C81FF1F68A4FF1F5CA4FF1F37B50D460190044688B10A4B5E
:405A40001B68DB695C6954B1646844B1A04709E001A8FCF7D9F820B10A2802D00134AC42F6DB204603B030BD1C81FF1F13B5002402A941F8044DFFF785FF019B9842ACBF91
:405A80002046181A02B010BD37B5154A02AB43F8081D01901268194690470190E8B1114B1B68DB695C690CB124680CB9254602E00099A04711E0009B013B002B009307DBE1
:405AC00001A8FCF7A1F80446FFF754FF0544F2E72046FFF7CBFF2844FFE703B030BD00BF7081FF1F1C81FF1F274BF7B51B6805460E4663B10020FEF743FE002841D06A4688
:405B000031462846FFF748FFFEF778FDF5E76B46106851681D4C03C32268BDF80030B2F84C70B2F850003B44BDF80210BDF80420ADF80030BDF80630014403443A44684686
:405B4000ADF80210ADF80420ADF80630FEF718FE236840B9D96C5A8C521A5A84196D9A8C521A9A840DE0BDF8002031465A84BDF8022028469A846A46FFF70EFFFEF73EFD33
:405B8000E6E703B0F0BD00BF48A4FF1F1C81FF1F70B5074C064623685D7C30B9FBF7C8FC18B123685E74FBF74DFB284670BD00BF1C81FF1F37B50546E8B1FAF7B9FF0F4B25
:405BC00000905C68A54205D142685A6010E001A8FAF7BCFF64B12046FAF7AAFF44680190A542F4D1009B5B68436001A8FAF7AEFF6846FAF7ABFF03B030BD00BF60A3FF1FDC
:405C0000002337B50360094B05461C6854B12046FAF78EFF02AB026943F8040D2A601846FAF794FF204603B030BD00BF60A3FF1F002373B50B600E46044690B1FAF778FF33
:405C4000846802AD45F8040D44B12846FAF77EFF2046FAF76DFF0369019033602846FAF775FF204602B070BD73B5044650B3164E3568A8420BD1FAF75BFF02AB826843F8A6
:405C8000040D3260184615E06846FAF75FFF9DB12846FAF74DFF85680090AC42F4D12046FAF746FF009B826801909A6001A8FAF74DFF6846FAF74AFF2046FFF77BFF204612
:405CC000FAF764FF02B070BD60A3FF1F13B50C4668B1FAF72DFF02AB828943F8040D2242184614BF01240024FAF730FF00E00124204602B010BD08B5FDF716FDB0F5807FAC
:405D000010D07F2810D83F2810D81F2810D80F2810D8072810D8032810D8012894BF002001200CE008200AE0072008E0062006E0052004E0042002E0032000E002200123FF
:405D400003FA00F0013808BD38B50446FDF7ECFC0546FDF707FDA54203D918B150F8240038BD002038BD2DE9F8438146FDF7DCFC0746FDF7F7FC0646E0B1002056F820302D
:405D80004B4517D001308742F8DC002425466FF07F4856F825104846FBF772F9804588BF2C4605F1010588BF8046AF42F1DC2046BDE8F883BDE8F88370472DE9F3410F463A
:405DC00090460646FAF7B4FE036802ACDB6844F8040D5B6A16210020984705462046FAF7B5FE1DB1424639463046A84702B0BDE8F08100002DE9F04F464D1C462B6887B0CF
:405E000081468A4690465B7C002212991198109FFBF7A0FB0395064680B303699B689847FDF713FD00FB08F50290FAF7B7FF17F0010704BF042390FBF3F005F1070508BFA2
:405E400000EB4000002C4FEAD50544DC1DB11838B0FBF5F000E0284664428442A8BF044677B90097234642465146484601F000F9002C834639DC3046FBF76AFB002046E09B
:405E8000002CF8DD05FB04F01830FBF715F807460028F0D04FF0000B3846FAF749FE0346029A06A840F8043DA3F804901E60A3F806A0A3F808805C81DD601A61C3F814B040
:405EC000FAF744FE129BB7603361039B1B685B7CB36138461BE0002FD4D10097234642465146484601F0C4F8834605FB04F01830FAF7E6FF07460028CED13046FBF728FBEA
:405F0000BBF1000FBAD05846FAF740FEE1E707B0BDE8F08F1C81FF1F37B5044670B1FAF707FE036802AD1B6945F8040D9B689847FDF78BFC04462846FAF708FE204603B093
:405F400030BD000037B50446D0B10E4B1B68DB6D984201D1FBF776F92046FAF7E9FD0190406908B100F0B4FF02AD55F8043D1868FBF7EEFA2846FAF7E9FD2046FAF706FE42
:405F800003B030BD1C81FF1F2DE9FF470F4690469946184B06461B680C9D587C164B53F82040E3681B68042B06D02468002CF8D1FBF7BEFA044630B1E3680121DB6A204624
:405FC0009847824608B9002010E02469A3689847013004BF094C45F0010502948DE820044B46424639463046FFF704FF04B0BDE8F08700BF1C81FF1F8CA4FF1FECA90000CB
:40600000114BF7B51A680646D76D1C4610B9FBF719F916E00FB1FBF715F9FEF761FD3046FAF786FD236802AD45F8040DDE650068FBF7CCFA2846FAF789FDFDF78DFCFDF7E3
:40604000ADF9384603B0F0BD1C81FF1F2DE9FF410C461546064600283DD00020FBF7FFF81E4B07461B683046D3F85C80FAF760FD0190FBF7E7F8019A194B9C42138908BF0E
:40608000B2F9044003F1FF332344ADF80C30538908BFB2F90650013B2B44ADF80E30ADF80840ADF80A50FEF713FD01A8FAF74EFD02A8FEF765FB30B94046FFF7A1FF3846F9
:4060C000FBF7CDF807E02A462146304601F072F8FEF794FAEFE704B0BDE8F0811C81FF1F01F0FFFF014A1146FFF7B0BF01F0FFFF0129024818BF0020704700BF60A80000AE
:406100001629024818BF0020704700BFB5710000006810B1C3681B6A1847704737B580680D46FAF705FD0246B2F904301489B2F906102B801C44538902A80B44013B013C5C
:4061400040F8042D6980AC80EB80FAF7FFFC03B030BD00000E4B73B51B680646D86D0D46FAF7E6FCB0F90610C468691AB0F9045002AB761B7600183604FB016543F8040DD1
:4061800044191846FAF7E2FC204602B070BD00BF1C81FF1F08B508461146FFF7DBFF008808BD0000144BF7B51B680746D86D16460D46FAF7BDFC314600902846FFF7CAFF6A
:4061C0003B6904469B68984723885840009B2080586960B1FAF7ACFC836802AC44F8040D1B683246294698472046FAF7AFFC6846FAF7ACFC03B0F0BD1C81FF1F73B51C46C9
:40620000104B0D461B681646D86DFAF791FC314600902846FFF79EFF009B0480586960B1FAF786FC836802AC44F8040D1B683246294698472046FAF789FC6846FAF786FC76
:4062400002B070BD1C81FF1F2DE9F7432C4C1E4623688046D86D0F461546FAF769FC00904069A14608B1FAF763FC019029463846FFF770FFD9F8003004461A7CD2071FD502
:40628000D8F810309B6898471FFA80F8019820B183682A461B68394698472388013588EA03032380009BB542DB681C44EEDD6846FAF74CFC019B03B301A8FAF747FC1CE0A7
:4062C000DB6B009AD3F80090019BD2F80C8063B101982A46836839461B6801359847AE42A4F800904444F3DAE1E7751B0135013DA4F800904444FAD1D9E703B0BDE8F0830B
:406300001C81FF1F2DE9F04F2A4F1D463B681446DA6B87B012688346D86D89460292FAF707FC214604904846FFF714FF049A0646D3685069C9EB0505039305F1010A88B11B
:40634000FAF7F6FB109B0DF118081B1B013348F8040D224600934946534600F0CDFD4046FAF7F4FBBDF808806D00109B9C421ADC3B681B7CDB070DD5DBF810309B68984758
:40638000B31E80B2711933F8022F42408B421A80F9D104E0524641463046FFF798FA039B01341E44E1E704A8FAF7D0FB07B0BDE8F08F00BF1C81FF1F07B50092FFF7A2FFA1
:4063C00003B05DF804FB00002DE9F04F904D91B002932B680A90D86D0E4605921D9CFAF7A7FB0E90406908B1FAF7A2FB0F9010A850F8083DDB680793FAF7A8FB1E9B0F98A2
:4064000006EB030B50B12B681B7C990706D11A9B059A00935946029B00F06EFD05995846FFF798FE1B9B0546102B22D1029BDFF8E4914FEA430800261A9B9E4280F24A83DF
:406440008CB185B10F9F424621462846D9F80030984747B1BB68059AD3F804A03244029B59463846D0471C9B01361C44079B1D44E2E71B9B172B44DD6FF0030303FB0BF3BA
:4064800006936FF0010303FB0BF30493029B4FF000085B4408931A9B984580F21B83059B03EB080934B91C9B08F101081C44079B1D44F0E7002DF6D00F9F37B1BB684A46D2
:4064C0005E685946029B3846B0475E46069B04EB030A049BEB1803930A9B5AF826001B691B689847039B23F816002FB1BB684A461B68314638469847089B01369E42EBD17A
:40650000D1E71B9B082B40F08780029B059E5B0006936FF0010303FB0BF30393029BDFF8F0905B44013C0493059B1A9AF31A9A4204F1010140F3CE821F9B002B36D0D9F880
:4065400000301B7C13F0030309D0022B5AD1039BDDF83C80EB180893A2465F4621E0069B2246E9182B4612F8010F1F9F57F8200023F8020B8B42F6D144E01F9A52F82330C7
:40658000089A22F81730B8F1000F06D0D8F8083032461B68394640469847049B01379F4230D01AF8013F002BF7D0E6E7D9F800301B7C13F0030309D0022B23D1039BDDF88C
:4065C0003C80EB180893A2465F4616E0114B029A28461B68984715E0089A22F81730B8F1000F06D0D8F8083032461B68394640469847049B01379F4204D01AF8013F002B80
:40660000F7D0E9E7079B01361D441C9B1C448BE71C81FF1F6881FF1FAF4B1F9A002A08BF1A461E9B1F925B000B931E9B9B000C93631C0393831C0693059B0493069B059A20
:406640009C1E039B03F1FF3A049B9B1A1A9A9A4240F340821B9B022B00F0C980042B00F06481012B40F02A829C4B1B68D86DFAF75FFA1E9B9A4AC3F10805039B0E9013F8F6
:40668000013CDDF83C90D65C1E9B029F1E41934B1B681B7C03F00303022B1FD0032B59D0012B57D0BD4228BF3D4622462B467F1B1F9806F0010150F82110013B22F8021BE3
:4066C0004FEA5606F4D104EB4504002F00F08B801AF8013F824A0825D65CE3E7D8461F9B9B880893BD4228BF3D467F1BB9F1000F24D01EB904EB4504A84423E0F20709D57C
:40670000D9F80830049A1B68414648469847BDF820302380013D08F1010804F1020411D07608E6E7F30748BFBDF8203004F1020448BF24F8023C013D04D07608002EF1D14A
:4067400004EB4504002F4ED01AF8013F644A0825D65CC7E70A9BD8461B699B68984783B20993039B0893BD4228BF3D467F1BB9F1000F1CD0A24608EB05030D93F0070CD551
:40678000D9F80830049A1B68414648469847BAF80030099A5340AAF800300D9B08F1010898450AF1020A4FEA5606E7D10FE02A462346F10744BF1988099803F1020344BFF5
:4067C000414023F8021C013A4FEA5606F1D104EB450447B1089B424A1B780825D65C089B01330893BFE70EA8FAF7B0F966E11E9BC3F10405039BEDB213F8016C0B9B9E409E
:40680000364BF6B21B681B7C03F00303012B09D00AD3022B40F052810F9BDDF8088008935F4636E0029B79E0029B9D42C8BFDDB22A4621465B1B1F9FB00957F82000013AB7
:40684000B60012F0FF0221F8020BF6B2F3D1013DEDB2013504EB4504002B00F02F811AF8016F0425E1E716F0C00F24D10D9B09F10109B6009945F6B2F5D16B1C013704EB1E
:4068800043042F44B8F1000F00F018811AF8016F04254545C8BF5FFA88F5C5EB0808013DEDB27B1C2B440D936FF0010303FB0743B9460993D7E71F9AB30952F82330099A4F
:4068C00022F81930089B002BD0D09B68049A1B68494608989847C9E794A800001C81FF1FECA8000016F0C00F18BF088802F1FF321CBF80F0FF000880B60012F0FF0201F17D
:406900000201F6B2EED1013DEDB2013504EB4504002B00F0D3801AF8016F04259D42C8BFDDB25B1B2A462146DCE7039B0C9A13F8013C93406B4ADDB21268127C02F00302E2
:40694000012A00F0958002D3022A35D0B6E01E9B5BB11F9B2D0953F82530039A2380029B069C013B1578924600E0029B012B1ADD5910221D03F001030AEB01001F9F2E09AC
:4069800005F00F0557F8266057F8255022F8046C22F8025C1AF8015F3E46824502F10402ECD104EB8104002B00F088801F9B2D0953F82530238081E01E9A0F9EC2B113F0BA
:4069C000F00F0BD01F9B2D0953F8253023802EB1B368049A1B68594630469847029B069C03F1FF38039B0BF101071D789A460FE0DDF808805F460BE015F0F00F0CD115F038
:406A00000F0517D11AF8015F04340237A8F10208B8F1010FF0DC1AE01F9A2B0952F823302380002EEBD0B368049A1B68394630469847E4E71F9B53F825306380002EE1D048
:406A4000B368049A1B68791C30469847DAE7B8F1000F33D02D0931D01F9B53F82530238066B3B368049A1B6839463046984725E01E9B029AC3F10203DBB29342C8BFD3B296
:406A800019462046D21A15F0C00F18BF068801F1FF311CBF86F0FF0606802D0111F0FF0100F10200EDB2EED1013BDBB2013304EB43041AB11AF8015F0223DEE7049B1C9ABF
:406AC00001330493039B13440393079A069B13440693B3E50F9B13B10FA8FAF737F811B0BDE8F08F1C81FF1F082904D0006820B1C3689B6A1847102070474FF0FF307047B8
:406B00002DE9F04F9846524B87B003921A680646547C504A029112572046012A9B4606DDFCF7E0FD81462046FCF7DFFD05E0FCF7DFFD81462046FCF7DEFD044636B305A9D4
:406B400004A8FAF7C9FA049A059B9144B6F90070B6F9025009F1FF321C44B6F90490B6F9063027EAE77725EAE575013C4A45D4BFC7EB0209C7EB09099C42D4BFC5EB0404EE
:406B8000C5EB030409F10109013401E035463746B8F1000F01D1C4F10008B9F1000F53DD002C51DD109B4A460093294643463846FFF7EAF9064620B90398029B9847012008
:406BC00043E000F06BF88442804606D0DBF80030986C10B13221FEF765F83046FFF710FAA2464FF00009D04503DD5146304600F06DF8B9F1000F08D0304609EB05023946D2
:406C000000F07AF8304600F029F8029B03989847114B1B680BB1002098473046C144FFF761FA4C45C8EB0A0ADDDC3046FFF78AF90020FFF7E5F9444506D0DBF80030986C94
:406C400010B13321FEF72EF8002007B0BDE8F08F1C81FF1F3CA4FF1F74A3FF1F13B518B90D4B1B68D86DA8B1F9F762FF02AB446943F8080D1846F9F769FF5CB12046F9F7D5
:406C800057FF836802AC44F8040D9B6898472046F9F75CFF02B010BD1C81FF1F13B518B9094B1B68D86D50B1F9F742FF02AB43F8040DB0F90A401846F9F748FF00E0044639
:406CC000204602B010BD00BF1C81FF1F13B50C4618B9084B1B68D86D50B1F9F729FFB0F90A300190A342C8BF448101A8F9F72EFF02B010BD1C81FF1F37B50D46144618B907
:406D0000124B1B68D86DF8B1F9F712FF24B22DB2C48085800090FCF741FB009B586980B1F9F706FF009B0190B3F90820B3F90A308280C38012B10BB10580448001A8F9F7B9
:406D400005FF6846F9F702FF03B030BD1C81FF1F2DE9F04F87B00746F9F7EAFEB0F90090B0F904600DF11808B0F90250B0F906B048F8040DC9EB0606D0F824A0013640464C
:406D8000F9F7E4FEC5EB0B04002E04F101044CDD002C4ADDBAF1000F49D05046F9F7C8FE06ABB0F9046043F8080DB0F906401846F9F7CCFE4E4501D1AC4231D02A46494617
:406DC0005046FFF799FF2BE0836A43F4803383624046F9F7BBFE2846FFF712F98046504601F032F8284601F051FD04FB06F22B4B2B491B68920009782A4C2B4D9847384624
:406E000026682F60FEF70EF820603846FDF742FD00202660286001F017F84046FFF7F0F83846F9F77BFE406A35E0002033E0FDF7EBFF874212D1FCF767FC8246FCF76CFC9B
:406E4000564502DC844209DD00E056468442A8BF0446314622463846FEF7E1F8134B4FF0010A0293124B2946019332462346CDF800A04846FEF7BEFF05463846F9F758FE9D
:406E800005904562002D9FD14046F9F75FFE3846FDF700FD284607B0BDE8F08F6C81FF1F7481FF1F4CA4FF1FDCA4FF1FECA9000004AA000038B5054605242846FFF748FF55
:406EC00010B9013CF9D138BDBDE8384000F02CB937B50546F9F72CFE848902AB013C24B243F8040D84811846F9F730FE14B92846F9F74CFE03B030BD2DE9F8430546884671
:406F00009946089C1444AB68561C5F6841464B462846B847B4423246F5D1BDE8F883B0F90030C91AB0F90230D21A03695A43143202EBE102802301F0070143FA01F1835C05
:406F4000194381547047B0F90630F0B5934244DD0C68B0F90460B4423FDAE3101D46076907FB0232731EC5EBE30302F115051432825C054404F007008240D2B23AB973B328
:406F8000083415F8012B013B24F00704F6E7170603D45200D2B20134F9E7FF2A06D02046560604D55200D2B20130F9E7E01D00F00702072A0DD1013B0BD415F8012BFF2A42
:406FC00001D10830F7E7130603D55200D2B20130F9E7001B0C600130F0BD0020F0BD1846F0BDF9F7D3BDB0F90630026900215A43143001F06DBDF8B5B0F90040091BB0F94A
:407000000440A14232DA0B44013BDF43B0F90250CE10521B056901F0070405FB0265FF2107F00707143541FA04F401FA07F7D6EBE30600EB0502E4B2FFB210F805E004D11A
:407040003C404EEA04044455F8BD44EA0E044455751E002D02F1010305DD18462A4601F037FD03462B441C783C431C70F8BD00002DE9F74302F10F0424116400804603FBE2
:4070800004F014300F4616461D46F9F719FF814688B1F9F74DFD0346094A02A89A60012240F8043D9E80A3F800805F80DD809A811C61F9F74BFD484603B0BDE8F08300BF09
:4070C000D4A800007FB50C461546064640B3F9F72FFD144B01909C42038908BFB0F9044003F1FF332344ADF80C30438908BFB0F90650013B2B4401A8ADF80840ADF80A508A
:40710000ADF80E30F9F722FD02A8FDF739FB38B12A4621463046FEF750FEFDF76FFAF6E704B070BD01F0FFFF014A1146FFF7CABF01F0FFFF2DE9F84F81460D4616461F46C0
:4071400014468846DDF828B0DDF82CA039F8020BD847D047013C48F8040BF7D11F2F06D83A4631462846BDE8F84F00F0E3BCBDE8F88F2DE9F84F80460D4616461F46894693
:407180000446DDF828B0DDF82CA014F8010BD847D047331B18EB030F49F8040BF5D11F2F06D83A4631462846BDE8F84F00F0C2BCBDE8F88F2DE9F04F9BB00891099205463A
:4071C000002800F09983F9F7B3FC1AAB43F81C0D44691846F9F7BAFC2846FEF79DFE08280746A54E02DD002C00F0C98101230027284619930D931897F9F79AFC0268B0F9E2
:407200000A3012690E93536832680DF1680949F8140D0469D0F81480D0F80CA0B0F908B0507C0C93FCF788FA32680B90507CFCF7A1FA0A904846F9F789FC082C0A9A0D9BA8
