:400000000080002011000000910B0000910B000008B5044B1A6803F53F5302331A6000F0D1FD00BFFA46004010B5054C237833B9044B13B10448AFF300800123237010BD71
:400040000882FF1F0000000084940000084B10B51BB108480849AFF300800848036803B910BD074B002BFBD0BDE81040184700BF00000000849400000C82FF1F0881FF1F0F
:400080000000000008B5044B1B7813F0FF0F01D000F048FC08BD00BF2482FF1F10B582B002AB03E90300184B186850BB002323E09DF8031003EB4302144CA25C91421AD1A5
:4000C0009DF8041003EB430222445278914212D10F4A03EB4303234419889B78118093700124094B1C6002F00DFCC043C0B202F0FDFB204606E00133044A92689342D7DB64
:4001000000E0012002B010BD28A4FF1F0C81FF1F24A4FF1F2DE9F04383B007460E4615461C461C4803F012F907EB050909F1FF3906EB040808F1FF38384631464A4643461B
:4001400004F07EF96FF07F4003F000F9032003F0CDF8384631464A46434602F009FC012003F0C4F8ADF80070ADF80260ADF80490ADF806806FF07F4003F0E8F8064803F0A8
:40018000F3F80A9869460E22012303F08BFC03B0BDE8F083C44D830074F0000070B596B003AC84E8070014A800F070FB9DF853308DF84C309DF854308DF84D30484D94E889
:4001C000070085E80700BDF84C30AB819DF813209DF81430C3EB03139B004FF4616101FB02332B619DF81530002B74D03D4803F0ABF803F04DF93C4803F0B6F83B4C06AB6B
:400200002068616803C36FF07F4003F09FF8384806A90E22012303F045FC364803F0A4F8354803F093F808AB54F8080F616803C3039808A90E22012303F034FC01222F4B3B
:400240005A7002222A712E4B00930A204FF48571E6224FF49B73FFF75DFF37E0204B1C69284A82FB0432E1172244C1EBE2224FF4616000FB1240244D85FB00360644C31705
:4002800085FB04502044C1EB6011C1EB01118900611A00910CA81D49C3EB661308F0FCFC0AAB124A52F8100F516803C30E4803F05BF86FF07F4003F049F80AA803F0DEF803
:4002C0000CA80AA90E22012303F0ECFB044B1B79022BC3D000E0FEE7002016B070BD00BF0CA4FF1F442B26008CE3000088940000C094000074F00000C5AB8D002482FF1FC8
:40030000D4940000C5B3A29189888888E094000070B58CB0254C0AAB224652F8180F516803C3234803F012F83C205021B422F02304F086F86FF07F4003F008F804AD203490
:400340000FCC0FC594E8030085E8030004A808F0C7FC431E0022009204A80AA90E2203F095FCFF241E2502F0B7F868B102F09EF80CAE06F8210D02F0BBF80020014601F0C5
:40038000B3FC304601F044FCE4B22544EDB2094805212A4603F01EFD01F0A4F810B16442E4B2E0E700200CB070BD00BF88940000A68E8600B495000010B582B004460D4886
:4003C00002F0C2FF03F064F86B460B4A52F8180F516803C36FF07F4002F0B8FF204669460E22012303F05EFB41F2883000F082FF02B010BD442B26008894000010B50446EE
:40040000012001F013FC0020014601F06DFC204601F0FEFB4FF47A7000F06CFF10BD00BF30B58DB00120002101F05EFC0AAC204600F02CFA9DF829209DF82A309DF82B50B8
:400440009DF82C009DF82D1000950190029104A82A4908F021FC0120002101F045FC284801F0D6FB0120002101F03EFC04A801F0CFFB94E80300FFF711FE68B101F018FDDF
:40048000C043C0B201F008FD01221E4B1A7000F059FA1D48FFF7B2FF1C4B1B79022B1DD11A4A11694B1E1361002B0FDC527A6AB1164B03221A7100221A611348FFF79EFF02
:4004C0000122104B1A7000F03DFA12E0002B10DC0E4B5B7A6BB90D4B19610AE0032B08D1084B1B7813F0FF0F03D0084A13690133136101F07DFC0DB030BD00BF28950000DF
:40050000449500002482FF1F5C9500000CA4FF1FF0B58FB000AF3E4802F016FF02F0B8FF3C4802F021FF3C4802F010FF3B4805210A4603F083F93A4BDB689B000A3323F060
:400540000703ADEB030D6D46002308E003EB4301334A02EB8102126945F823200133304AD2689342F2DB284600F092FA01F004FF01F016FF002400F0B5FFD0B902F088FFB9
:40058000381D284955F8242008F086FB381DFFF713FF4FF4FA6000F0ADFE04EB4404204B03EB840404F1100393E80700FFF7F6FDFEE7002001F0FCFE0028DCD0204655F8D4
:4005C000241000F0FFF901F00BFF82B2002804DB40F6FE739A4202D803E0002201E040F6FF72114BA3FB0213D21A03EB5203C3F38F24002630460D49224608F04DFB304608
:40060000FFF7FCFE204655F8241000F053FAB2E7FFF9F7008CE3000025141800F09400000C81FF1F00950000810118806895000008B562B601F0BAFB02F094F901F01EFC7E
:40064000194801F0A5FB194802F07EF900F098FF00F036FD01F03AFB012001F0E7FA144801F0D6FA01F0E6FE01F012FF02F040FF104802F069FE02F00BFF0F4802F074FE6E
:4006800001220E4B1A600D4B1B68012B05D0022B08D0002BF7D1FFF73BFFFFF739FE074B1860F0E7FFF734FF210400008500000074950000FFF9F70044E4000008A4FF1FB5
:4006C00010B50446002000F009FD204600F0BAFC00F0ACFC10F0010FFAD010BD10B50446012000F0FBFC204600F0ACFC00F09EFC10F0010FFAD010BD70B506460D4601205F
:4007000000F0ECFC002408E0305D00F09BFC00F08DFC10F0010FFAD00134AC42F4DB70BDFEE700BFFEE700BF08B50120FFF7C8FF0A2000F0DFFD3620FFF7C2FF8820FFF7CB
:40074000CDFF3A20FFF7BCFF5520FFF7C7FF1120FFF7B6FF2920FFF7B3FFFA2000F0CAFD08BD00BF024A136801331360704700BF2CA4FF1F10B500F097FE002409E02046C0
:4007800000F0A8FE20B92046064900F09BFE02E00134042CF3D9042C02D9002000F0A8FD10BD00BF6507000008B5FFF7E3FF08BD08B504484FF4005102F026FA024802F07C
:4007C00027FE08BD2882FF1F50DC000008B5FFF7ABFF08BD30B5A1B000241B941C941D941E941F9401A82146682208F04DFA154815492246234602F081FF05462046F02191
:400800004FF4A07205F0F2FC2046F0214FF4A07205F004FD02231D9328461BA904F0EBF90A4B01930A4B02930A4B04930A4B06930A4B0893284601A9094A0A4B04F0F9F99C
:4008400021B030BD30FA0000D8F90000C1060000DD060000F90600002107000025070000A556000005530000012904D108B5FFF7ADFF002008BD4FF0FF3070470309A3EB6D
:4008800083035A001044C0B2704700BF2DE9F04782B00446002302A901F8043D6820012200F0E8FF01F0B4F810F0020FFAD001F0CBF868201A490722002301F041F801F04B
:4008C000A7F810F0010FFAD001F0BEF8144D287800F07F00FFF7D2FF06466878FFF7CEFF0746A878FFF7CAFF80462879FFF7C6FF81466879FFF7C2FF8246A879FFF7BEFF69
:40090000054601F0B3F8257084F801A084F8029084F8038027716671204602B0BDE8F08730A4FF1F08B501F0DFFA0122034B1A70034B00221A601A7108BD00BF3CA4FF1F03
:4009400028A2FF1F08B51B4A1368013313601A4A12781A490978114202D001F0C5FA08BD022B26D101F0A4FAC043C0B201F094FA104B1B79012B0FD013B1022B06D015E082
:4009800001F024FB01220B4B1A710FE001F01EFB0122084B1A7109E0094B1B780BB1002200E00222034B1A7101F09EFA0022014B1A6008BD28A2FF1F3CA4FF1F3AA4FF1F86
:4009C0003BA4FF1F2DE9F04182B00D4658B9C0EB001424012B4B83FB0423A3EBE47404F10408513418E001280BD1C0EB00142401244B83FB0423A3EBE47404F102084F3455
:400A00000AE0C0EB001424011E4B83FB0423A3EBE47404F102084D3408F1280704F12806194802F093FC00203946DB22334603F007FD164802F08AFC00203946DB22334650
:400A400001F096FF012008F12901DA2204F1270301F08EFF0823ADF800301F44ADF80270D423ADF8043004F12006ADF80660022002F0A0FC284669460C2202F0FEFF02B007
:400A8000BDE8F08156555555FFF9F700442B260038B50546064802F067FC002405E0204655F82410FFF78EFF0134022CF7DD38BD74F000002DE9F04383B00D4650B9C0EBE6
:400AC000001424012F4B83FB0423A3EBE474271D513416E001280AD1C0EB00142401294B83FB0423A3EBE474A71C4F3409E0C0EB00142401234B83FB0423A3EBE474A71C43
:400B00004D3407F1280804F12806DFF88090484602F01CFC00204146DB22334603F090FC194802F013FC00204146DB22334601F01FFF2734012007F12901DA22234601F04C
:400B400017FF042007F12C01DA22234603F078FC484602F0FBFB0823ADF800309844ADF80280D423ADF80430083EADF80660022002F020FC284669460C2202F07EFF03B013
:400B8000BDE8F08356555555442B2600FFF9F700FEE700BF08B5094B1A681044084BC31A802B02DC054B186005E008F01BF80C2303604FF0FF32104608BD00BF4081FF1F8D
:400BC000D8A5FF1F08B5104E104D16E029686B68AC68002204E051F8040B43F8040B0432A242F8D1E868002203E0002143F8041B04328242F9D11035013E002EE6D107F0F5
:400C0000F7FFFFF715FDFEE701000000D0FF000008B5134A134B1A60134A136843F40073136000230AE0032B03D8104A52F8231000E00F490F4A42F8231001332F2BF2D9D6
:400C40000D4B1A780D4B1A700A4A0D4B1A6000F011F900F06DFA00220A4B1A6008BD00BF0004FA050CED00E014ED00E000000000910B00000080FF1FBC7600400481FF1FB0
:400C800008ED00E00081FF1FFEE700BFF0B40022174611E050F82760F3B226F0FF0608E001EB420511F812406D78A5550132013BDBB2002BF4D10137222FEBD9F0BC704788
:400CC0000D4B1B78DBB203F007010C4A11701B09013213701023A2F26272137020216032117002F6231213700222054B1A704422A3F28A231A707047CF0100496E580040A8
:400D0000005B004008B50A46002107F0BDFF08BD08B507F093FF08BD70B500243A4B1C80502202331A70032602331E801823374A1370362102321180023213704FF49C716E
:400D4000023211800232137040F65F11023211800232137043F697222D4B1A80192502331D702C482C490422FFF7D2FF02222B4B1A7008224FF040231A7003F500731E7088
:400D8000274B1B78DBB227490B70274B1A8041F25122023B1A800CE0244B1B7803F0010343EA440404F003044FF4F07000F0B0F9013D0DB1032CEFD115B90320FFF764FF67
:400DC0001B4B4FF480721A8007221A70002219490A704820023108701A700222033B1A7004220A331A70144A137843F03F031370013A137843F001031370013A137843F03D
:400E00008003137070BD00BF80400040864000409440004000410040EC0700480043004008010049A146004022420040254200400440004006400040A2430040012807D86C
:400E4000044B53F820201844017A13780B431370704700BFC8D50000012808D8044B53F820201844017A137823EA010313707047C8D5000070B572B6434A137843F0040386
:400E8000137000240AE0414963001A1952000A44D068118AFFF736FF0134E4B2072CF2D900240BE03949A3001A1952000A44D06B116C0622FFF72CFF0134E4B2002CF1D05A
:400EC0004FF090403249FFF7E1FE0A24314B1C7031480421FFF716FF30480421FFF712FF2F4A137843F0020313701032137843F0020313702B4D2B7843F040032B70A2F506
:400F00008632513A137843F010031370264827490822FFF7FDFE264826492246FFF7F8FE254826492246FFF7F3FE254825490822FFF7EEFE244825490822FFF7E9FE244891
:400F400024490822FFF7E4FE234824492246FFF7DFFE234823492246FFF7DAFE224A137843F008031370214E01243470FFF7D4FE812333701E4B1C70FFF7A2FE1D48294684
:400F80000E22FFF7C5FE70BDE8460040C8D500008C00004883580040007600400876004003500140A0430040025100409C070048C0510040A4070048F0510040B0070048B4
:400FC00022510040BC07004832510040C407004842510040CC07004850510040D407004860510040E0070048224300400048004004000840B043004008B500F091F80A4A15
:40100000137843F020031370FF32137843F010031370FD3A137843F01003137000F084F800F068F808BD00BF95640040014B1878704700BF64650040014B1878704700BF16
:4010400067640040034B1B7813F0040FFAD0024B18707047646500404764004008B501E00A4B1B780A4B1B7813F0200FF8D100F057F8084B1A7842F001021A701A7802F054
:40108000FE021A7000F050F808BD00BF57640040676400409764004008B50F22064B1A70FFF7DCFFFFF7C2FFFFF7C6FF0023034A1370FD3A137008BD8564004084650040D9
:4010C00008B5054B1B7823B9FFF7E6FF0122024B1A70FFF791FF08BD30A2FF1F044A137803F0DF03400100F0200018431070704740510040054A137843F00203137010322B
:40110000137843F002031370704700BFA24300400230800803D000BF01380046FCD17047EFF3108072B6704780F31088704700BF0B4A7F2313708021517007E0DA0002F11D
:40114000804202F5F042013BDBB21370002BF5D1DB0003F1804303F5F04300221A7070474481FF1F172815D831B103010A495A5C42F020025A5405E0030107495A5C02F046
:40118000DF025A540001044A835C43F00103835400207047012070471070004017280BD80001064BC25C02F0FE02C254C25C02F0DF02C254002070470120704710700040E5
:4011C00017280BD80001064A835C03F0F10301F0070143EA4101815400207047012070471070004041F6FF73994201D14FF4005141F6FF739A4201D14FF40052172808D815
:40120000C00000F1804000F5EC408180C280002070470120704700BF172805D8034B03EB0010417200207047012070471070004017281BD810B4C00000F1804404F5EC444D
:40124000D201D2B201F07F01114321709DF804201201D2B203F00F03134363709DF8083003F00F03A3700020E07001E0012070475DF8044B704700BF10B5FFF751FF0A4BBB
:401280005B78182B0BD9084A1478013B5370E30003F1804303F5F0431B78137000E0FF24FFF742FF204610BD4481FF1F10F0800F0CD111F4704F0BD1C00000F1804000F5BA
:4012C000F04001808270C37000207047012070470120704710F0800F08D1C00000F1804000F5F0408180C280002070470120704701BE704710B5044605E0084B1868FFF76E
:4013000007FFA4F50044B4F5004FF6D8034B586800FB04F0FFF7FCFE10BD00BF4C81FF1F08B5034B1B7A03FB00F0FFF7F1FE08BD4C81FF1F70B504460E46074B1D680F28AC
:4013400002D90020FFF7D4FF04F00F0455F8240045F8246070BD00BF08ED00E070B504460E46074B1D681F2802D90020FFF7C0FF04F01F04103455F8240045F8246070BD64
:4013800008ED00E038B504460D46072902D90020FFF7AEFF1F2C02D90020FFF7A9FF04F01F0000F1604000F564406D01EDB2057038BD00BF024A136843F002031360704780
:4013C00010E000E008B5FFF7F5FF034A136843F00103136008BD00BF10E000E020F07F40014B1860704700BF14E000E0012805D1054A136843F0040313607047024A1368DF
:4014000023F004031360704710E000E0024B1868C0F30040704700BF10E000E010B5FFF7F5FF01280BD107E0054B03EB84035B6803B19847013400E00024042CF4D910BDD9
:4014400034A2FF1F0022014B1A60704718E000E008B5002305E00F4A02EB8302002151600133042BF7D90F200B49FFF763FF0120FFF7BCFF094BDB680948A0FB0330800980
:40148000FFF7ACFFFFF7DEFF4FF40042054B1A6008BD00BF34A2FF1F1D1400004C81FF1FD34D621000E100E008B5054B9B6923B9FFF7CEFF0122024B9A61FFF783FF08BD2A
:4014C00034A2FF1F024B03EB800358685960704734A2FF1F024B03EB80004068704700BF34A2FF1F024B1878C0F34010704700BFF151004038B50222114B1A7081220E3B8E
:401500001A70082202331A700F2511331D70002401331C704FF400420A4B1A6028460521FFF730FF28460849FFF718FF1022074B1A70074B1C70074B1C70074B1C7038BDD9
:40154000D649004080E100E0A91500003DA4FF1F50A4FF1F4EA4FF1F44A4FF1F08B5FFF7DFFD064A137843F0040313701032137843F004031370FFF7D7FD08BDA54300407E
:4015800008B5074B1B7823B9FFF7B4FF0122044B1A70FFF7E3FF4FF40042024B1A6008BD50A2FF1F00E100E038B5A44B1C78E4B2A34B1B7813F0400F00F0378114F0010FB9
:4015C00000F01B819E4B1B78453B052B00F21281DFE813F006008200100110010600DE0004F0DF0504F00A04082C42D1944B1B78DBB2452B35D1934B1B7813F0FF0F10D05E
:40160000914B1B681B78DBB2904A137004228B4B1A7001228E4B1A704622894B1A702C46EBE08C4B1B7813F0020F0DD08A4A137843F00A0313706022814B1A704FF40042E5
:40164000864B1A602C46D8E0854A137843F0100313701022834B1A700422023B1A702C46CBE00022754B1A704A22754B1A702C46C3E00A2C2BD1784A137843F0A00313702F
:40168000744B1B7813F0020F14D06D4B1B7813F0080F01D0092300E00A236F4A11780B4313706022664B1A704FF400426B4B1A602C46A2E06A4A137843F0100313701022BE
:4016C000684B1A700422023B1A702C4695E00020FFF70EFE2C4690E014F0020F35D15C4B1B78584A1278DBB2934210D2584A1378DBB255490968CB5CDBB254490B70042156
:401700004E4B197013780133DBB2137075E0514B1B7813F0020F0CD04F4A137843F00A0313706022464B1A704FF400424B4B1A6063E04B4A137843F0100313701022494B39
:401740001A700422023B1A7057E0424B1B7813F0020F0CD0404A137843F09A0313706022374B1A704FF400423C4B1A6045E03C4A137843F01003137010223A4B1A700422C9
:40178000023B1A70344A137843F09003137034E0354A1378DBB2354908682C490978C9B2C15413780133DBB213701378304A1278DBB2934203D21022204B1A701DE0254BC8
:4017C0001B7813F0020F0CD0234A137843F00903137060221A4B1A704FF400421F4B1A600BE01F4A137843F0100313700022134B1A7002E00020FFF77BFD14F0200F1CD091
:401800000F4B1B7813F0080F01D0012300E00223114A11780B431370114A137803F0EF0313701022064B1A7038BD054B1B7813F0100F02D11022024B1A7038BDD74900406C
:401840003DA4FF1F4CA4FF1F40A4FF1FD849004044A4FF1F4FA4FF1F50A4FF1F80E100E0D6490040D94900404EA4FF1F48A4FF1F4DA4FF1F002948D070B40C4626490978FD
:40188000C9B2102906D12549097811F0080F11D1002112E020490978C9B260290CD14FF400451F490D601F4D297801F0F7012970002102E0012100E0022149BB4526164DF0
:4018C0002E700026184D2E70184D2A70184A1460184A1370134C227802F0FD0222704200D2B21548027013F0010F06D012220B4B1A700422023B1A7002E00122074B1A708B
:401900004FF400420D4B1A6002E0022108467047084670BC704700BF3DA4FF1FD949004080E200E050A4FF1F44A4FF1F4CA4FF1F40A4FF1F4FA4FF1FD849004000E100E058
:4019400000294AD070B40C4627490978C9B2102906D12649097811F0080F11D1002112E021490978C9B260290CD14FF4004520490D60204D297801F0F7012970002102E078
:40198000012100E0022159BB4926174D2E700026194D2E70194D2A70194A1460194A1370144C227802F0FE0222704200D2B242F001021548027013F0010F06D012220B4BDB
:4019C0001A700422023B1A7002E00122074B1A704FF400420D4B1A6002E0022108467047084670BC704700BF3DA4FF1FD949004080E200E050A4FF1F4EA4FF1F4DA4FF1F6A
:401A000048A4FF1F4FA4FF1FD849004000E100E04FF40042084B1A60084B1878C0B2084B1B7813F0400F01D040F004004FF40042044B1A60704700BF80E100E050A4FF1F6E
:401A40003DA4FF1F00E100E04FF40043044A1360044A107800211170034A1360704700BF80E100E050A4FF1F00E100E04FF40042064B1A600021064B197006490B7803F08D
:401A8000FE030B70044B1A60704700BF80E100E04EA4FF1F50A4FF1F00E100E010B50B4C237803F09F032370237803F0F00323702378184340F0100020700120FFF730FC4B
:401AC000237803F0EF03237010BD00BF2051004038B505460E4C237843F020032370237803F0BF0323700020FFF71AFC237803F0F003237023781D4345F010052570012062
:401B0000FFF70EFC237803F0EF03237038BD00BF2051004070B5354B1A7802F08002D2B21A7033490A7802F0F00242F00F020A7001310A7802F0F0020A7001310A7802F01D
:401B4000F0020A701A7802F0DF021A701A7842F040021A704FF4CA760020FFF7E1FB234D2B7843F010032B700120FFF7D9FB214B1C78E4B22B7803F0EF032B700020FFF757
:401B8000CFFB04F00804E4B22B7843F010032B700120FFF7C5FB2B7803F0EF032B7014B90A20FFF7BDFB013E0CB1002ED4D10F4A137803F0BF031370137803F08003DBB229
:401BC00013700232137803F0F00313700132137803F0F00343F00F0313700132137803F0F00343F00F03137070BD00BF20510040225100402151004010B50446FFF78AFFD2
:401C00002009FFF765FF04F00F00FFF761FF10BD38B505460078012404E0FFF7EDFF285D0134E4B20028F8D138BD00BF10B50446FFF770FF2009FFF731FF04F00F00FFF7AF
:401C40002DFF10BD08B52820FFF754FB0320FFF725FF0520FFF74EFB0320FFF71FFF0F20FFF748FB0320FFF719FF0120FFF742FB0220FFF713FF0520FFF73CFB0620FFF7C4
:401C8000D5FF0E20FFF7D2FF2C20FFF7CFFF0820FFF7CCFF0120FFF7C9FF0C20FFF7C6FF0320FFF7C3FF0520FFF724FB014800F039F808BD10D6000008B50C20FFF7B6FFDE
:401CC0000122014B1A7008BD51A2FF1F08B5054B5B7823B9FFF7B6FF0122024B5A70FFF7EBFF08BD51A2FF1F08B5032819D8DFE800F002070D1381F08000FFF797FF08BDC3
:401D0000A1F14000C0B2FFF791FF08BDA1F16C00C0B2FFF78BFF08BDA1F12C00C0B2FFF785FF08BD38B50546FFF7F4FE4020FFF77DFF002404E0285DFFF75EFF0134E4B253
:401D40003F2CF8D9FFF7E6FE8020FFF76FFF38BD024B1B68C3F88400704700BF08ED00E04001C0B2014B1870704700BF11E400E04FF40032014B1A60704700BF00E100E0B6
:401D80004FF40032014B1A60704700BF80E100E010B50446FFF7F4FF2046FFF7D9FF0720FFF7DEFFFFF7E4FF10BD00BF4FF40032014B1A60704700BF80E200E0084A1378D6
:401DC00043F0010313701032137843F00103137002F64D32137843F001031370704700BFA3430040014B1870704700BF034F0040014B1878704700BF034F0040014B1880A6
:401E0000704700BF044F0040014B1880704700BF064F004008B5164A137803F0010313700232137803F0FC031370124B1A7802F0CF021A701A7842F030021A701A7802F014
:401E4000F0021A701A7842F00F021A700A4A137843F00103137041F28730FFF7CFFF41F28730FFF7D1FF0820FFF7BCFF08BD00BF004F00400B4F0040014F004008B5054B6D
:401E80001B7823B9FFF7C6FF0122024B1A70FFF795FF08BD53A2FF1F044A137803F0FB03800000F0040018431070704760510040024B1878C0F38000704700BF6151004063
:401EC00010B500F079FB074C20780121FFF74AF960780121FFF746F9002000F097FB00F013FB10BD54A2FF1F10B500F01BFB054C2078FFF753F96078FFF750F900F06AFB61
:401F000010BD00BF54A2FF1F70B505460E46012001462A0C4FF4804300F012FB094C2070A278104631460123FFF7C0F9A078A9B245F68232FFF7CEF92078A178FFF76CF9D2
:401F400070BD00BF54A2FF1F70B505460E46012001462A0C4FF4804300F010FB094C6070E278104631460123FFF7A0F9E078A9B245F68232FFF7AEF96078E178FFF74CF954
:401F800070BD00BF54A2FF1F10B500F067FB022000F02EFB002000F051FBFFF76DF9094CA070FFF769F9E070074C20464FF47A71FFF7AAFF04F57A704FF4FA71FFF7C4FF3A
:401FC00010BD00BF54A2FF1F50D6000008B5054B1B7923B9FFF7D8FF0122024B1A71FFF76FFF08BD54A2FF1F10B59DF80840012C4AD10138092826D8DFE800F0052525053C
:4020000025250D15251D0F2B02D9214800781BE02048007818E00F2B02D91F48007813E01E48007810E00F2B02D91D4800780BE01C48007808E00F2B02D91B48007803E000
:402040001A48007800E0002040B201EB401101FB02F1C90B8AB20D2B0BD8C3F10E0289B211418AB2124901EB8401013301F8023C05E00F4B03EB84030F2103F8021C013C3F
:402080000B4B23F8242010BD0020FFF731F910BD180100491C010049190100491D0100491A0100491E0100491B0100491F0100495CA2FF1FF8B50746FFF732F806460D4D89
:4020C0002B7843F003032B700B4C237843F0030323700A4B1F700320FFF722F92B7803F0FC032B70237803F0FC0323703046FFF71BF8F8BDF8460040F946004092580040E8
:402100000022314B1A7101285DD170B534222F4B1A70062202331A70082201331A70002401331C7001331C701F2201331A7002331C7001331C7001331C7001250A331D70FD
:40214000142203F527631A70052601331E70162201331A7001331C70442203331A70482201331A7001331D7002331C7001331C700A2201331A70432201331A705220FFF775
:4021800099FF5822124B1A7001331C7005331E70022201331A7001331C7001331C70204600F082FA40F233320A4B1A602C20294600F09EFAB620294600F01EFB1D200649E9
:4021C000FFF7CCF870BD70475CA2FF1F004E00409458004054A4FF1F31240000F0B583B0284D01272F70284E00247471102000F06DFA102000F0EEFA1D200721FFF7C2F8C9
:402200000422224B1A7001331C7007331C70204A137843F0180313701E4B1C7003F2F5231C7001331C700A22A3F209331A7001331C7002331C70122205331A701322013380
:402240001A7004331C701422A3F68C231A700097022048F66B514FF400420C23FFF7C4FE2B7806EB830313F8022C0B4B1A702B78013B36F82320094B1A802878FFF740FFA4
:4022800003B0F0BD5C81FF1F5CA2FF1F96580040075B0040935800400E4E00400C4E004070B5FEF73DFF06462A4B1B782A4B1A7842F001021A701A7842F010021A70103363
:4022C0001A7842F001021A701A7842F010021A70224D2B7843F002032B70214C237843F0020323701F4A137843F0030313700320FFF716F82B7803F0FD032B70237803F0DF
:40230000FD032370184A137843F0060313707A22164B1A70164A137843F0010313701032137843F0010313700F3A137843F0010313701032137843F0010313704FF0005304
:402340000C4A1360A2F5C07213603046FEF7ECFE70BD00BF5C81FF1FAA430040F8460040F9460040915800407758004082580040A143004080E200E008B5084B9B794BB912
:40238000064BDB7913F0FF0F01D1FFF727FF0122024B9A71FFF784FF08BD00BF5CA2FF1F024A137843F0010313707047004E0040094B1B7913F0FF0F03D0074B5B79DBB290
:4023C00003E0064B1B7803F00103012B01D00028EED01846704700BF5CA2FF1F014E00400E4B1B7803F00303012B03D80C4B188880B209E00A4A12780A49087842EA0020C2
:40240000032B01D1084B1B78084B1B7913F0FF0F02D00022054B5A7100B27047144E0040104E0040114E0040124E00405CA2FF1F704700BF7222074B1A702022063B1A70B8
:4024400006225E3B1A70472210331A700022B33B1A7070478B65004010B5FEF761FE04460A4A137843F020031370063A137843F010031370A2F20112137843F010031370B0
:4024800000F026FA2046FEF74FFE10BD9B65004008B5054B1B7823B9FFF7CCFF0122024B1A70FFF7D9FF08BD64A2FF1F084B1B78DBB213F0200F06D0064A1078C0B213F0A1
:4024C0001E0F02D17047002070470020704700BF6565004044650040044B1B7813F0200F01D0012070470020704700BF65650040034B1B7813F0040FFAD1024B187070471A
:402500006464004046650040054A137843F0040313701032137843F004031370704700BFA2430040054A137803F0FB0313701032137803F0FB031370704700BFA2430040C2
:40254000F0B583B086460F4616461D460A4C0023237000930193184671463A46FEF768FE207831462A46FEF73DFE20780221FEF727FE207803B0F0BD5D81FF1FF0B583B030
:4025800086460F4616461D460A4C0120207000230093019371463A46FEF74AFE207831462A46FEF71FFE20780221FEF709FE207803B0F0BD5E81FF1F054A137843F0040325
:4025C00013701032137843F004031370704700BFA8430040054A137803F0FB0313701032137803F0FB031370704700BFA8430040054B1A7802F0FD021A701A7800F002001C
:4026000010431870704700BF28580040014B1870704700BF825B0040064B1B78C3F3810303F19243063393F82831DBB2024A1370704700BF285800400A46004008B5064BEE
:402640001A7802F0F3021A701A7800F00C0010431870FFF7E1FF08BD2858004008B50020074B187001331870064A137843F008031370FFF7E3FF0220FFF7BAFF08BD00BF57
:4026800028580040975A004010B5002404E02046FEF7E2FB0134E4B2012CF8D9FF22014B1A7010BD5F81FF1F10B50446FFF7ECFF2046FEF7C3FB014B1C7010BD5F81FF1FED
:4026C000014B188880B2704780400040034B1A7800F0F80010431870704700BF82400040024B187800F00700704700BF8240004070B505460E46FFF7F3FF0446FFF7E0FFD3
:40270000854256D02B4B1B7803F0010294B900B185B938B9284B1D80284A137803F0BF03137070BD254A137843F040031370224B1D8070BD22B3002321490B7001240F31A2
:402740000C7004310B700C390B7803F07F030B701A4B1B7813F0080F00D08DB9194B18800721013B1970164B1B7813F0010FFAD110490B7803F0FE030B700021104B197042
:402780000C4B1B7813F0010F0DD00E4B1D800EB1032200E001220A4B1A70094B1B7813F0010FFAD170BD044B1D8002490B7813430B7070BDA24300408040004082400040B2
:4027C0000140004002400040014B188880B2704700410040034B1A7800F0F80010431870704700BF02410040024B187800F00700704700BF0241004070B505460E46FFF75D
:40280000F3FF0446FFF7E0FF854256D02B4B1B7803F0010294B900B185B938B9284B1D80284A137803F0BF03137070BD254A137843F040031370224B1D8070BD22B30023DA
:4028400021490B70012413310C7004390B7008390B7803F07F030B701A4B1B7813F0080F00D08DB9194B18800721013B1970164B1B7813F0010FFAD110490B7803F0FE036F
:402880000B700021104B19700C4B1B7813F0010F0DD00E4B1D800EB1032200E001220A4B1A70094B1B7813F0010FFAD170BD044B1D8002490B7813430B7070BDA143004034
:4028C00000410040024100400140004002400040054A137843F0080313701032137843F008031370704700BFA2430040044A137803F0F703C00000F00800184310707047FD
:4029000060510040024B1878C0F3C000704700BF61510040014B1B689864704708ED00E04001C0B2014B1870704700BF02E400E00422014B1A60704700E100E00422014BFE
:402940001A60704780E100E010B50446FFF7F6FF2046FFF7DFFF0720FFF7E2FFFFF7E8FF10BD00BF0422014B1A60704780E200E02DE9F7431E4CD4F800E0DEF85050DEF8B3
:402980004C406F181D449EF818302618013B9BB21444F21AADF800201A19ADF804206846FA1A2B44ADF80220ADF8063004F022F9D8B107F1010805F1FF39224639463046E2
:4029C00002F0F0FE22462946304602F0EBFE4A464146304602F00EFF4A464146204602F009FF04F045F80028E7D103B0BDE8F0836081FF1F074B10B55A685C6A01325A6065
:402A00005A6B02EBC0014C60002102F83010586210BD00BF5CA4FF1F10B50E4944680F2301EBC302126C94420A4A03D213F1FF33F6D210BD0F2B0CD81168091B11608168B0
:402A4000C06801B1486008B1016010BD02EBC303596410BD5CA4FF1FF8B5274E0546F368B26B013B0818134498420C4605D84B591BB943681D44FFF7CFFFB36B9C420BD9C9
:402A800054F8043C5B42E718E3582BB97B6838461D443C46FFF7C0FF0F2306EBC302126C954203D213F1FF33F7D223E00F2B21D8083306EBC30251686019002284E82400BA
:402AC000A160246140F8045C04F1080001B1486006EBC303A160E260586033680649EA1896F8293032602BB9CB689B1A8A68934288BF8B602846F8BD5CA4FF1F2DE9F74FE8
:402B0000234F8346B846FE68BC6B013E264494E82800A3BB61198E4231D954F805A0BAF1000F2CD07B6B13F83A30012B27D1D8F82C302046D1F8049000930191FFF76CFF35
:402B40000199D8F83420086802EBC002546020464A4606F07EF8009B04EB09019A4508BFD8F83430284604BF5B1BC8F83430FFF773FFBBF1000F01D0584505D24D462C44BE
:402B8000A642C4D8012000E0002003B0BDE8F08F5CA4FF1F28B1034BDA6B026002B15060D86370475CA4FF1F034B5B6B03EBC00040680830704700BF5CA4FF1F054BDA6971
:402BC0000132DA615A6B12F83030013302F83030FFF7EABF5CA4FF1F30B50368094953F8085C4C6B14F83530012B03D9CA690AB1013ACA61013B04F8353000230360184697
:402C000030BD00BF5CA4FF1F024B21F0030118605960704768A2FF1F10B5044660B1074B5B6B03EBC00359684868FFF715FF2046BDE81040FFF7DEBE10BD00BF5CA4FF1F5D
:402C40002DE9F041224CE36A3BB9224B9D685B680835B3FBF5F5023503E023691D1D05EBD305E80000F0C2F8804660B3616B226901EBC0035E68184B08361B68D200304609
:402C8000E76A9847226966631346C4F82C80691E8B4205D2013306EBC30040F8043CF7E706EBC3064FF00008C6F80480636862629B1A2B446360256138463FB1FFF7ACFF18
:402CC0004046BDE8F0810120BDE8F081BDE8F0815CA4FF1F68A2FF1F9081FF1F70B5184A92F8283053BB012382F82830154B1021D960996811B95968890899605A2111623B
:402D00001026002102EBC10006FA01F5013110290B4C0564F6D158681968A0F114030B440125022222616363A163E0605D6065626560FFF791FEFFF783FF256370BD00BFDD
:402D40005CA4FF1F68A2FF1F2DE9F0410746264E0337FFF7C3FF27F00307306C0437F26B874238BF0746144634B154F8043C9F4223682CD01C46F7E7F368B26B02EB0308CE
:402D800058F8045CC5EB08052B6833B12046FFF7B5FE58F8045CC5EB08052B680BBB6B689F421EDC28461C1DFFF736FEF3686868DB1BF3607369E41B3B44C01B2C447361EE
:402DC00002D02946FFF748FE44F8047C09E00BB161685960616801B10B60A24201D12368F3632046BDE8F0815CA4FF1F2DE9F8430446394EFFF772FF356C3368AC4224BFC6
:402E0000033424F003050C35AB42334C3ED3236B62689A420FD97368776A013B7360736B4FEAC70803EB080252687262012203F8372057B92AE0013B2363FFF701FF236B59
:402E4000013323630028E6D020E00F2306EBC302126C95420CD213F1FF33F7D208E094682CB16268954214D9A268002AF7D101330F2B03D806EBC302526CF6E72846FFF757
:402E80003DFE0028E1D03846FFF7B4FD0020BDE8F883D4F80490336CC5EB09020C339A4238BF4D462046FFF7B7FD736B611998444D454FF00003C8F8044027606560A360CF
:402EC000246141F8045C03DAC5EB0900FFF7C4FD3846BDE8F88300BF5CA4FF1F08B1FFF785BF704773B50646FFF7F8FF054660B1FFF764FE064B02AC44F8040D1B683246E6
:402F0000002198472046FFF767FE284602B070BD9481FF1F4D4B2DE9F04F1A688BB0D169CC69A389984208DBE589854205D32568C31A06954FF0FF3613E0A368002B7CD053
:402F40001D88A84279DB5E88864276D35B68401B666880B203EB8005069633F92030B5F90260581C099368D091F818B0A17CB2F92A900BFB01F34846B2F92270B2F924808F
:402F8000079394F810A002F0D7FB079B089018462E4D099B2968CA69896B0591069900FB03100490A37C4146039301230293D37E38460193937E524600935B4602F05CFDB1
:402FC000731C1AD049F0020002F0B6FB2A680699D369926B38460592079A02FB06160496A27C4146039201220292DA7E01929B7E524600935B4602F03FFD2B68DB695A7E09
:403000001B7E9A4215D9B9F1020F12D089F0040002F092FB0D4B1B68D869437E827E017EC07E434400FB01810AFB0272384602F00BFC9DF8200002F07FFB044B617C1A6837
:40304000538C0B4453840BB0BDE8F08F6081FF1F044B1B68DB69DB6909B11A7C0A60587C704700BF6081FF1F02230B807047C3699A89914202DBDA898A420FD2986880B169
:40308000038899420CD342888A4209D3C91A436833F82100C043C0F3C0307047012070470020704738B103888B4202D843888B4201D28068F6E770472DE9F04F384C89B05F
:4030C00023680646B3F92A80DB690146D869FFF7E9FF002860D005884768751B07EBC506404696F802A002F027FBD4F800C017F83520DCF81CE0DCF838309EF818B0BCF93F
:4031000024108146BCF92200059373684FF0010C0493CDF80CA0CDF808C09EF81BC05B46CDF804C09EF81AE0CDF800E002F0A4FC2368DA69537E92F818A00793534520D9FB
:40314000B8F1020F1DD092F81BB000F084F8804600F07AF800F0FAF8226817F83550B2F92410B2F92200D269079BD27E0BFB031305FB02020BFB0A1102F066FB404600F0DC
:40318000E5F8484602F0D8FA23687178DA69907E5A8C00FB01225A8409B0BDE8F08F00BF6081FF1F38B50C4B02461B680C46DD690146E869FFF776FF60B103884168D21AC3
:4031C00001EBC200AB7E407858431CB111F832205343236038BD00BF6081FF1F01230B80704708B5C069FFF75DFF003018BF012008BDC3B2CAB29A1A92B210B514B2002C86
:40320000BCBF524214B204FB04F2C0F30723C1F307241B1B9BB21CB2090C002CC1EB1041B8BF5B4289B208B2B8BF1CB204FB04230028BCBF494208B280B200FB003010BDF3
:4032400008B103F051BE704708B502F085FEBDE8084002F087BD08B502F086FEBDE8084002F080BD10B538B309B30AB3B2F90040B1F90030A342A8BF2346B2F90240038025
:40328000B1F90230A342A8BF2346B2F904404380B1F90430B2F90620A342B8BF23468380B1F906309342B8BF1346C38010BD11460B6803604B68436010BD68B1038889B290
:4032C0000B440380838892B219444388818013444380C3881A44C28070470000024B1B6858849984002070476081FF1F024B1B681A7E1876104670476081FF1FB0F902205C
:40330000B1F906309A4214DCB1F90220B0F906309A420EDCB0F90020B1F904309A4208DCB0F90400B1F900308342CCBF0020012070470020704708B502F020FF02F086FF1E
:40334000BDE8084003F0D6BC02F052BD02F056BD024B034A1B681A6302F012BD6081FF1F785634FF02F0E8B9034B1B68DA6900B1D8611046704700BF6081FF1F094B10B406
:403380001880094B0A461980084B1B68597C084B53F82130D9680C6A01461846234610BC184700BF44A5FF1F34A5FF1F6081FF1F6CA5FF1F034B1B68B3F92A2058851046C9
:4033C000704700BF6081FF1F70B50B4D00240B4E45F8044B3368702221462846984733680422214606489847064B1D60064B1C70064B1C6070BD00BF78A2FF1F9481FF1FCD
:403400006CA5FF1F6081FF1F54A5FF1F30A5FF1F014BD860704700BF6081FF1F2DE9F3410446042016461F460D4602F085F9124B80461B686846DA6C1B6D14441D441644EA
:403440001F44ADF80040ADF80460ADF80250ADF8067003F0CFFB28B9404602F06DF902B0BDE8F0813B4632462946204602F0ECF903F0FEFAEFE700BF6081FF1FB0F90630A2
:40348000B0F90420B0F90210B0F90000FFF7C6BF002110B50846FFF721FFBDE8104043F6FF7302491A460846FFF7B8BF01C0FFFF024BDA6FD8674260704700BF78A2FF1F2C
:4034C00010B5094C23686BB901232360FDF770F9FDF780F92046BDE81040044B40F8803FFFF7E6BF10BD00BF78A2FF1FC933000070B5FFF7E5FF2F4B2E222F4C2F4D1A704C
:40350000FDF752F92E4B04F10C0123672B681A1DDA6303F10802A2615A7C9B631B64294B53F82200C3681B6B9847274B6366EB6823622B680833A36101232377E37703F08B
:40354000E1FC032384F86830204BE064606F6363A36302F04DFCA86802F050FC1C4A1D4B1A6002F0A9FB054602F068FD064602F06BFD06B140B902F055FD064602F055FDB7
:403580000146304602F054FD00210846FFF7F6FE03F002FCA36F43B1A36F33B11B6803B19847A36F5B68A367F6E70B4B01221A70284670BD25A5FF1F78A2FF1F6081FF1F36
:4035C00094F900006CA5FF1F8CF90000785634FFC8F9000064A5FF1F4CA5FF1F002809DC054B53F8200020B1C3681B681BB10068F9E77047002070476CA5FF1FFFF7CABA00
:40360000F8B51C1E06460D46174601DD0020F8BD1C20FFF799FB0028F8D00DB1056109E0084B53F8241029B10B680BB11946FBE70B6903610023836084618782C6600360C0
:403640004360F8BD6CA5FF1F81690A4A52F821309842036804D142F821300BB100225A60426802B11360036803B15A6000230360436070476CA5FF1F30B508B9012030BD41
:403680008469002CFADC1B4B1A789442A4BF01221A70194A52F8243015461BB942F82400184630BD5A680AB11346FBE7C2681268D9680968914203DD1B68002BF8D1DDE768
:4036C00009D1818A012906D1196821B10B46C96809688A42F8DD5A6812B11060426001E045F824005860984208BF00230360002030BD00BF1DA5FF1F6CA5FF1F38B51D461A
:40370000FFF77EFF044648B1FFF7B6FFE3681B6823B9034B16351B6843F82540204638BD6081FF1F2DE9F04F054685B000287FD003F0A2FE404C07462368A146B3F92280F0
:4037400003F082FE226886B2938C9B1B93842B78002B61D047F6FF71284603F0F5FE01468246284603F01AFF2268938D03F00303012B04D0022B04D190FBF3F302E003465E
:4037800000E00023518C1FFA80FBCB1A9BB219B25184ADF80810B2F924200BF1FF310B44ADF80C30ADF80A20BBB2013A1A44ADF80E20514602AA2846019303F01FFF226833
:4037C000BDF80A1028469184514600F077FE2A5C05EB000E0A2A019B01D00D2A12D12268918D01F00301013901298ABF118CA2F8228051849EF800100A290AD1918C0B4424
:40380000938406E0BDF80800D9F800308344A3F822B09EF8003043B923689A8C16449A8D9E8422F003029A8502E00EF101058EE705B0BDE8F08F00BF6081FF1F024B1B688A
:4038400059849A84FFF76EBF6081FF1F2DE9F04F1F4687B0002301900C4616460293039303F00AFEDDF80490824624B12068616804AB03C302E004A8FFF7E2FC16F00C086A
:4038800002D1BDF9124031E03C4600258CB12146019803F059FE0146241A019800F00EFE019B01351844019001A803F085FC0028ECD0B8F1080F05D0B8F10C0F08D0B8F13A
:4038C000040F12D1BDF916400AFB154401340DE0BDF91220BDF9163002249B1A01330AFB153595FBF4F5AC1800E00024DFF840B1CDF80490002506F00306002F7BD0394685
:40390000019803F021FE014680463F1A019803F045FE012E0FD0022E03D086B9BDF910500DE0BDF91050BDF914305B1B1B1A93FBF6F31D4403E0BDF914502D1A0135DBF874
:40394000001023B201382AB28B842844ADF80A300AF1FF334A842344ADF80820ADF80C0002AA41460198ADF80E3003F047FE2F4B1B7873B3DBF800305B8D9A0729D4019BD4
:4039800099450CD1BDF90A30BDF912108B4206DD013BBDF91420BDF91000FFF73FFDBDF90820BDF91000824206DDBDF90E30013ABDF90A10FFF732FDBDF90C00BDF914209B
:4039C000904206DABDF90E30BDF90A100130FFF725FD4146019800F071FD019B0DF11808184448F8140D03F047FD0444404603F0E3FB002881D00D4B1B78A3B10C4B1B68AB
:403A00005B8D9B070FD4019B99450CD0BDF90E10BDF91630994206DABDF914200131BDF91000FFF7FBFC07B0BDE8F08F08A3FF1F6081FF1F2DE9F3410C46174698460646A3
:403A4000C0B169B1084603F0C5FA054648B102462146684603F0E0FB684603F0BBFA00E00D46304643463A462146FFF7EFFE284603F0B0FA02B0BDE8F08147F6FF73FFF782
:403A8000D9BFF8B505460E46174600243A463146284603F0CFFC10B105440134F6E72046F8BD00002DE9F04F99468BB000230C460292089309930746002800F0E080B1F929
:403AC0000430B1F900A00193CAEB030301330093B1F90260B1F9065003F0CEFC029B834613F00C081BD04A4600993846FFF7C9FFB8F1080F05D0B8F10C0F07D0B8F1040FB0
:403B00000DD16E1C00FB1B6006B208E0AB1B013300FB1B30022390FBF3F0064436B2204603F058FA804688B1BDF804300246214606A8ADF818A0ADF81A60ADF81C30ADF800
:403B40001E5003F069FB06A803F044FA3D461FFA8BF30393013B04934A460099284603F037FCBDF804201FFA86FBADF82420049A01465A4405902846ADF82260ADF820A0F3
:403B8000ADF8262003F00AFD029B03F00306012E059B11D0022E02D09EB922880FE0B4F90010B4F90420521A121A013292FBF6F00844ADF8200004E0A2880132121AADF8F6
:403BC0002020194608AA284603F018FD2D4B1B7873B32D4B1B685B8D9A0729D4BD420CD1BDF92230B4F902108B4206DD013BB4F90420B4F90000FFF711FCBDF92020B4F999
:403C00000000824206DDBDF92630013ABDF92210FFF704FC1C4BB4F904201B68B3F92200904205DCBDF92630BDF92210FFF7F6FB28464A46009903F0FDFB039B054403EB4A
:403C40000B062B7836B2002B86D10E4B1B789BB10D4B1B685B8D9B070ED4AF420CD0BDF92610B4F90630994206DAB4F904200131B4F90000FFF7D2FB404603F0ABF90BB005
:403C8000BDE8F08F08A3FF1F6081FF1F2DE9F04F85B00E9D81460C4692469B4615B9FFF7C9FE39E019B9029103910D4615E00868496802AB03C31A4A02AB03CB10602046E3
:403CC000516003F087F9054638B102462146684603F0A2FA684603F07DF9124E4FF000083368114CC3F814800E9B276802A823605B6898475B46524602A94846FFF7A6FD69
:403D0000284603F067F9336817B1C3F8148002E003F108025A61276005B0BDE8F08F00BF78A5FF1F6081FF1F28A5FF1F2DE9F041D0F80C8086B0044600200E461746FFF74F
:403D400011FB0546B8F1000F05D098F8043013B140F0020001E025F00200FFF703FB216969B101206388228803900290E0680190A06800900C6830463946A0471FE0DFF8A3
:403D80005080124BD8F8002021461B68527CE0689847E18820B9012904BFD8F80030986B638822880590A0680490A088029101210390019100913046394601F05DFE2846CD
:403DC00006B0BDE8F041FFF7CDBA00BF6481FF1F6081FF1F114B73B51B680646DC6C1D6D03880C44013B2344ADF8043043881544013B2B446846ADF80040ADF80250ADF87F
:403E0000063002F0F7FE38B12A4621463046FFF78DFF02F02DFEF6E702B070BD6081FF1F2DE9F0430C681D68DFF898E0254405F1FF3C1568DEF800E02F46BEF90A80056854
:403E4000DDF81C902F444445D9F8006007F1FF350BDAC1F800800899C4EB0804614321F003010E4419680C1B1C60BEF90E10C1EB0C010029C2BF1C68611A19601B68002B61
:403E800002DC0120BDE8F083BEF90C30EB1A002BC2BF1168CB1A13600168BEF90830994208DA5B1A116806EB8306C91A116001680B4403601368002BE3DDC9F800600020E3
:403EC000BDE8F0836081FF1F2DE9F04F89B0049105920693039002F047F8129B059E0793B60007AB07460093019606AB05AA04A903A8FFF795FF58BB0446DFF85C80DFF8A2
:403F00005C90069B9C4220DADDF81CA00025059B9D4215DA5AF8250001F016FFD9F80030049A5B7C039958F823E02944DEF80C302244D3F818B003467046D8470135E6E77D
:403F4000079B013433440793DBE73846FFF700FA09B0BDE8F08F00BF6CA5FF1F6081FF1F2DE9F04F95B00F920E93239A229B109103EB42035FFA83FA1190FFF76CF91E9BAA
:403F8000209A1393B04C1F9B0C9043EA020623680F9D587C02F03EF8AB00012E0790A346069340F0DF802368587C02F02BF8219B834240F066810AF00209A44F5FFA89F986
:403FC000DBF80000109BB0F90A100E9ACB1A9342DDF84C8003DD0C98FFF7B8F9D6E1002B0ADD10910F995943D31A08EB8108002BCDF84C800E93EEDDB0F90E3010998B42B6
:40400000E9DB0E9C119E0A19013AD31A002BC8BFE31AB0F90840C8BF0E93A31B002B0F9D05DD2646139AED1A02EB83021392B0F90C309E42CFDCAA19013A9342BCBF9D1B2C
:404040000135002DC7DD824B1B7883B100230593139B2A460493069B30460393202302930123019300930E9B01F006FD8EE10793139BB9F1000F0BD0002453F8242002F0D8
:404080007F42B2F17F4F0CD10134A542F5D108E04C4653F8242012F07F4F02D10134A542F7D1ACB10493069B079A039320230293012305920193009330462246109901F081
:4040C000DBFC139B264403EB840313932D1B39E01A1DBAF1020F13921C681BD0BAF1030F0BD0BAF1010F17D1C4F3074204F0FF23240643EA142414430EE0C4F30743220600
:4041000043EA122204F47F43E443134304F07F441C4301E084F07F44220EFF2A10D0A74204D02046089201F069FE089AD243494F24F07F433F68D2B210993046B847274690
:404140000136013D002D93DC109B013310930F9B08EB830313930E9B013B0E93002B7FF42FAF38E70023109F384A08930E9B08999942BFF630AF209BFB180A93013B0993D7
:40418000314B09981B68B3F90A10814270DCB3F90E309F426CDC139B119D0D931F9B4FF0000B1D441F9BEB1A0B930F9B9B455FDA0D9BBAF1020F53F82B401BD0BAF1030F34
:4041C0000BD0BAF1010F17D1C4F3074104F0FF23240643EA14240C430EE0C4F30743210643EA112104F47F43E4430B4304F07F441C4301E084F07F44A2424FEA146602D013
:40420000204601F0FBFDFF2E2CD05FFA86F81EB36FEA0808B9465FFA88F80B9B0793079B9D420ADD0B4B42461B6849461E4607982346B047079B0133F0E7099B09F10109CD
:404240004B45EADA0EE000BF6081FF1F785634FF54A5FF1F7081FF1F099B6A1E39460B9801F0F2FA1F9B0BF1010B1D44224699E7139B06990A9F0B441393089B0133089384
:4042800074E7069B0FAA019313AB009310A90EAB11A8FFF7C5FD002878D106463D4DDFF8FC800E9B9E42BFF696AE139BDFF8F090089300270F9B9F4262DA089BBAF1020F78
:4042C00053F827401BD0BAF1030F0BD0BAF1010F17D1C4F3074204F0FF23240643EA142414430EE0C4F30743220643EA122204F47F43E443134304F07F441C4301E084F0D0
:404300007F44254B1B7893B1079B20469847DBF80030109A5B7C119958F823E03244DEF80C3039449C6903467046A04726E0230EFF2B23D0A54204D02046099301F05EFDBE
:40434000099BDAB25BB1D2431099119824F07F43D2B231443844D9F80050A8470DE0DBF8003011995A7CDB6B58F822001B68C26839449569109A3244A8472546013799E7BD
:40438000139B069A0136134413938AE715B0BDE8F08F00BF785634FF54A5FF1F6CA5FF1F7081FF1F10B5002486B005940494064C03940B9C02940A9C0194089C0094FFF72D
:4043C000CFFD06B010BD00BF0545000010B5012486B005940494064C03940B9C02940A9C0194089C0094FFF7BBFD06B010BD00BF214600002DE9F0410F461D460646904603
:4044000001F0B4FE0B4B42461C6801462846A04701F09AFC084B31461B685A7C074B53F822403A46E3689D690346AC462046BDE8F04160478881FF1F6081FF1F6CA5FF1FEE
:40444000F7B50F4C2568EC6C2D6D26186F1814441D446846ADF80060ADF80440ADF80270ADF8065002F0C6FB40B12B4622463946304601F0E9F902F0FBFAF5E703B0F0BD22
:404480006081FF1F024B1A6802B9186000F032B80CA3FF1FF8B5084E0468336805461B6820469847336807465B6820469847204428603846F8BD00BF64A5FF1FF8B5064649
:4044C0000D46064F00243DB13B6830465B689847013D06440444F6E72046F8BD64A5FF1F0078704701207047012070470170012070470000024B1B6803B11847704700BFD7
:404500006CA3FF1F70470000074A00F01F01C0F3C423D35C525CC0F3451003EB0243034A105C03EB00207047B8FD000078FD0000074AC1B2C0F30743D35C525CC0F3072064
:4045400003EBC223034A105C03EB4010704700BF78FB000078FA00004FF6FF7070470000F0B5DFF854E00646DEF800E00D4614461F46BEF1000F03D0F446BDE8F0406047A0
:404580000B490C4856F8042B013CC2F307435FFA82FECB5C11F80EE0C2F30722825C03EBCE2303EB42132B803D44EBD1F0BD00BF78FB000078FA000074A3FF1FF0B5154E4F
:4045C000864676680F4614461D461EB1B446BDE8F0406047501E02F1804103FB00E0013907EB81010C4E0D4F0288013C02F01F0316F803E04FEAD223F35CC2F34512BA5CEB
:4046000003EB0E4303EB022341F80439A0EB0500EAD1F0BD74A3FF1FB8FD000078FD0000C343C0F3074203F07F431A43030403F47F03134300F47F4018437047104670479F
:404640004068801A01387047084670470068401A0138704710B48468D4F8F840A44610BC60478368D3F8F4301847F7B5164604460D468768FFF7F5FF0190019ABB6A2946C9
:40468000534020463246FFF7E5FF03B0F0BD13B584680092D4F8F040A04702B010BD13B584680093D4F8F0400B46A04702B010BD10B48468D4F8F040A44610BC604730B4C0
:4046C0008468D4F8EC40A44630BC60477047000073B5079E84680C4D76B1286888B906980090D4F8A8602046B047D4F8A8302B60064BC4F8A83004E02B6813B1C4F8A83056
:404700002E6002B070BD00BF7CA3FF1FCD460000026CD0F8DC3090691847026CD0F8E030906918472DE9F34791468A4698460A9C85680B9F00942846D5F8A860B047394666
:40474000C9EB0404CAEB0806621C286C06FB0222D5F8E430806902B0BDE8F04718472DE9F34791468A4698460A9C85680B9F00942846D5F8A860B0473946C9EB0404CAEBFC
:404780000806621C286C06FB0222D5F8E830806902B0BDE8F04718470139172928D8DFE801F01427272727272727270E101219290C272727272727231E250F4870470F4848
:4047C00070470F4870470F48704703689B68D3F80401704703689B68D3F8FC00704703689B68D3F80001704707487047074870470020704706487047CB4B0000B74B000014
:40480000A34B0000494B0000AD4A0000D1460000E14B0000013980680D2923D8DFE801F0090B0D0F2222221125070713181D01207047006870474068704780687047C06872
:404840007047806B704788B1406B00F00100704760B1406BC0F34000704738B1406BC0F3800070474FF0FF30704700207047836801290CBF586C00207047826800230B8060
:404880004B801368013B8B805368013BCB807047F0B5104C91B06D46264607460FCE0FC596E80F00203485E80F000FCC08AD0FC594E80F0085E80F007B6B10AA02EB830338
:4048C00053F8402C53F8203CC7F80821C7F80C3111B0F0BDF0F9000007B580698DE806006A460321FBF7C0FF03B05DF804FB08467047084670470846704710467047104601
:404900007047104670474068801A013870470068401A013870470068401A013870474068801A013870474068801A013870470068401A013870472DE9F34184689846E38C84
:404940000E469B0717462ED5D4F80831204698470546D4F80C313A46314620469847A36922699D42D4BF002301239542B8BF43F00103626906469042B8BF43F0010313B9CF
:40498000E36998420ADD62682368013A00920022D4F8A870013B11462046B847D4F8AC303246294601E0D4F8AC302046984741462046D4F8A43002B0BDE8F0411847F7B54D
:4049C00084680E46E38C17469B0743D5D4F8083120469847D4F80C31314605463A4620469847D4F8983006461BB10022012120469847A36922699D42D4BF002301239542BB
:404A0000B8BF43F0010362699642B8BF43F0010313B9E3699E420ADD62682368013A00920022D4F8A870013B11462046B8472946D4F8AC30324620469847D4F8A0302046A2
:404A40009847D4F8983005467BB101220021204698470AE0D4F8AC30204698472046D4F8A03003B0BDE8F0401847284603B0F0BD38B5856804469DB94FF4BE70FEF764F9F8
:404A8000084B4FF4BE721B68A06029469847A3680222DA8401221A62034A1C64C3F8102138BD00BF9481FF1F9148000070B506460D461446FFF7DCFFB368002B3BD0262D27
:404AC00002D0272D16D070BD9A6B102A02D0122A08D070BD184AC3F8DC40C3F8B820C3F8B42070BD154AC3F8E040C3F8BC20C3F8C02070BD9A6B102A02D0122A0ED070BDB2
:404B00003CB10F4AC3F8E440C3F8CC20C3F8C82070BDC3F8CC40C3F8C84070BD3CB1094AC3F8E840C3F8D020C3F8D42070BDC3F8D040C3F8D44070BD114700001B470000F7
:404B4000254700005F47000070B50646FFF790FF4FF4FA70B568FEF7F7F8A866B0FA80F4A86B2B680730C0105843FEF7EDF8002200284FF00101E866B0694FEA541408BFD7
:404B80000124FBF771FED5F810310443284698472846D5F8B0309847002CD4BF0020012070BD70B506460D461446FFF761FFB3681D605C6070BD70B506460D461446FFF79D
:404BC00057FFB3689D60DC6070BD10B50446FFF74FFFA06900220621BDE81040FBF744BE10B50446FFF744FFA06900220521BDE81040FBF739BE38B50C460546FFF738FF22
:404C00002268AB68DA6262681A63A2685A63520707D51A68596883E806009A68D968DA609960A2899A84226912B122EAE2721A6238BD2DE9F041044688461E461746FFF7B0
:404C400017FFA5686822414605F58A7003F0F6FF2046B8472046B04723699B689847A862BDE8F0810B0A80F8713080F87210D0F820310221713018472DE9F0411546044684
:404C8000806E0E460021A5B1034636F8022B0131170AFA2903F8027B427007D1D4F820314FF4FA71A06E9847A36E0021013D1846E9E731B1D4F82031A06E4900BDE8F0419D
:404CC0001847BDE8F08108B5D0F8B830984708BD89B2FFF7C7BF00002DE9F04F3E4E82468568306885B0007C884610F0010F14469946A3EB01003DD043000393471C0E9B00
:404D00009C4266DCD5F8CCB0EE6EBBF1000F01D1C34607E08DE850004B46224641465046D8470DE0CB450ADC5946D5F8F4302246504698470BF1010B26F8020BF2E7EE6E7F
:404D4000039AB31E1644B34205D0A96A33F8022F4A401A80F7E7009422464B4641462846D5F8A860B0473A46E96E2846FFF784FF0134C4E70E9FBC1A671C00FB07770E981F
:404D80000090D5F8A8402846A0473368AE6EDB6B1C680123C4F3072906EB030AE4B2C7B1B846F92F28BF4FF0F9084FEA48013BB9D5F8203150469847C8EB07070023EEE7B2
:404DC000334672189342F3D083F8019003F8024FF8E705B0BDE8F08F6081FF1F2DE9F04F8FB00393836805900993199B0691082B08920CD8199A4FF48B73D340DB0706D503
:404E0000984B1B681B7C03F00303022B10D0069B1C9A18989918089A039B0244013A0092099ACB18D2F8A840013B089A0998A047039B1C9A013B0D93069B089F1344049360
:404E4000049A0D9B13440C93089B189AFB1A9A4240F35382199B013B0F2B00F24882DFE813F01000C10046024801460246024602D8014602460246024602460246024602ED
:404E80004102059B9C681D9B5B680B93754B1B681B7C03F00303022B22D0032B76D0012B74D01D9B039E1C9DDDF86CB0B3F80090BDF82CA04FF080089BF8002048FA05F3A9
:404EC0001A4214BF5146494601352046FFF7CAFE082D04BF0BF1010B0025013EECD106E21B9B00250A932B46DDF810B0D4F86CA0DDF87080CDF81CB00A9A92F800908022EE
:404F000042FA08F219EA02090DD01BB9D4F86CA0DDF81CB0BDF82C300135AAF800300AF1020A012313E0012B10D1079B0097013B3A4659462046D4F8A860B0472A46E16E3B
:404F40002046FFF799FE4D464B4600E04B46079A08F101080132B8F1080F079208BF0A9A039904BF01320A92049A08BF4FF000080A4407999142BFD1002D00F0B8810097F7
:404F8000D4F8A8600C9B3A465946A5E1039B049A1C9DDDF86C80079303EB020A4FF0800B079B98F80020C3EB0A094BFA05F31A420DD0D4F8F4303A46494605989847A36AAC
:404FC0003A46434049460598D4F8F860B0470135079B082D04BF08F101080025013B0793DED184E1059B9C681D9B002B00F07F811B9B93F800B01B4B1B681B7C13F0030395
:405000000FD0022B40F07381049B00260A931B9BD4F86CA0DDF870900B93DDF81080324645E01C9D039EDDF86C904FF0C008C5F103035A00C2F1060348FA03F303EA0B03A4
:40504000D3401D9A013532F823102046FFF70AFE042D02BF99F801B0002509F10109013EE5D144E16081FF1F1AB9D4F86CA0CDF82880079A1D9B013653F822300AF1020AAD
:405080002AF8023C012209F10109B9F1040F08F1010806D10B9B4FF0000993F801B001330B93049B03990B44984500F0A680C9F103056D00C5F10603C02141FA03F303EA6D
:4050C0000B03EB400793CFD1012A10D1009708F1FF333A460A992046D4F8A850A8473246E16E2046FFF7C8FD079E3246CBE7079AC9E7059B9C681D9B002B00F0F8801B9B86
:4051000093F800B07E4B1B681B7C13F003030FD0022B40F0EC80049B00260A931B9BD4F86CA0DDF870900B93DDF81080324642E01C9D039EDDF86C904FF0F008C5F1010322
:405140009A00C2F1040348FA03F303EA0B03D3401D9A013532F823102046FFF783FD022D02BF99F801B0002509F10109013EE5D1BDE01AB9D4F86CA0CDF82880079A1D9B11
:40518000013653F822300AF1020A2AF8023C012209F10109B9F1020F08F1010806D10B9B4FF0000993F801B001330B93039B04990B44984521D0C9F10105AD00C5F104037B
:4051C000F02141FA03F303EA0B03EB400793D0D1012A10D1009708F1FF333A460A992046D4F8A850A8473246E16E2046FFF744FD079E3246CCE7079ACAE7002E77D0009770
:405200003A46D4F8A8500C9B0A992046A847324665E0059B9C681D9B002B68D0384B1B681B7C13F003030FD0022B60D1DDF818A0039A00255244D4F86C80DDF86CB0CDF8D9
:405240001CA02B460A9224E01B9D039B1B9A5B1B1344002B4BDD15F8013B1D9A204632F82310FFF7FFFCF0E71BB9D4F86C80DDF81CA01D9B013553F8293008F1020828F8D9
:40528000023C0123079A0132079207990A9A914219D01BF8019BB9F1000FE5D1012B10D1079B0097013B3A4651462046D4F8A860B0472A46E16E2046FFF7DEFC4D464B461E
:4052C000E0E74B46DEE70D9B069A13447DB13A4651460097D4F8A8602046B0472A46E16E204602E0039A1B990998FFF7C5FC1B9B1A9A013713441B93A6E50FB0BDE8F08F20
:405300006081FF1F10B50446FFF7B2FBA468104B0821C4F8EC300F4B2046C4F8F0300E4BC4F8F4300D4BC4F8F8300D4BC4F8A0300C4BC4F8A430D4F8CC30C4F80431D4F8F3
:40534000943098471023A363074B636410BD00BFDD4D0000D94C0000BF49000037490000C74C0000D14C000000FE00002DE9F04104460E461546D0F88C302A219847E16A6E
:40538000D4F8903031442046C1F30F219847E16AB7B23944D4F890302046C9B29847E16AD4F8903031442046C1F30F219847E16AD4F8903039442046C9B29847D4F88C3035
:4053C00020462B219847216BD4F8903029442046C1F30F219847216BAEB23144D4F890302046C9B29847216BD4F8903029442046C1F30F219847216BD4F890303144204620
:40540000C9B29847D4F88C302046BDE8F0412C2118472DE9F041044688461F461646D0F88C302A21069D9847E16AD4F8903041442046C1F30F219847E16AD4F89030414450
:405440002046C9B29847E16AD4F8903039442046C1F30F219847E16AD4F8903039442046C9B29847D4F88C3020462B219847216BD4F8903031442046C1F30F219847216B80
:40548000D4F8903031442046C9B29847216BD4F8903029442046C1F30F219847216BD4F8903029442046C9B29847D4F88C302046BDE8F0412C21184713B504466B460D4AAE
:4054C0001068516803C3D4F88C302046362198472046636B02AAA18C134413F8083C21F0E0011943D4F8903089B202B0BDE81040184700BF64FA000013B50446D0F8143187
:405500002E209847216AD4F83031684603319847236A0DEB03021DF803305078DB088008DB0243EA4013907843EAD00002B010BD1FB50446D0F834312E209847216AD4F810
:405540005031684602319847226A0DEB42035B88C3F3C4005B1103F4FC6303433DF81200000200F47840184304B010BD70B505460C46D0F81431080A9847D5F81431E0B287
:40558000BDE870401847D0F8343108461847D0F81831C8B21847D0F83831084618470000082902D0102905D07047064BC0F88C30054B03E0054BC0F88C30054BC0F8903049
:4055C000704700BF6D5500008F5500008755000097550000F0B585B00A9F8568BC1A581A0097013400FB0444D5F8A87028460B9EB847D5F814312E209847D5F83031296A05
:4056000002A89847D5F83031032102A898479DF80930013C4FEA93029DF808304FEAD3034FEAC32343EA42139DF80A2043EAD20326F8023BE6D105B0F0BDF0B587B00C9FF4
:405640008568BC1A581A0097013400FB0444D5F8A87028460D9EB847D5F834312E209847D5F85031296A02A89847D5F85031022102A89847BDF80A30013CC3F3C4024FEA45
:40568000631303F4FC6343EA0203BDF808204FEA022222F4FF6243EA020326F8023BE4D107B0F0BD10B50446FFF7E2F9A368114A0021C3F8AC20104AC3F8BC10C3F8A82043
:4056C0000E4AC3F8D010C3F8B0200D4AC3F8B8200C4A10685268C3F8B400C3F8C820DA8C094822F00302DA84084AC3F8CC00C3F8942010BD6D53000013540000B954000033
:40570000F95400007881FF1FD5550000A155000070B5084B1B681A7C82EA0001490705D59C6BD96B25680E6826600D601874104670BD00BF6081FF1F014B1B689B6818477E
:405740008081FF1F0A46154B30B41B680446B3F90A10914220DCB3F90E108A421CDCB3F90810814218DCB3F90C10884214DC197C587C11F0010F0A4951F8200004D0C36854
:40578000214630BCDB691847C168DB6B8D691B682146AC4630BC604730BC70476081FF1F6CA5FF1F114B30B41C680D46B4F90A308B4219DCB4F90E30994215DCB4F9081012
:4057C000B4F90C308142B8BF01469342A8BF1346994209DC607C064A52F82000C26894682A46A44630BC604730BC70476081FF1F6CA5FF1F124B30B41C68B4F90830834201
:405800001BDCB4F90C30984217DCB4F90A309942B8BF1946B4F90E309342A8BF134699420BDC084A647C52F82440E268D5680A46AC460146204630BC604730BC704700BF96
:405840006081FF1F6CA5FF1F73B5134C2468B4F90850B4F90C608542B8BF05469642A8BF1646AE4215DBB4F90A208A42B8BF0A46B4F90E108B42A8BF0B469A4209DC607C6E
:40588000064951F82000C16800930C6933462946A04702B070BD00BF6081FF1F6CA5FF1F2DE9F04F8FB0189DDFF8C8E10295199DDEF800E008951B9D079003950C46174665
:4058C0000193DDF868A01C9EDDF874B01E9DBEF1000F02D0DEF8004054E0029B089A1343012B54D1614B1868B0F90A20531A002B0ADD0199C3EB010EBEF1000F40F3B28011
:40590000039901FB036602E00A46DDF804E0019B1C44B0F90E30013CE41A002C05DDC4EB0E0EBEF1000F40F39D80079BB0F90C103B44013B5B1A002BC8BFFF1A079B591BFE
:40594000B0F90830994209DA5B1A1D44FF1A23F0070306EBE506194405F00705002F40F38180407C424B039C53F82000C368CDF874B01C951B961A94CDF864A0CDF860E09A
:405980005C683B46A4460FB0BDE8F04F60477546CAF108030B93029BDFF8D090013BCDF814E00D93059B019A93425BDA089BE3180993013B0A93D9F800300A99B3F90A2014
:4059C0008A4248DCB3F90E309C4244DC079B4FF0000806960093CDF81080049BBB423ADAB8F1000F05D1069B4FF008081D78013306930B9BCAEB080845FA03F313F0FF012F
:405A000005FA0AF5EDB204D1D9F80020127C920719D4D9F80020D26B10680C90BBF1000F02D05BF8213000E0DBB2136000990D9A0A9B0A4400982146FFF706FFD9F800306E
:405A40000C9ADB6B1A60049B029A01330493009B13440093C1E7059B099C01330593039B1E449FE70FB0BDE8F08F00BF6081FF1F6CA5FF1F28A5FF1F2DE9F04F8FB0189CF3
:405A8000DFF814E20294199C1D9E0894DEF800E01B9C054603940091904601931A9F1C9C0496BEF1000F02D0DEF800407AE0029B089A1343012B7AD1754B01991868009BA1
:405AC000B0F90A20D31A002B07DDC91A002940F3DB80039E06FB034400E0009A9DE848001E44B0F90E30013EF61A002E03DD891B002940F3C98005EB0803B0F90C60013BD2
:405B00009B1BB0F90860002BC8BFC3EB0808B54231DA731B082FC3EB080827D00DDC022F14D0042F1AD0012F26D123F0070604EBE304354403F007031EE0182F18D0202F88
:405B400016D0102F18D104EB430413E023F0030604EBA304354403F003030DE023F0010604EB6304354403F0010305E01C4401E004EB830435460023B8F1000F40F38480D4
:405B8000467C444850F82600049ED0F80CE01C93039B18911A93294643461D961B941997DEF80440A4460FB0BDE8F04F6047F346C7F108030B93029BDFF8D4A0013BCDF855
:405BC00018E00D93069B019A93425DDA009A089B13440993013B0A93DAF800300A99B3F90A208A4248DCB3F90E30009A9A4243DC2E464FF000090794CDF81490059B4345EA
:405C00003ADAB9F1000F06D1079B4FF0080993F800B0013307930B9B0BFA07F24BFA03F313F0FF015FFA82FBC7EB090904D1DAF80020127C920717D4DAF80020D26B1068C9
:405C40000C90049810B150F8213000E0DBB213600D9A0A9B324400993046FFF7F5FDDAF800300C9ADB6B1A60059B029A01330593334613441E46C1E7069B01330693039BA1
:405C80001C44099B00939DE70FB0BDE8F08F00BF6081FF1F6CA5FF1F28A5FF1F044B1968044B4A7C083153F82200C3681B6B18476081FF1F6CA5FF1F07B5FFF7EFFF00F0B5
:405CC000B1F8002839D1FDF789FC019038B900F0FFF81B4B1A681B4B9A420CD12AE0C3680C215B6A01A89847034628B3019898470028ECD021E00020FDF770FC0190C8B126
:405D0000002001F0CFFC0420FFF716FD43F6FF7300211A460846FFF797FD0020FFF70CFD019B0E21DB6801A85B6A9847034608B101989847002000E0012003B05DF804FB3A
:405D4000ECA2FF1F785634FF044B1B685A7C044B53F822301B691B68184700BF6081FF1F6CA5FF1F044B1B685A7C044B53F822301B695B68184700BF6081FF1F6CA5FF1F68
:405D8000044B1B681A7C52074CBF9B6BDB6B1860704700BF6081FF1F08B5064B1B68196B814206D01863FFF7CFFFBDE80840FFF7E7BF08BD6081FF1F044B1B681A7C5207E3
:405DC0004CBFDB6B9B6B1860704700BF6081FF1F08B5064B1B68596B814206D05863FFF7B3FFBDE80840FFF7E7BF08BD6081FF1F014B1B685B6818478081FF1F014B1B68E2
:405E00001B6818478081FF1F10B5044C2068FCF7C1FE034A00232360136010BD80A5FF1F98A3FF1F38B50A4D2C6864B9094B18688000FCF789FF286038B10748074B40F835
:405E4000043FFDF735FB002038BD012038BD00BF80A5FF1F8481FF1F98A3FF1F095E00002DE9F843044618B387681FB3144D286820B32268B2F5807F1FDC124B00261B688F
:405E80009A42A8BF1A469046464509DA57F82600D5F80090FFF758FF49F826000136F3E7094B1B680BB1204698472868BDE8F883BDE8F8833846BDE8F8830020BDE8F883DE
:405EC00080A5FF1F8481FF1F98A3FF1FFFF7C8BF2DE9F74F00F013F91C4E8046B146DFF874A0002444452DDA2046FDF777FB38B33368204693F811B05C7400F057F8082805
:405F000004DDD9F8003083F811B019E05AF824301A690F4B9A42F4D0204600F04AF8034600259D42EDDAEFB238460193FFF71AFF39460246204600F041F90135019BF0E7B9
:405F40000134CFE703B0BDE8F08F00BF6081FF1FE8FD00006CA5FF1F024B1B689B6B1868704700BF6081FF1F024B1B68DB6B1868704700BF6081FF1F10B50C46FDF72EFB83
:405F800028B1C3682146BDE810409B6A184710BD002801DCFFF7F0BF00207047014608B50020FFF7E9FF20EAE07008BD0821FFF7EFBF0921FFF7ECBF024B1B68587CFFF77C
:405FC000F8BF00BF6081FF1F034B082153F82000C3689B6A184700BF6CA5FF1F10B5FDF7FDFA28B1BDE81040C3680221DB6A184710BD0000024B1B68587CFFF7EFBF00BF89
:406000006081FF1F024B53F820301B69586870476CA5FF1F024B53F820301B69186870476CA5FF1F0120FFF7B9BF0220FFF7B6BF014B83E803007047A4A3FF1F014B1868BF
:40604000704700BFA4A3FF1F014B5868704700BFA4A3FF1F00283BD030F0010329D030F0030328D030F0070327D030F00F0326D030F01F0325D030F0FF0324D020F4FF73D4
:4060800023F001030BB320F47F6323F00F03E3B120F4FF4323F07F03BBB1030C1B04A3B1830C9B049BB110F07F4F0CBF182020207047012070470220704703207047042092
:4060C00070470520704708207047102070471220704708B5FFF7BEFF01280FD0831E062B09D9A0F10903072B07D911380F288CBF0020202008BD082008BD102008BD08B5F4
:406100000020FDF76BFA003018BF012008BD0000F7B50446134F144E3B680D465B7C694656F82300C3681B6B9847BDF90030A34215DCBDF904309C4211DCBDF90230AB427C
:406140000DDCBDF906309D4209DC3B682A465B7C214656F82300C3685B69984700E0002003B0F0BD6081FF1F6CA5FF1F08B5FFF7CFFFBDE80840FFF7F5BD00000D4B10B535
:406180001C461A68517C0C4A52F8210040B1C36813B11B68042B01D00068F7E7FDF754FA23680022DA6503F108025A61BDE81040FFF774BD6081FF1F6CA5FF1F37B50C4655
:4061C0001546FDF70BFA019008B901200CE0C36810215B6A01A8984703460028F5D001982A4621469847002003B030BD37B50C461546FDF7F3F9019008B901200CE0C368FB
:406200000B215B6A01A8984703460028F5D001982A4621469847002003B030BD37B50C461546FDF7DBF9019008B901200CE0C3680A215B6A01A8984703460028F5D001986E
:406240002A4621469847002003B030BD10B5074C2368186BFFF778FDFFF792FD2368586BFFF772FDBDE81040FFF7A6BD6081FF1F144B70B500241C60134B14481C60144BD9
:40628000144D1C60144B04701C60144B44601C60134B84601C60134B21461C6018222B680C309847104B21461C60104B08221C600F482B6898472B682146BDE870400822CB
:4062C0000C481847B0A5FF1F98A5FF1FACA3FF1FB8A5FF1F9481FF1FC0A5FF1F88A5FF1FA8A5FF1FB4A5FF1F94A5FF1F8CA5FF1FCCA5FF1FC4A5FF1FF0B507460C461646F6
:4063000085B002AD002F48D03846FCF757FC876A0146BB0701903AD526B13246284600F07BFF02E003C885E8030029462046FCF7E5FF60B317F0010F019B1CD13EB1B3F996
:406340000220B6F902309342B8BF134601E0B3F90230B4F902209342B4F9062005DDBDF90A309A4213DB013B03E0BDF90E309A420DDDE3800BE0DF694FB138462A462146DF
:40638000FFF7BAFF3846FCF70FFC076AF4E7019B01A81F6AFCF720FCB4E705B0F0BD2DE9FF4106460F469046002502AC002E35D03046FCF703FC866A0146B207019027D5D4
:4063C000B8F1000F04D04246204600F025FF02E003C884E8030021463846FCF78FFFB8B1F30705D4BDF80C30012501333B800FE0019BDE6966B1224639463046FFF7CFFF41
:406400000028304618BF0125FCF7CEFB066AF1E7019B01A81E6AFCF7DFFBC7E7284604B0BDE8F081F0B505460E46174685B002AC7DB32846FCF7C2FB856A0146AA070190F3
:4064400021D527B13A46204600F0E6FE02E003C884E8030021463046FCF750FF98B1EB0704D4BDF80830013BB3800CE0019BDD694DB1284622463146FFF7D4FF2846FCF7A7
:4064800093FB056AF4E7019B01A81D6AFCF7A4FBCEE705B0F0BD000073B506460D462846FCF78CFB836A014613F00204019004D101A8FCF791FB204612E0304600F08FFECA
:4064C000019B01A89C693CB9FCF786FB054B1868431B5842584103E0FCF77EFB2546DEE702B070BD8CA5FF1F2DE9FF4106460C4600294CD0FCF762FB002384610190036254
:406500002046FCF75BFBC76904AC44F8080D2FB9C66101A8FCF760FB204636E0019B38469D6AFCF74BFB0DF1100805F0080548F8040D75B9836A1A070BD5019B01A81F6254
:40654000029BDE61FCF748FB2046FCF745FB40461BE02046FCF740FB4046FCF73DFB3846FCF722FB0390039B1C6A0CB91E620BE02046FCF719FB002DF4D1836A1B07F1D501
:40658000039B1E62019B1C6201A8FCF725FB04B0BDE8F08103460846B3F90220B3F90010FCF78BBE114B30B51C6885B0626C0546BAB11068516802AB03C30D4B186800B90D
:4065C000A06CFCF7FBFA04AC02A944F80C0DFFF7E1FF2046FCF700FB02A8294600F0FFFD02A802F01FFA05B030BD00BF6081FF1F88A5FF1F1FB50E4B1B6893F854200AB1FE
:406600000C4811E0986CFCF7D9FA02AC019003C884E8030001A8FCF7DFFA074B196811B12046FFF739FF2046FFF7BCFF04B010BD6081FF1FC0A3FF1F88A5FF1F13B50446BF
:4066400000B3FCF7BBFA836A01909B0717D5406A40B10D4B1B689C4204D001F0ABF8019B00225A62204600F053FC04463CB12046FFF7E4FF2046FCF797FA046AF6E701A884
:40668000FCF7AAFA02B010BDBCA5FF1FB0F90020B0F904309A4208DCB0F90230B0F906008342CCBF0020012070470020704700007FB50D4604461646FCF776FA816A01902A
:4066C0008B0733D52846FFF7E1FF78B340F601030B40012B2AD02046FCF770FA02AC024601902946204600F097FD2046FFF7CEFFC8B144F22001019B9A6A03F10805114058
:4067000029B1224629462846FCF7ACFD0BE0324394E8030085E803009A62054A138801331380FDF7E7FE01A8FCF756FA04B070BD9CA5FF1F2022FFF7BBBFF0B50F4685B0BC
:406740001546064648B3FCF739FA836A04AC9B07024644F80C0D03D42046FCF73DFA1CE0394602A800F058FD0028F5D02046FCF733FA2A4602A93046FFF79AFF304600F0AB
:40678000C7FB04464CB120462A4602A9FFF7D5FF2046FCF709FA046AF4E705B0F0BD2DE9FF41804617461D460C4681B30846FCF705FA866A0246B307019025D5414602A82E
:4067C00000F02AFD00B340F601033340012B07D101992B460A6A02A88969FFF7E0FF04E02A4602A92046FFF763FF019BDC695CB1BC4209D020462A4602A9FFF79EFF204632
:40680000FCF7D2F9046AF2E701A8FCF7E5F904B0BDE8F0812023FFF7C2BF1FB504AB43F8101D1946019000F027FB05B05DF804FB00230B8002884B8083889B1A8B804288C7
:40684000C3889B1ACB807047F0B50F4687B00546002833D0FCF7B2F9866A0190B2072AD503C804ACF30384E8030002D52846FFF7E5FE5FB13868796802AB03C302A9019852
:40688000FFF788FE02A9204600F0A9FC29462046FFF702FE78B140F601033340012B06D1019B20461A6A9969FFF7B4FF03E021462846FFF73FFF01A8FCF78EF907B0F0BD6E
:4068C0000021FFF7C1BF00000B4B70B51A680546966C1C4608B9094B1D689564FFF7DEF92846FCF761F92368B0F90020DA64B0F9022030461A6570BD6081FF1FA0A5FF1F59
:406900002DE9F74FDDF830A098464C4B05460E461746D3F80090BAF1000F24D1484B1B8833B3484B1B685A1C012A21D99A465046FCF744F9B0F90010B0F9022001900D4402
:4069400016441FB9B0F904305F1A0137B8F1000F05D1B0F90630C2EB030808F1010801A8FCF73AF904E0BAF1FF3FE0D14FF0000A0F982C30FCF7B6FA0446002859D0304ADF
:406980000D9B0DF1080B49EA0309138801331380FCF714F90E9B826A03612B4B4BF8080D09EA0303058046803D4446441343013D013E83628580C6805846FCF70DF9234B5F
:4069C000186848B1FCF7F0F805462046FCF7ECF86B6943616C6100E01C6051462046FFF783FD19F0200F02D02046FFF76DFF19F0010F1FBF164A13680133136019F0400F04
:406A000002D0204600F094FA19F0020F0DD02046FCF7D4F8836A009043F0020383625846FCF7DAF82046FFF74BFF01212046FFF7F4FE204603B0BDE8F08F00BFA8A5FF1F0A
:406A400084A5FF1F8CA5FF1F9F3F3F00A0A5FF1FC0A5FF1F1FB5089C0394079C0294069C019400240094FFF74BFF04B010BD00002DE9FF415D4F3B6893F85400002800F0E9
:406A8000B1805B4A136A1446012B03DD013B13620020A7E0D36902AD013302F1140696E80300D36185E8030023B99389ADF80830D38910E0138BD28A0133ADF80A20B4F9A9
:406AC00010201BB29A42ADF8083006DAA389ADF80830638B0133ADF80A30BDF90A20B4F91230DFF80C819A4204DD236A0020013B236277E03B68986CFCF760F8BDF9082071
:406B0000B8F90C3001909A421CD1B8F81230ADF80E30B8F81030ADF80C30344B1B689A6C5AB11046FCF740F8804600222946006AFFF7E2FBD8F81820F2E7019B2946D86913
:406B4000FFF7DAFBBDF80830ADF80C303B689A6C6AB11046FCF728F8002280462946006AFFF71DFC0028EDD1D8F81820F0E7019B2946D869FFF713FC0028E3D1B4F91030A0
:406B8000BDF90820ADF80C309A4207DD95E8030086E8030001A8FCF71FF897E73B689A6C52B11046FCF700F8074600222946006AFFF738FCBA69F3E704AF57F80C3D29461E
:406BC000D869FFF72FFC3846FCF706F844F62063E2699A4289DC95E8030086E80300FFF709FD012004B0BDE8F08100BF6081FF1FACA3FF1F2DE9F041394E86B03268804614
:406C000092F8543013B9FFF7F5FC64E0354F3B6A3D460133012B3B625DDC906CFBF7CEFF4FF0FF33FB61304B00901B7813B102AB083004E0836A13F002040CD002AB03C870
:406C400002AC83E80300B8F1000F0CD04146204600F0C5FA07E03B6A6846013B3B62FBF7BBFF204638E03368204F5A6CC2B1009B10685168019304AB03C33B6833B101A843
:406C8000FBF7AAFF3868FBF799FF019004A90198FFF780FC204604A900F0A1FA01A800E06846FBF799FF396819B12046FFF7F4FB28B133682046996CFFF7EEFB18B92B6A8D
:406CC000013B2B6208E00A4B94E8030083E80300FFF7CEFE00E0012006B0BDE8F08100BF6081FF1FACA3FF1FA5A5FF1F88A5FF1FB8A3FF1F024B01221B6883F85420704722
:406D00006081FF1F10B5044623684068172B10D007DC0E2B0FD0142B14D1E16800F0D2F810E0222B0CD0282B0CD1BDE81040FFF7C7BDE06010BD2146BDE8104000F03BB9C9
:406D4000024B00E00023E36010BD00BF785634FF036810B50E2B044602D00F2B09D011E0C3685A68012A12D1BDE810401868FDF789BB074B1868074B984203D0FCF7E4FA20
:406D8000FCF786FB2046BDE81040FFF7BBBF10BDACA5FF1F785634FF30B51D4C85B02178002932D11B4B084619601B4BA1601B681A4D59641A4B19801A4B1980042302931C
:406DC000194B01930223009343F6FF731A46FFF741FE164A164B28601A60FFF771FD154800F068F8144800F065F82868FFF76CFDFFF780FF204601232370104B40F8243FAF
:406E000005B0BDE83040FCF753BB05B030BD00BFACA3FF1FA0A5FF1F6081FF1F8CA5FF1F9CA5FF1F84A5FF1F516D0000785634FFACA5FF1FCCA5FF1FC4A5FF1F716200004B
:406E400008B500F06DF818B1FBF7AEFEC06908BD08BD38B50546FFF7F3FF044654B1AC4207D02046FBF7A0FE036A9D4202D01C46F4E70024204638BD70B50D4C064623688D
:406E80000D46132B12DCFBF78FFE02696E6042B1236828460133236090472368013B236070BD2846BDE87040FFF72CBF70BD00BFDCA3FF1F024B1A6802601860704700BF5E
:406EC000B0A5FF1F37B50D4658B151B1FBF776FE02AC44F8040D2946FFF7AAFC2046FBF77BFE03B030BD0000044B0146186810B9034B1B68986CFFF7E5BF00BF88A5FF1FA0
:406F00006081FF1F014B1868704700BF8CA5FF1F08B5034610B1FBF747FEC369184608BD08B5034610B1FBF73FFE8369184608BD2DE9F043044687B0002839D0FBF73EFE46
:406F4000034604AD019003C885E8030001A81E6AD3F82890FBF740FE2046FFF77AFF074630B32046FFF7DCFF19F0020F804604D0014632462846FFF74DFC2046FBF71EFE97
:406F800001904046FBF71AFE03903846FBF716FE039B019AD96906620290116201A8DC61FBF71AFE03A8FBF717FE02A8FBF714FE07B0BDE8F08338B505460C4641B1FFF720
:406FC000AFFF28B1A5602146BDE83840FFF754BF38BD0000044B10B51B685C6C5864FFF709FB204610BD00BF6081FF1F2DE9F04F06460F46904687B09DF850300493129B21
:407000009D00109B05EB8303039300230193184B139A0199914228D0C246B346DDF8489002975BF8040B0499020EC2F1FF024A43FF21B2FBF1F2029CD2B254F8041B20F0EC
:407040007F4002941C680593A047B9F1010920F07F404AF8040B059BE3D1039A2E441744019AA84401320192D2E707B0BDE8F08F8881FF1F81F07F4180F07F400B0E4FEA6C
:40708000106302FB03F24FF0FF03B2FBF3F208BF20F07F4130B5C0F307249D1A44F080730C0A04F0FF146C4300F0FF1002FB0344424301F0FF1305FB0321090A04F0FF247B
:4070C00001F0FF1144EA010080F07F4030BD0000F7B5061E0C4662DC324D6B6803B19847012C04D0022C20D0002C58D133E005EB8605AF68AFB93046FCF770FA01900028F2
:407100004DD0C3680D215B6A01A898470346002845D0214601989847AB6838460133AB603EE0781CA86020463AE03046FCF756FA0190002833D0C3680D215B6A01A8984702
:40714000044600282BD02B6803B1984702210198A047002024E0B4002B199B68012B01D0012015E03046FCF739FA01900028F7D0C3680D215B6A01A8984706460028EFD0B2
:40718000084B1B6803B1984700210198B04700202544AB68002B18BF013BAB6000E0012003B0F0BDE0A3FF1F024B01461B68587CFFF78EBF6081FF1F13B50368044602A87A
:4071C00040F8043DFDF766F920B10A2804D1019B236001E0012000E0002002B010BDB1F90030B0F900209A42B8BF0380B0F90220B1F902309A42B8BF4380B0F90420B1F99E
:4072000004309A42C8BF8380B0F90620B1F906309A42C8BFC380704770B5B1F90030B2F9005006469D42B8BF1D46B1F902300580B2F90200B1F904408342B8BF0346B2F97D
